{
  "contracts/BeaconLightClient.sol": {
    "BeaconLightClient": {
      "abi": [
        {
          "inputs": [
            {
              "internalType": "address",
              "name": "_bls",
              "type": "address"
            },
            {
              "internalType": "uint64",
              "name": "_slot",
              "type": "uint64"
            },
            {
              "internalType": "uint64",
              "name": "_proposer_index",
              "type": "uint64"
            },
            {
              "internalType": "bytes32",
              "name": "_parent_root",
              "type": "bytes32"
            },
            {
              "internalType": "bytes32",
              "name": "_state_root",
              "type": "bytes32"
            },
            {
              "internalType": "bytes32",
              "name": "_body_root",
              "type": "bytes32"
            },
            {
              "internalType": "bytes[512]",
              "name": "_pubkeys",
              "type": "bytes[512]"
            },
            {
              "internalType": "bytes",
              "name": "_aggregate_pubkey",
              "type": "bytes"
            },
            {
              "internalType": "bytes32",
              "name": "_genesis_validators_root",
              "type": "bytes32"
            }
          ],
          "stateMutability": "nonpayable",
          "type": "constructor"
        },
        {
          "inputs": [],
          "name": "GENESIS_VALIDATORS_ROOT",
          "outputs": [
            {
              "internalType": "bytes32",
              "name": "",
              "type": "bytes32"
            }
          ],
          "stateMutability": "view",
          "type": "function"
        },
        {
          "inputs": [],
          "name": "finalized_header",
          "outputs": [
            {
              "internalType": "uint64",
              "name": "slot",
              "type": "uint64"
            },
            {
              "internalType": "uint64",
              "name": "proposer_index",
              "type": "uint64"
            },
            {
              "internalType": "bytes32",
              "name": "parent_root",
              "type": "bytes32"
            },
            {
              "internalType": "bytes32",
              "name": "state_root",
              "type": "bytes32"
            },
            {
              "internalType": "bytes32",
              "name": "body_root",
              "type": "bytes32"
            }
          ],
          "stateMutability": "view",
          "type": "function"
        },
        {
          "inputs": [],
          "name": "latest_execution_payload_state_root",
          "outputs": [
            {
              "internalType": "bytes32",
              "name": "",
              "type": "bytes32"
            }
          ],
          "stateMutability": "view",
          "type": "function"
        },
        {
          "inputs": [
            {
              "components": [
                {
                  "components": [
                    {
                      "internalType": "uint64",
                      "name": "slot",
                      "type": "uint64"
                    },
                    {
                      "internalType": "uint64",
                      "name": "proposer_index",
                      "type": "uint64"
                    },
                    {
                      "internalType": "bytes32",
                      "name": "parent_root",
                      "type": "bytes32"
                    },
                    {
                      "internalType": "bytes32",
                      "name": "state_root",
                      "type": "bytes32"
                    },
                    {
                      "internalType": "bytes32",
                      "name": "body_root",
                      "type": "bytes32"
                    }
                  ],
                  "internalType": "struct BeaconChain.BeaconBlockHeader",
                  "name": "attested_header",
                  "type": "tuple"
                },
                {
                  "components": [
                    {
                      "internalType": "bytes[512]",
                      "name": "pubkeys",
                      "type": "bytes[512]"
                    },
                    {
                      "internalType": "bytes",
                      "name": "aggregate_pubkey",
                      "type": "bytes"
                    }
                  ],
                  "internalType": "struct BeaconChain.SyncCommittee",
                  "name": "next_sync_committee",
                  "type": "tuple"
                },
                {
                  "internalType": "bytes32[]",
                  "name": "next_sync_committee_branch",
                  "type": "bytes32[]"
                },
                {
                  "components": [
                    {
                      "internalType": "uint64",
                      "name": "slot",
                      "type": "uint64"
                    },
                    {
                      "internalType": "uint64",
                      "name": "proposer_index",
                      "type": "uint64"
                    },
                    {
                      "internalType": "bytes32",
                      "name": "parent_root",
                      "type": "bytes32"
                    },
                    {
                      "internalType": "bytes32",
                      "name": "state_root",
                      "type": "bytes32"
                    },
                    {
                      "internalType": "bytes32",
                      "name": "body_root",
                      "type": "bytes32"
                    }
                  ],
                  "internalType": "struct BeaconChain.BeaconBlockHeader",
                  "name": "finalized_header",
                  "type": "tuple"
                },
                {
                  "internalType": "bytes32[]",
                  "name": "finality_branch",
                  "type": "bytes32[]"
                },
                {
                  "components": [
                    {
                      "internalType": "bytes32[2]",
                      "name": "sync_committee_bits",
                      "type": "bytes32[2]"
                    },
                    {
                      "internalType": "bytes",
                      "name": "sync_committee_signature",
                      "type": "bytes"
                    }
                  ],
                  "internalType": "struct BeaconLightClient.SyncAggregate",
                  "name": "sync_aggregate",
                  "type": "tuple"
                },
                {
                  "internalType": "bytes4",
                  "name": "fork_version",
                  "type": "bytes4"
                },
                {
                  "internalType": "uint64",
                  "name": "signature_slot",
                  "type": "uint64"
                }
              ],
              "internalType": "struct BeaconLightClient.FinalizedHeaderUpdate",
              "name": "update",
              "type": "tuple"
            }
          ],
          "name": "light_client_update",
          "outputs": [],
          "stateMutability": "nonpayable",
          "type": "function"
        },
        {
          "inputs": [],
          "name": "prev_sync_committee",
          "outputs": [
            {
              "internalType": "bytes",
              "name": "aggregate_pubkey",
              "type": "bytes"
            }
          ],
          "stateMutability": "view",
          "type": "function"
        },
        {
          "inputs": [],
          "name": "state_root",
          "outputs": [
            {
              "internalType": "bytes32",
              "name": "",
              "type": "bytes32"
            }
          ],
          "stateMutability": "view",
          "type": "function"
        }
      ],
      "evm": {
        "bytecode": {
          "linkReferences": {},
          "object": "60c0604052604051806102800160405280620f424362ffffff168152602001620f426162ffffff168152602001620f426562ffffff168152602001620f426762ffffff168152602001620f429162ffffff168152602001620f42a362ffffff168152602001620f42b562ffffff168152602001620f42b962ffffff168152602001620f42c562ffffff168152602001620f42d762ffffff168152602001620f42df62ffffff168152602001620f42eb62ffffff168152602001620f42f762ffffff168152602001620f42fb62ffffff168152602001620f430162ffffff168152602001620f430762ffffff168152602001620f431362ffffff168152602001620f431562ffffff168152602001620f432762ffffff168152602001620f433962ffffff16815250600090601462000138929190620002c8565b503480156200014657600080fd5b50604051620040523803806200405283398181016040528101906200016c9190620007fa565b8873ffffffffffffffffffffffffffffffffffffffff1660808173ffffffffffffffffffffffffffffffffffffffff16815250506040518060a001604052808967ffffffffffffffff1681526020018867ffffffffffffffff16815260200187815260200186815260200185815250601460008201518160000160006101000a81548167ffffffffffffffff021916908367ffffffffffffffff16021790555060208201518160000160086101000a81548167ffffffffffffffff021916908367ffffffffffffffff1602179055506040820151816001015560608201518160020155608082015181600301559050506040518060400160405280848152602001838152506019600082015181600001906102006200028d92919062000314565b50602082015181610200019080519060200190620002ad9291906200036f565b509050508060a081815250505050505050505050506200097c565b826014810192821562000301579160200282015b8281111562000300578251829062ffffff16905591602001919060010190620002dc565b5b50905062000310919062000400565b5090565b8261020081019282156200035c579160200282015b828111156200035b5782518290805190602001906200034a9291906200036f565b509160200191906001019062000329565b5b5090506200036b91906200041f565b5090565b8280546200037d9062000946565b90600052602060002090601f016020900481019282620003a15760008555620003ed565b82601f10620003bc57805160ff1916838001178555620003ed565b82800160010185558215620003ed579182015b82811115620003ec578251825591602001919060010190620003cf565b5b509050620003fc919062000400565b5090565b5b808211156200041b57600081600090555060010162000401565b5090565b5b8082111562000443576000818162000439919062000447565b5060010162000420565b5090565b508054620004559062000946565b6000825580601f106200046957506200048a565b601f01602090049060005260206000209081019062000489919062000400565b5b50565b6000604051905090565b600080fd5b600080fd5b600073ffffffffffffffffffffffffffffffffffffffff82169050919050565b6000620004ce82620004a1565b9050919050565b620004e081620004c1565b8114620004ec57600080fd5b50565b6000815190506200050081620004d5565b92915050565b600067ffffffffffffffff82169050919050565b620005258162000506565b81146200053157600080fd5b50565b60008151905062000545816200051a565b92915050565b6000819050919050565b62000560816200054b565b81146200056c57600080fd5b50565b600081519050620005808162000555565b92915050565b600080fd5b6000601f19601f8301169050919050565b7f4e487b7100000000000000000000000000000000000000000000000000000000600052604160045260246000fd5b620005d6826200058b565b810181811067ffffffffffffffff82111715620005f857620005f76200059c565b5b80604052505050565b60006200060d6200048d565b90506200061b8282620005cb565b919050565b600067ffffffffffffffff8211156200063e576200063d6200059c565b5b602082029050919050565b600080fd5b600080fd5b600067ffffffffffffffff8211156200067157620006706200059c565b5b6200067c826200058b565b9050602081019050919050565b60005b83811015620006a95780820151818401526020810190506200068c565b83811115620006b9576000848401525b50505050565b6000620006d6620006d08462000653565b62000601565b905082815260208101848484011115620006f557620006f46200064e565b5b6200070284828562000689565b509392505050565b600082601f83011262000722576200072162000586565b5b815162000734848260208601620006bf565b91505092915050565b6000620007546200074e8462000620565b62000601565b9050806020840283018581111562000771576200077062000649565b5b835b81811015620007bf57805167ffffffffffffffff8111156200079a576200079962000586565b5b808601620007a989826200070a565b8552602085019450505060208101905062000773565b5050509392505050565b600082601f830112620007e157620007e062000586565b5b610200620007f18482856200073d565b91505092915050565b60008060008060008060008060006101208a8c03121562000820576200081f62000497565b5b6000620008308c828d01620004ef565b9950506020620008438c828d0162000534565b9850506040620008568c828d0162000534565b9750506060620008698c828d016200056f565b96505060806200087c8c828d016200056f565b95505060a06200088f8c828d016200056f565b94505060c08a015167ffffffffffffffff811115620008b357620008b26200049c565b5b620008c18c828d01620007c9565b93505060e08a015167ffffffffffffffff811115620008e557620008e46200049c565b5b620008f38c828d016200070a565b925050610100620009078c828d016200056f565b9150509295985092959850929598565b7f4e487b7100000000000000000000000000000000000000000000000000000000600052602260045260246000fd5b600060028204905060018216806200095f57607f821691505b6020821081141562000976576200097562000917565b5b50919050565b60805160a0516136a9620009a96000396000818161020d01526107ad01526000610c5001526136a96000f3fe608060405234801561001057600080fd5b50600436106100625760003560e01c8063140fcadf1461006757806345ff7dd414610085578063a276c210146100a7578063a8769acb146100c5578063cc63f3be146100e3578063d26d9a00146100ff575b600080fd5b61006f61011d565b60405161007c91906118cf565b60405180910390f35b61008d61012a565b60405161009e95949392919061190d565b60405180910390f35b6100af610176565b6040516100bc91906119f9565b60405180910390f35b6100cd61020b565b6040516100da91906118cf565b60405180910390f35b6100fd60048036038101906100f89190611a54565b61022f565b005b6101076104d0565b60405161011491906118cf565b60405180910390f35b6000601460020154905090565b60148060000160009054906101000a900467ffffffffffffffff16908060000160089054906101000a900467ffffffffffffffff16908060010154908060020154908060030154905085565b60198061020001805461018890611acc565b80601f01602080910402602001604051908101604052809291908181526020018280546101b490611acc565b80156102015780601f106101d657610100808354040283529160200191610201565b820191906000526020600020905b8154815290600101906020018083116101e457829003601f168201915b5050505050905081565b7f000000000000000000000000000000000000000000000000000000000000000081565b61024b81806101a001906102439190611b0d565b6000016104d6565b61028a576040517f08c379a000000000000000000000000000000000000000000000000000000000815260040161028190611b92565b60405180910390fd5b6102bd81806101a0019061029e9190611b0d565b6019836101c00160208101906102b49190611c0a565b84600001610546565b6102fc576040517f08c379a00000000000000000000000000000000000000000000000000000000081526004016102f390611c83565b60405180910390fd5b6103218160e001828061018001906103149190611ca3565b84600001606001356108d6565b610360576040517f08c379a000000000000000000000000000000000000000000000000000000000815260040161035790611d52565b60405180910390fd5b6000610384601460000160009054906101000a900467ffffffffffffffff166109a0565b905060006103a4836101e001602081019061039f9190611d9e565b6109a0565b90508167ffffffffffffffff168167ffffffffffffffff1614806103e757506001826103d09190611dfa565b67ffffffffffffffff168167ffffffffffffffff16145b610426576040517f08c379a000000000000000000000000000000000000000000000000000000000815260040161041d90611e84565b60405180910390fd5b610456838060a001906104399190611ea4565b848060c001906104499190611ca3565b86600001606001356109c3565b610495576040517f08c379a000000000000000000000000000000000000000000000000000000000815260040161048c90611f18565b60405180910390fd5b828060a001906104a59190611ea4565b601981816104b391906126d8565b9050508260e001601481816104c89190612950565b905050505050565b60185481565b600060026102006104e7919061295e565b67ffffffffffffffff166003610533846002806020026040519081016040528092919082600260200280828437600081840152601f19601f820116905080830192505050505050610a86565b61053d9190612042565b10159050919050565b60008061058c866000016002806020026040519081016040528092919082600260200280828437600081840152601f19601f820116905080830192505050505050610a86565b905060008167ffffffffffffffff8111156105aa576105a9611ffd565b5b6040519080825280602002602001820160405280156105dd57816020015b60608152602001906001900390816105c85790505b5090506000805b61020067ffffffffffffffff168167ffffffffffffffff16101561079c57600060088267ffffffffffffffff16901c67ffffffffffffffff1690506000602060088461063091906129cf565b61063a9190612a00565b67ffffffffffffffff16905060006008846106559190612a00565b67ffffffffffffffff169050600180828e600001866002811061067b5761067a612a31565b5b6020020135856020811061069257610691612a31565b5b1a60f81b60f81c60ff16901c1660ff161415610788578a6000018467ffffffffffffffff1661020081106106c9576106c8612a31565b5b0180546106d590611acc565b80601f016020809104026020016040519081016040528092919081815260200182805461070190611acc565b801561074e5780601f106107235761010080835404028352916020019161074e565b820191906000526020600020905b81548152906001019060200180831161073157829003601f168201915b505050505086868061075f90612a60565b975067ffffffffffffffff168151811061077c5761077b612a31565b5b60200260200101819052505b5050508061079590612a60565b90506105e4565b5060006107d1630700000060e01b887f0000000000000000000000000000000000000000000000000000000000000000610b5e565b905060006107ef878036038101906107e99190612b88565b83610b9d565b90506000816040516020016108049190612bd6565b604051602081830303815290604052905060008b80604001906108279190611f9a565b8080601f016020809104026020016040519081016040528093929190818152602001838380828437600081840152601f19601f820116905080830192505050505050509050606067ffffffffffffffff168151146108ba576040517f08c379a00000000000000000000000000000000000000000000000000000000081526004016108b190612c3d565b60405180910390fd5b6108c5868383610bcc565b975050505050505050949350505050565b6000600667ffffffffffffffff168484905014610928576040517f08c379a000000000000000000000000000000000000000000000000000000000815260040161091f90612ca9565b60405180910390fd5b60006109438680360381019061093e9190612b88565b610d5c565b905061099581868680806020026020016040519081016040528093929190818152602001838360200280828437600081840152601f19601f820116905080830192505050505050506006606987610ebb565b915050949350505050565b60006101006020836109b291906129cf565b6109bc91906129cf565b9050919050565b6000600567ffffffffffffffff168484905014610a15576040517f08c379a0000000000000000000000000000000000000000000000000000000008152600401610a0c90612d15565b60405180910390fd5b6000610a2986610a2490612f4c565b610f7f565b9050610a7b81868680806020026020016040519081016040528093929190818152602001838360200280828437600081840152601f19601f820116905080830192505050505050506005603787610ebb565b915050949350505050565b600080600267ffffffffffffffff811115610aa457610aa3611ffd565b5b604051908082528060200260200182016040528015610ad25781602001602082028036833780820191505090505b50905082600060028110610ae957610ae8612a31565b5b602002015160001c81600081518110610b0557610b04612a31565b5b60200260200101818152505082600160028110610b2557610b24612a31565b5b602002015160001c81600181518110610b4157610b40612a31565b5b602002602001018181525050610b5681611168565b915050919050565b600080610b6b8484611438565b9050602081901c857bffffffffffffffffffffffffffffffffffffffffffffffffffffffff1916179150509392505050565b6000610bc46040518060400160405280610bb686610d5c565b81526020018481525061147e565b905092915050565b60008063d63e824060e01b858585604051602401610bec9392919061306b565b604051602081830303815290604052907bffffffffffffffffffffffffffffffffffffffffffffffffffffffff19166020820180517bffffffffffffffffffffffffffffffffffffffffffffffffffffffff838183161783525050505090506000807f000000000000000000000000000000000000000000000000000000000000000073ffffffffffffffffffffffffffffffffffffffff1683604051610c9391906130f3565b600060405180830381855afa9150503d8060008114610cce576040519150601f19603f3d011682016040523d82523d6000602084013e610cd3565b606091505b50915091508115610d0457602081511415610cff5780806020019051810190610cfc9190613142565b93505b610d52565b600081511115610d175780518082602001fd5b6040517f08c379a0000000000000000000000000000000000000000000000000000000008152600401610d49906131bb565b60405180910390fd5b5050509392505050565b600080600567ffffffffffffffff811115610d7a57610d79611ffd565b5b604051908082528060200260200182016040528015610da85781602001602082028036833780820191505090505b509050610db88360000151611499565b77ffffffffffffffffffffffffffffffffffffffffffffffff191681600081518110610de757610de6612a31565b5b602002602001018181525050610e008360200151611499565b77ffffffffffffffffffffffffffffffffffffffffffffffff191681600181518110610e2f57610e2e612a31565b5b602002602001018181525050826040015181600281518110610e5457610e53612a31565b5b602002602001018181525050826060015181600381518110610e7957610e78612a31565b5b602002602001018181525050826080015181600481518110610e9e57610e9d612a31565b5b602002602001018181525050610eb3816114ae565b915050919050565b60008086905060005b8567ffffffffffffffff16811015610f6f5760016002826002610ee7919061330e565b8767ffffffffffffffff16610efc9190613359565b610f06919061338a565b1415610f3757610f30878281518110610f2257610f21612a31565b5b60200260200101518361170c565b9150610f5e565b610f5b82888381518110610f4e57610f4d612a31565b5b602002602001015161170c565b91505b80610f68906133bb565b9050610ec4565b5082811491505095945050505050565b60008061020067ffffffffffffffff1667ffffffffffffffff811115610fa857610fa7611ffd565b5b604051908082528060200260200182016040528015610fd65781602001602082028036833780820191505090505b50905060005b61020067ffffffffffffffff168110156110be576000846000015182610200811061100a57611009612a31565b5b60200201519050603067ffffffffffffffff1681511461105f576040517f08c379a000000000000000000000000000000000000000000000000000000000815260040161105690613450565b60405180910390fd5b61108d81600060801b6040516020016110799291906134bd565b604051602081830303815290604052611740565b8383815181106110a05761109f612a31565b5b60200260200101818152505050806110b7906133bb565b9050610fdc565b5060006110ca826114ae565b9050603067ffffffffffffffff168460200151511461111e576040517f08c379a000000000000000000000000000000000000000000000000000000000815260040161111590613531565b60405180910390fd5b60006111528560200151600060801b60405160200161113e9291906134bd565b604051602081830303815290604052611740565b905061115e828261170c565b9350505050919050565b6000806000905060005b835181101561142e5760008482815181106111905761118f612a31565b5b602002602001015190507f5555555555555555555555555555555555555555555555555555555555555555600182901c167f555555555555555555555555555555555555555555555555555555555555555582166111ee9190613551565b90507f3333333333333333333333333333333333333333333333333333333333333333600282901c167f333333333333333333333333333333333333333333333333333333333333333382166112449190613551565b90507f0f0f0f0f0f0f0f0f0f0f0f0f0f0f0f0f0f0f0f0f0f0f0f0f0f0f0f0f0f0f0f0f600482901c167f0f0f0f0f0f0f0f0f0f0f0f0f0f0f0f0f0f0f0f0f0f0f0f0f0f0f0f0f0f0f0f0f821661129a9190613551565b90507eff00ff00ff00ff00ff00ff00ff00ff00ff00ff00ff00ff00ff00ff00ff00ff600882901c167eff00ff00ff00ff00ff00ff00ff00ff00ff00ff00ff00ff00ff00ff00ff00ff82166112ee9190613551565b90507dffff0000ffff0000ffff0000ffff0000ffff0000ffff0000ffff0000ffff601082901c167dffff0000ffff0000ffff0000ffff0000ffff0000ffff0000ffff0000ffff82166113409190613551565b90507bffffffff00000000ffffffff00000000ffffffff00000000ffffffff602082901c167bffffffff00000000ffffffff00000000ffffffff00000000ffffffff821661138e9190613551565b905077ffffffffffffffff0000000000000000ffffffffffffffff604082901c1677ffffffffffffffff0000000000000000ffffffffffffffff82166113d49190613551565b90506fffffffffffffffffffffffffffffffff608082901c166fffffffffffffffffffffffffffffffff821661140a9190613551565b905080836114189190613551565b9250508080611426906133bb565b915050611172565b5080915050919050565b60006114766040518060400160405280857bffffffffffffffffffffffffffffffffffffffffffffffffffffffff1916815260200184815250611799565b905092915050565b60006114928260000151836020015161170c565b9050919050565b60006114a4826117d3565b60c01b9050919050565b6000808251905060008114156114ca576000801b915050611707565b600181141561151e57611516836000815181106114ea576114e9612a31565b5b60200260200101516040516020016115029190612bd6565b604051602081830303815290604052611740565b915050611707565b600281141561156f576115678360008151811061153e5761153d612a31565b5b60200260200101518460018151811061155a57611559612a31565b5b602002602001015161170c565b915050611707565b600061157a82611865565b9050600060028261158b9190612042565b67ffffffffffffffff8111156115a4576115a3611ffd565b5b6040519080825280602002602001820160405280156115d25781602001602082028036833780820191505090505b50905060005b83811015611636578581815181106115f3576115f2612a31565b5b60200260200101518282856116089190613551565b8151811061161957611618612a31565b5b6020026020010181815250508061162f906133bb565b90506115d8565b50600060018361164691906135a7565b90505b60008111156116e4576116b4826002836116639190612042565b8151811061167457611673612a31565b5b602002602001015183600160028561168c9190612042565b6116969190613551565b815181106116a7576116a6612a31565b5b602002602001015161170c565b8282815181106116c7576116c6612a31565b5b602002602001018181525050806116dd906135db565b9050611649565b50806001815181106116f9576116f8612a31565b5b602002602001015193505050505b919050565b60006117388383604051602001611724929190613605565b604051602081830303815290604052611740565b905092915050565b600060028260405161175291906130f3565b602060405180830381855afa15801561176f573d6000803e3d6000fd5b5050506040513d601f19601f820116820180604052508101906117929190613646565b9050919050565b60006117cc82600001517bffffffffffffffffffffffffffffffffffffffffffffffffffffffff1916836020015161170c565b9050919050565b6000819050600866ff00ff00ff00ff821667ffffffffffffffff16901b600867ff00ff00ff00ff00831667ffffffffffffffff16901c179050601065ffff0000ffff821667ffffffffffffffff16901b601067ffff0000ffff0000831667ffffffffffffffff16901c17905060208167ffffffffffffffff16901b60208267ffffffffffffffff16901c179050919050565b60006001821161187857600190506118b1565b600282141561188a57600290506118b1565b6118a26001808461189b9190613551565b901c611865565b60026118ae9190612042565b90505b919050565b6000819050919050565b6118c9816118b6565b82525050565b60006020820190506118e460008301846118c0565b92915050565b600067ffffffffffffffff82169050919050565b611907816118ea565b82525050565b600060a08201905061192260008301886118fe565b61192f60208301876118fe565b61193c60408301866118c0565b61194960608301856118c0565b61195660808301846118c0565b9695505050505050565b600081519050919050565b600082825260208201905092915050565b60005b8381101561199a57808201518184015260208101905061197f565b838111156119a9576000848401525b50505050565b6000601f19601f8301169050919050565b60006119cb82611960565b6119d5818561196b565b93506119e581856020860161197c565b6119ee816119af565b840191505092915050565b60006020820190508181036000830152611a1381846119c0565b905092915050565b6000604051905090565b600080fd5b600080fd5b600080fd5b60006102008284031215611a4b57611a4a611a2f565b5b81905092915050565b600060208284031215611a6a57611a69611a25565b5b600082013567ffffffffffffffff811115611a8857611a87611a2a565b5b611a9484828501611a34565b91505092915050565b7f4e487b7100000000000000000000000000000000000000000000000000000000600052602260045260246000fd5b60006002820490506001821680611ae457607f821691505b60208210811415611af857611af7611a9d565b5b50919050565b600080fd5b600080fd5b600080fd5b600082356001606003833603038112611b2957611b28611afe565b5b80830191505092915050565b600082825260208201905092915050565b7f2173757065726d616a6f72000000000000000000000000000000000000000000600082015250565b6000611b7c600b83611b35565b9150611b8782611b46565b602082019050919050565b60006020820190508181036000830152611bab81611b6f565b9050919050565b60007fffffffff0000000000000000000000000000000000000000000000000000000082169050919050565b611be781611bb2565b8114611bf257600080fd5b50565b600081359050611c0481611bde565b92915050565b600060208284031215611c2057611c1f611a25565b5b6000611c2e84828501611bf5565b91505092915050565b7f217369676e000000000000000000000000000000000000000000000000000000600082015250565b6000611c6d600583611b35565b9150611c7882611c37565b602082019050919050565b60006020820190508181036000830152611c9c81611c60565b9050919050565b60008083356001602003843603038112611cc057611cbf611afe565b5b80840192508235915067ffffffffffffffff821115611ce257611ce1611b03565b5b602083019250602082023603831315611cfe57611cfd611b08565b5b509250929050565b7f2166696e616c697a65645f686561646572000000000000000000000000000000600082015250565b6000611d3c601183611b35565b9150611d4782611d06565b602082019050919050565b60006020820190508181036000830152611d6b81611d2f565b9050919050565b611d7b816118ea565b8114611d8657600080fd5b50565b600081359050611d9881611d72565b92915050565b600060208284031215611db457611db3611a25565b5b6000611dc284828501611d89565b91505092915050565b7f4e487b7100000000000000000000000000000000000000000000000000000000600052601160045260246000fd5b6000611e05826118ea565b9150611e10836118ea565b92508267ffffffffffffffff03821115611e2d57611e2c611dcb565b5b828201905092915050565b7f217369676e61747572655f706572696f64000000000000000000000000000000600082015250565b6000611e6e601183611b35565b9150611e7982611e38565b602082019050919050565b60006020820190508181036000830152611e9d81611e61565b9050919050565b600082356001604003833603038112611ec057611ebf611afe565b5b80830191505092915050565b7f216e6578745f73796e635f636f6d6d6974746565000000000000000000000000600082015250565b6000611f02601483611b35565b9150611f0d82611ecc565b602082019050919050565b60006020820190508181036000830152611f3181611ef5565b9050919050565b7f4e487b7100000000000000000000000000000000000000000000000000000000600052600060045260246000fd5b60008235600161400003833603038112611f8457611f83611afe565b5b80830191505092915050565b6000819050919050565b60008083356001602003843603038112611fb757611fb6611afe565b5b80840192508235915067ffffffffffffffff821115611fd957611fd8611b03565b5b602083019250600182023603831315611ff557611ff4611b08565b5b509250929050565b7f4e487b7100000000000000000000000000000000000000000000000000000000600052604160045260246000fd5b60006102009050919050565b6000819050919050565b600061204d82612038565b915061205883612038565b9250817fffffffffffffffffffffffffffffffffffffffffffffffffffffffffffffffff048311821515161561209157612090611dcb565b5b828202905092915050565b60008190506001806001038301049050919050565b6000819050919050565b60008190508160005260206000209050919050565b600082821c905092915050565b61210d7fffffffffffffffffffffffffffffffffffffffffffffffffffffffffffffffff836020036008026120d0565b815481168255505050565b600082821b905092915050565b6000600883026121557fffffffffffffffffffffffffffffffffffffffffffffffffffffffffffffffff82612118565b61215f8683612118565b95508019841693508086168417925050509392505050565b6000819050919050565b600061219c61219761219284612038565b612177565b612038565b9050919050565b6000819050919050565b6121b683612181565b6121ca6121c2826121a3565b848454612125565b825550505050565b600090565b6121df6121d2565b6121ea8184846121ad565b505050565b5b8181101561220e576122036000826121d7565b6001810190506121f0565b5050565b6000612223600019846008026120d0565b1980831691505092915050565b600061223c8383612212565b9150826002028217905092915050565b612255816120bb565b612260838254612230565b8083556000825550505050565b60006020601f8301049050919050565b60208410600081146122d857601f8411600181146122a65761229f8685612230565b83556122d2565b6122af836120bb565b6122c66122bb8761226d565b8201600183016121ef565b6122d0878561224c565b505b50612325565b6122e1826120bb565b6122ea8661226d565b8101601f871680156123045761230381600184036120dd565b5b6123186123108861226d565b8401836121ef565b6001886002021785555050505b5050505050565b6801000000000000000084111561234657612345611ffd565b5b602083106000811461239157602085106000811461236f576123688685612230565b835561238b565b8360ff1916935083612380846120bb565b556001866002020183555b5061239b565b6001856002020182555b5050505050565b80546123ad81611acc565b808411156123c2576123c18482848661232c565b5b808410156123d7576123d68482848661227d565b5b50505050565b818110156123fb576123f06000826121d7565b6001810190506123dd565b5050565b61240a6000826123a2565b50565b6000821461241e5761241d611f38565b5b612427816123ff565b5050565b5b8181101561244a5761243f60008261240d565b60018101905061242c565b5050565b818310156124875761245f8261209c565b6124688461209c565b612471836120b1565b818101838201612481818361242b565b50505050505b505050565b680100000000000000008211156124a6576124a5611ffd565b5b6124af8161202c565b6124ba83828461244e565b505050565b60006102009050919050565b600082905092915050565b601f821115612517576124e8816120bb565b6124f18461226d565b81016020851015612500578190505b61251461250c8561226d565b8301826121ef565b50505b505050565b61252683836124cb565b67ffffffffffffffff81111561253f5761253e611ffd565b5b6125498254611acc565b6125548282856124d6565b6000601f8311600181146125835760008415612571578287013590505b61257b8582612230565b8655506125e3565b601f198416612591866120bb565b60005b828110156125b957848901358255600182019150602085019450602081019050612594565b868310156125d657848901356125d2601f891682612212565b8355505b6001600288020188555050505b50505050505050565b81156125fb576125fa611f38565b5b61260684848361251c565b50505050565b612615826124bf565b61261f818361248c565b61262883611f90565b612631836120b1565b6000805b8481101561266c576126478488611f9a565b612653818386886125ec565b6020860195506001850194505050600181019050612635565b50505050505050565b61267f828261260c565b5050565b61268e83838361251c565b505050565b60008101600083016126a58185611f67565b6126af8184612675565b5050506102008101602083016126c58185611f9a565b6126d0818386612683565b505050505050565b6126e28282612693565b5050565b600081356126f381611d72565b80915050919050565b60008160001b9050919050565b600067ffffffffffffffff61271d846126fc565b9350801983169250808416831791505092915050565b600061274e612749612744846118ea565b612177565b6118ea565b9050919050565b6000819050919050565b61276882612733565b61277b61277482612755565b8354612709565b8255505050565b60008160401b9050919050565b60006fffffffffffffffff00000000000000006127ab84612782565b9350801983169250808416831791505092915050565b6127ca82612733565b6127dd6127d682612755565b835461278f565b8255505050565b6127ed816118b6565b81146127f857600080fd5b50565b60008135612808816127e4565b80915050919050565b60007fffffffffffffffffffffffffffffffffffffffffffffffffffffffffffffffff61283d846126fc565b9350801983169250808416831791505092915050565b600061285e826118b6565b9050919050565b60008160001c9050919050565b600061287d82612865565b9050919050565b61288d82612853565b6128a061289982612872565b8354612811565b8255505050565b6000810160008301806128b9816126e6565b90506128c5818461275f565b5050506000810160208301806128da816126e6565b90506128e681846127c1565b5050506001810160408301806128fb816127fb565b90506129078184612884565b50505060028101606083018061291c816127fb565b90506129288184612884565b50505060038101608083018061293d816127fb565b90506129498184612884565b5050505050565b61295a82826128a7565b5050565b6000612969826118ea565b9150612974836118ea565b92508167ffffffffffffffff048311821515161561299557612994611dcb565b5b828202905092915050565b7f4e487b7100000000000000000000000000000000000000000000000000000000600052601260045260246000fd5b60006129da826118ea565b91506129e5836118ea565b9250826129f5576129f46129a0565b5b828204905092915050565b6000612a0b826118ea565b9150612a16836118ea565b925082612a2657612a256129a0565b5b828206905092915050565b7f4e487b7100000000000000000000000000000000000000000000000000000000600052603260045260246000fd5b6000612a6b826118ea565b915067ffffffffffffffff821415612a8657612a85611dcb565b5b600182019050919050565b600080fd5b612a9f826119af565b810181811067ffffffffffffffff82111715612abe57612abd611ffd565b5b80604052505050565b6000612ad1611a1b565b9050612add8282612a96565b919050565b600080fd5b600081359050612af6816127e4565b92915050565b600060a08284031215612b1257612b11612a91565b5b612b1c60a0612ac7565b90506000612b2c84828501611d89565b6000830152506020612b4084828501611d89565b6020830152506040612b5484828501612ae7565b6040830152506060612b6884828501612ae7565b6060830152506080612b7c84828501612ae7565b60808301525092915050565b600060a08284031215612b9e57612b9d611a25565b5b6000612bac84828501612afc565b91505092915050565b6000819050919050565b612bd0612bcb826118b6565b612bb5565b82525050565b6000612be28284612bbf565b60208201915081905092915050565b7f217369676e617475726500000000000000000000000000000000000000000000600082015250565b6000612c27600a83611b35565b9150612c3282612bf1565b602082019050919050565b60006020820190508181036000830152612c5681612c1a565b9050919050565b7f2166696e616c6974795f6272616e636800000000000000000000000000000000600082015250565b6000612c93601083611b35565b9150612c9e82612c5d565b602082019050919050565b60006020820190508181036000830152612cc281612c86565b9050919050565b7f216e6578745f73796e635f636f6d6d69747465655f6272616e63680000000000600082015250565b6000612cff601b83611b35565b9150612d0a82612cc9565b602082019050919050565b60006020820190508181036000830152612d2e81612cf2565b9050919050565b600080fd5b600067ffffffffffffffff821115612d5557612d54611ffd565b5b602082029050919050565b600080fd5b600080fd5b600067ffffffffffffffff821115612d8557612d84611ffd565b5b612d8e826119af565b9050602081019050919050565b82818337600083830152505050565b6000612dbd612db884612d6a565b612ac7565b905082815260208101848484011115612dd957612dd8612d65565b5b612de4848285612d9b565b509392505050565b600082601f830112612e0157612e00612d35565b5b8135612e11848260208601612daa565b91505092915050565b6000612e2d612e2884612d3a565b612ac7565b90508060208402830185811115612e4757612e46612d60565b5b835b81811015612e8e57803567ffffffffffffffff811115612e6c57612e6b612d35565b5b808601612e798982612dec565b85526020850194505050602081019050612e49565b5050509392505050565b600082601f830112612ead57612eac612d35565b5b610200612ebb848285612e1a565b91505092915050565b600060408284031215612eda57612ed9612a91565b5b612ee46040612ac7565b9050600082013567ffffffffffffffff811115612f0457612f03612ae2565b5b612f1084828501612e98565b600083015250602082013567ffffffffffffffff811115612f3457612f33612ae2565b5b612f4084828501612dec565b60208301525092915050565b6000612f583683612ec4565b9050919050565b600081519050919050565b600082825260208201905092915050565b6000819050602082019050919050565b600082825260208201905092915050565b6000612fa782611960565b612fb18185612f8b565b9350612fc181856020860161197c565b612fca816119af565b840191505092915050565b6000612fe18383612f9c565b905092915050565b6000602082019050919050565b600061300182612f5f565b61300b8185612f6a565b93508360208202850161301d85612f7b565b8060005b85811015613059578484038952815161303a8582612fd5565b945061304583612fe9565b925060208a01995050600181019050613021565b50829750879550505050505092915050565b600060608201905081810360008301526130858186612ff6565b9050818103602083015261309981856119c0565b905081810360408301526130ad81846119c0565b9050949350505050565b600081905092915050565b60006130cd82611960565b6130d781856130b7565b93506130e781856020860161197c565b80840191505092915050565b60006130ff82846130c2565b915081905092915050565b60008115159050919050565b61311f8161310a565b811461312a57600080fd5b50565b60008151905061313c81613116565b92915050565b60006020828403121561315857613157611a25565b5b60006131668482850161312d565b91505092915050565b7f2176657269667900000000000000000000000000000000000000000000000000600082015250565b60006131a5600783611b35565b91506131b08261316f565b602082019050919050565b600060208201905081810360008301526131d481613198565b9050919050565b60008160011c9050919050565b6000808291508390505b60018511156132325780860481111561320e5761320d611dcb565b5b600185161561321d5780820291505b808102905061322b856131db565b94506131f2565b94509492505050565b60008261324b5760019050613307565b816132595760009050613307565b816001811461326f5760028114613279576132a8565b6001915050613307565b60ff84111561328b5761328a611dcb565b5b8360020a9150848211156132a2576132a1611dcb565b5b50613307565b5060208310610133831016604e8410600b84101617156132dd5782820a9050838111156132d8576132d7611dcb565b5b613307565b6132ea84848460016131e8565b9250905081840481111561330157613300611dcb565b5b81810290505b9392505050565b600061331982612038565b915061332483612038565b92506133517fffffffffffffffffffffffffffffffffffffffffffffffffffffffffffffffff848461323b565b905092915050565b600061336482612038565b915061336f83612038565b92508261337f5761337e6129a0565b5b828204905092915050565b600061339582612038565b91506133a083612038565b9250826133b0576133af6129a0565b5b828206905092915050565b60006133c682612038565b91507fffffffffffffffffffffffffffffffffffffffffffffffffffffffffffffffff8214156133f9576133f8611dcb565b5b600182019050919050565b7f216b657900000000000000000000000000000000000000000000000000000000600082015250565b600061343a600483611b35565b915061344582613404565b602082019050919050565b600060208201905081810360008301526134698161342d565b9050919050565b60007fffffffffffffffffffffffffffffffff0000000000000000000000000000000082169050919050565b6000819050919050565b6134b76134b282613470565b61349c565b82525050565b60006134c982856130c2565b91506134d582846134a6565b6010820191508190509392505050565b7f216167675f6b6579000000000000000000000000000000000000000000000000600082015250565b600061351b600883611b35565b9150613526826134e5565b602082019050919050565b6000602082019050818103600083015261354a8161350e565b9050919050565b600061355c82612038565b915061356783612038565b9250827fffffffffffffffffffffffffffffffffffffffffffffffffffffffffffffffff0382111561359c5761359b611dcb565b5b828201905092915050565b60006135b282612038565b91506135bd83612038565b9250828210156135d0576135cf611dcb565b5b828203905092915050565b60006135e682612038565b915060008214156135fa576135f9611dcb565b5b600182039050919050565b60006136118285612bbf565b6020820191506136218284612bbf565b6020820191508190509392505050565b600081519050613640816127e4565b92915050565b60006020828403121561365c5761365b611a25565b5b600061366a84828501613631565b9150509291505056fea2646970667358221220cae58a3060164dc3ffca7907fd7da13d239d33384270eca3d693e9551b4bf96564736f6c63430008090033",
          "opcodes": "PUSH1 0xC0 PUSH1 0x40 MSTORE PUSH1 0x40 MLOAD DUP1 PUSH2 0x280 ADD PUSH1 0x40 MSTORE DUP1 PUSH3 0xF4243 PUSH3 0xFFFFFF AND DUP2 MSTORE PUSH1 0x20 ADD PUSH3 0xF4261 PUSH3 0xFFFFFF AND DUP2 MSTORE PUSH1 0x20 ADD PUSH3 0xF4265 PUSH3 0xFFFFFF AND DUP2 MSTORE PUSH1 0x20 ADD PUSH3 0xF4267 PUSH3 0xFFFFFF AND DUP2 MSTORE PUSH1 0x20 ADD PUSH3 0xF4291 PUSH3 0xFFFFFF AND DUP2 MSTORE PUSH1 0x20 ADD PUSH3 0xF42A3 PUSH3 0xFFFFFF AND DUP2 MSTORE PUSH1 0x20 ADD PUSH3 0xF42B5 PUSH3 0xFFFFFF AND DUP2 MSTORE PUSH1 0x20 ADD PUSH3 0xF42B9 PUSH3 0xFFFFFF AND DUP2 MSTORE PUSH1 0x20 ADD PUSH3 0xF42C5 PUSH3 0xFFFFFF AND DUP2 MSTORE PUSH1 0x20 ADD PUSH3 0xF42D7 PUSH3 0xFFFFFF AND DUP2 MSTORE PUSH1 0x20 ADD PUSH3 0xF42DF PUSH3 0xFFFFFF AND DUP2 MSTORE PUSH1 0x20 ADD PUSH3 0xF42EB PUSH3 0xFFFFFF AND DUP2 MSTORE PUSH1 0x20 ADD PUSH3 0xF42F7 PUSH3 0xFFFFFF AND DUP2 MSTORE PUSH1 0x20 ADD PUSH3 0xF42FB PUSH3 0xFFFFFF AND DUP2 MSTORE PUSH1 0x20 ADD PUSH3 0xF4301 PUSH3 0xFFFFFF AND DUP2 MSTORE PUSH1 0x20 ADD PUSH3 0xF4307 PUSH3 0xFFFFFF AND DUP2 MSTORE PUSH1 0x20 ADD PUSH3 0xF4313 PUSH3 0xFFFFFF AND DUP2 MSTORE PUSH1 0x20 ADD PUSH3 0xF4315 PUSH3 0xFFFFFF AND DUP2 MSTORE PUSH1 0x20 ADD PUSH3 0xF4327 PUSH3 0xFFFFFF AND DUP2 MSTORE PUSH1 0x20 ADD PUSH3 0xF4339 PUSH3 0xFFFFFF AND DUP2 MSTORE POP PUSH1 0x0 SWAP1 PUSH1 0x14 PUSH3 0x138 SWAP3 SWAP2 SWAP1 PUSH3 0x2C8 JUMP JUMPDEST POP CALLVALUE DUP1 ISZERO PUSH3 0x146 JUMPI PUSH1 0x0 DUP1 REVERT JUMPDEST POP PUSH1 0x40 MLOAD PUSH3 0x4052 CODESIZE SUB DUP1 PUSH3 0x4052 DUP4 CODECOPY DUP2 DUP2 ADD PUSH1 0x40 MSTORE DUP2 ADD SWAP1 PUSH3 0x16C SWAP2 SWAP1 PUSH3 0x7FA JUMP JUMPDEST DUP9 PUSH20 0xFFFFFFFFFFFFFFFFFFFFFFFFFFFFFFFFFFFFFFFF AND PUSH1 0x80 DUP2 PUSH20 0xFFFFFFFFFFFFFFFFFFFFFFFFFFFFFFFFFFFFFFFF AND DUP2 MSTORE POP POP PUSH1 0x40 MLOAD DUP1 PUSH1 0xA0 ADD PUSH1 0x40 MSTORE DUP1 DUP10 PUSH8 0xFFFFFFFFFFFFFFFF AND DUP2 MSTORE PUSH1 0x20 ADD DUP9 PUSH8 0xFFFFFFFFFFFFFFFF AND DUP2 MSTORE PUSH1 0x20 ADD DUP8 DUP2 MSTORE PUSH1 0x20 ADD DUP7 DUP2 MSTORE PUSH1 0x20 ADD DUP6 DUP2 MSTORE POP PUSH1 0x14 PUSH1 0x0 DUP3 ADD MLOAD DUP2 PUSH1 0x0 ADD PUSH1 0x0 PUSH2 0x100 EXP DUP2 SLOAD DUP2 PUSH8 0xFFFFFFFFFFFFFFFF MUL NOT AND SWAP1 DUP4 PUSH8 0xFFFFFFFFFFFFFFFF AND MUL OR SWAP1 SSTORE POP PUSH1 0x20 DUP3 ADD MLOAD DUP2 PUSH1 0x0 ADD PUSH1 0x8 PUSH2 0x100 EXP DUP2 SLOAD DUP2 PUSH8 0xFFFFFFFFFFFFFFFF MUL NOT AND SWAP1 DUP4 PUSH8 0xFFFFFFFFFFFFFFFF AND MUL OR SWAP1 SSTORE POP PUSH1 0x40 DUP3 ADD MLOAD DUP2 PUSH1 0x1 ADD SSTORE PUSH1 0x60 DUP3 ADD MLOAD DUP2 PUSH1 0x2 ADD SSTORE PUSH1 0x80 DUP3 ADD MLOAD DUP2 PUSH1 0x3 ADD SSTORE SWAP1 POP POP PUSH1 0x40 MLOAD DUP1 PUSH1 0x40 ADD PUSH1 0x40 MSTORE DUP1 DUP5 DUP2 MSTORE PUSH1 0x20 ADD DUP4 DUP2 MSTORE POP PUSH1 0x19 PUSH1 0x0 DUP3 ADD MLOAD DUP2 PUSH1 0x0 ADD SWAP1 PUSH2 0x200 PUSH3 0x28D SWAP3 SWAP2 SWAP1 PUSH3 0x314 JUMP JUMPDEST POP PUSH1 0x20 DUP3 ADD MLOAD DUP2 PUSH2 0x200 ADD SWAP1 DUP1 MLOAD SWAP1 PUSH1 0x20 ADD SWAP1 PUSH3 0x2AD SWAP3 SWAP2 SWAP1 PUSH3 0x36F JUMP JUMPDEST POP SWAP1 POP POP DUP1 PUSH1 0xA0 DUP2 DUP2 MSTORE POP POP POP POP POP POP POP POP POP POP POP PUSH3 0x97C JUMP JUMPDEST DUP3 PUSH1 0x14 DUP2 ADD SWAP3 DUP3 ISZERO PUSH3 0x301 JUMPI SWAP2 PUSH1 0x20 MUL DUP3 ADD JUMPDEST DUP3 DUP2 GT ISZERO PUSH3 0x300 JUMPI DUP3 MLOAD DUP3 SWAP1 PUSH3 0xFFFFFF AND SWAP1 SSTORE SWAP2 PUSH1 0x20 ADD SWAP2 SWAP1 PUSH1 0x1 ADD SWAP1 PUSH3 0x2DC JUMP JUMPDEST JUMPDEST POP SWAP1 POP PUSH3 0x310 SWAP2 SWAP1 PUSH3 0x400 JUMP JUMPDEST POP SWAP1 JUMP JUMPDEST DUP3 PUSH2 0x200 DUP2 ADD SWAP3 DUP3 ISZERO PUSH3 0x35C JUMPI SWAP2 PUSH1 0x20 MUL DUP3 ADD JUMPDEST DUP3 DUP2 GT ISZERO PUSH3 0x35B JUMPI DUP3 MLOAD DUP3 SWAP1 DUP1 MLOAD SWAP1 PUSH1 0x20 ADD SWAP1 PUSH3 0x34A SWAP3 SWAP2 SWAP1 PUSH3 0x36F JUMP JUMPDEST POP SWAP2 PUSH1 0x20 ADD SWAP2 SWAP1 PUSH1 0x1 ADD SWAP1 PUSH3 0x329 JUMP JUMPDEST JUMPDEST POP SWAP1 POP PUSH3 0x36B SWAP2 SWAP1 PUSH3 0x41F JUMP JUMPDEST POP SWAP1 JUMP JUMPDEST DUP3 DUP1 SLOAD PUSH3 0x37D SWAP1 PUSH3 0x946 JUMP JUMPDEST SWAP1 PUSH1 0x0 MSTORE PUSH1 0x20 PUSH1 0x0 KECCAK256 SWAP1 PUSH1 0x1F ADD PUSH1 0x20 SWAP1 DIV DUP2 ADD SWAP3 DUP3 PUSH3 0x3A1 JUMPI PUSH1 0x0 DUP6 SSTORE PUSH3 0x3ED JUMP JUMPDEST DUP3 PUSH1 0x1F LT PUSH3 0x3BC JUMPI DUP1 MLOAD PUSH1 0xFF NOT AND DUP4 DUP1 ADD OR DUP6 SSTORE PUSH3 0x3ED JUMP JUMPDEST DUP3 DUP1 ADD PUSH1 0x1 ADD DUP6 SSTORE DUP3 ISZERO PUSH3 0x3ED JUMPI SWAP2 DUP3 ADD JUMPDEST DUP3 DUP2 GT ISZERO PUSH3 0x3EC JUMPI DUP3 MLOAD DUP3 SSTORE SWAP2 PUSH1 0x20 ADD SWAP2 SWAP1 PUSH1 0x1 ADD SWAP1 PUSH3 0x3CF JUMP JUMPDEST JUMPDEST POP SWAP1 POP PUSH3 0x3FC SWAP2 SWAP1 PUSH3 0x400 JUMP JUMPDEST POP SWAP1 JUMP JUMPDEST JUMPDEST DUP1 DUP3 GT ISZERO PUSH3 0x41B JUMPI PUSH1 0x0 DUP2 PUSH1 0x0 SWAP1 SSTORE POP PUSH1 0x1 ADD PUSH3 0x401 JUMP JUMPDEST POP SWAP1 JUMP JUMPDEST JUMPDEST DUP1 DUP3 GT ISZERO PUSH3 0x443 JUMPI PUSH1 0x0 DUP2 DUP2 PUSH3 0x439 SWAP2 SWAP1 PUSH3 0x447 JUMP JUMPDEST POP PUSH1 0x1 ADD PUSH3 0x420 JUMP JUMPDEST POP SWAP1 JUMP JUMPDEST POP DUP1 SLOAD PUSH3 0x455 SWAP1 PUSH3 0x946 JUMP JUMPDEST PUSH1 0x0 DUP3 SSTORE DUP1 PUSH1 0x1F LT PUSH3 0x469 JUMPI POP PUSH3 0x48A JUMP JUMPDEST PUSH1 0x1F ADD PUSH1 0x20 SWAP1 DIV SWAP1 PUSH1 0x0 MSTORE PUSH1 0x20 PUSH1 0x0 KECCAK256 SWAP1 DUP2 ADD SWAP1 PUSH3 0x489 SWAP2 SWAP1 PUSH3 0x400 JUMP JUMPDEST JUMPDEST POP JUMP JUMPDEST PUSH1 0x0 PUSH1 0x40 MLOAD SWAP1 POP SWAP1 JUMP JUMPDEST PUSH1 0x0 DUP1 REVERT JUMPDEST PUSH1 0x0 DUP1 REVERT JUMPDEST PUSH1 0x0 PUSH20 0xFFFFFFFFFFFFFFFFFFFFFFFFFFFFFFFFFFFFFFFF DUP3 AND SWAP1 POP SWAP2 SWAP1 POP JUMP JUMPDEST PUSH1 0x0 PUSH3 0x4CE DUP3 PUSH3 0x4A1 JUMP JUMPDEST SWAP1 POP SWAP2 SWAP1 POP JUMP JUMPDEST PUSH3 0x4E0 DUP2 PUSH3 0x4C1 JUMP JUMPDEST DUP2 EQ PUSH3 0x4EC JUMPI PUSH1 0x0 DUP1 REVERT JUMPDEST POP JUMP JUMPDEST PUSH1 0x0 DUP2 MLOAD SWAP1 POP PUSH3 0x500 DUP2 PUSH3 0x4D5 JUMP JUMPDEST SWAP3 SWAP2 POP POP JUMP JUMPDEST PUSH1 0x0 PUSH8 0xFFFFFFFFFFFFFFFF DUP3 AND SWAP1 POP SWAP2 SWAP1 POP JUMP JUMPDEST PUSH3 0x525 DUP2 PUSH3 0x506 JUMP JUMPDEST DUP2 EQ PUSH3 0x531 JUMPI PUSH1 0x0 DUP1 REVERT JUMPDEST POP JUMP JUMPDEST PUSH1 0x0 DUP2 MLOAD SWAP1 POP PUSH3 0x545 DUP2 PUSH3 0x51A JUMP JUMPDEST SWAP3 SWAP2 POP POP JUMP JUMPDEST PUSH1 0x0 DUP2 SWAP1 POP SWAP2 SWAP1 POP JUMP JUMPDEST PUSH3 0x560 DUP2 PUSH3 0x54B JUMP JUMPDEST DUP2 EQ PUSH3 0x56C JUMPI PUSH1 0x0 DUP1 REVERT JUMPDEST POP JUMP JUMPDEST PUSH1 0x0 DUP2 MLOAD SWAP1 POP PUSH3 0x580 DUP2 PUSH3 0x555 JUMP JUMPDEST SWAP3 SWAP2 POP POP JUMP JUMPDEST PUSH1 0x0 DUP1 REVERT JUMPDEST PUSH1 0x0 PUSH1 0x1F NOT PUSH1 0x1F DUP4 ADD AND SWAP1 POP SWAP2 SWAP1 POP JUMP JUMPDEST PUSH32 0x4E487B7100000000000000000000000000000000000000000000000000000000 PUSH1 0x0 MSTORE PUSH1 0x41 PUSH1 0x4 MSTORE PUSH1 0x24 PUSH1 0x0 REVERT JUMPDEST PUSH3 0x5D6 DUP3 PUSH3 0x58B JUMP JUMPDEST DUP2 ADD DUP2 DUP2 LT PUSH8 0xFFFFFFFFFFFFFFFF DUP3 GT OR ISZERO PUSH3 0x5F8 JUMPI PUSH3 0x5F7 PUSH3 0x59C JUMP JUMPDEST JUMPDEST DUP1 PUSH1 0x40 MSTORE POP POP POP JUMP JUMPDEST PUSH1 0x0 PUSH3 0x60D PUSH3 0x48D JUMP JUMPDEST SWAP1 POP PUSH3 0x61B DUP3 DUP3 PUSH3 0x5CB JUMP JUMPDEST SWAP2 SWAP1 POP JUMP JUMPDEST PUSH1 0x0 PUSH8 0xFFFFFFFFFFFFFFFF DUP3 GT ISZERO PUSH3 0x63E JUMPI PUSH3 0x63D PUSH3 0x59C JUMP JUMPDEST JUMPDEST PUSH1 0x20 DUP3 MUL SWAP1 POP SWAP2 SWAP1 POP JUMP JUMPDEST PUSH1 0x0 DUP1 REVERT JUMPDEST PUSH1 0x0 DUP1 REVERT JUMPDEST PUSH1 0x0 PUSH8 0xFFFFFFFFFFFFFFFF DUP3 GT ISZERO PUSH3 0x671 JUMPI PUSH3 0x670 PUSH3 0x59C JUMP JUMPDEST JUMPDEST PUSH3 0x67C DUP3 PUSH3 0x58B JUMP JUMPDEST SWAP1 POP PUSH1 0x20 DUP2 ADD SWAP1 POP SWAP2 SWAP1 POP JUMP JUMPDEST PUSH1 0x0 JUMPDEST DUP4 DUP2 LT ISZERO PUSH3 0x6A9 JUMPI DUP1 DUP3 ADD MLOAD DUP2 DUP5 ADD MSTORE PUSH1 0x20 DUP2 ADD SWAP1 POP PUSH3 0x68C JUMP JUMPDEST DUP4 DUP2 GT ISZERO PUSH3 0x6B9 JUMPI PUSH1 0x0 DUP5 DUP5 ADD MSTORE JUMPDEST POP POP POP POP JUMP JUMPDEST PUSH1 0x0 PUSH3 0x6D6 PUSH3 0x6D0 DUP5 PUSH3 0x653 JUMP JUMPDEST PUSH3 0x601 JUMP JUMPDEST SWAP1 POP DUP3 DUP2 MSTORE PUSH1 0x20 DUP2 ADD DUP5 DUP5 DUP5 ADD GT ISZERO PUSH3 0x6F5 JUMPI PUSH3 0x6F4 PUSH3 0x64E JUMP JUMPDEST JUMPDEST PUSH3 0x702 DUP5 DUP3 DUP6 PUSH3 0x689 JUMP JUMPDEST POP SWAP4 SWAP3 POP POP POP JUMP JUMPDEST PUSH1 0x0 DUP3 PUSH1 0x1F DUP4 ADD SLT PUSH3 0x722 JUMPI PUSH3 0x721 PUSH3 0x586 JUMP JUMPDEST JUMPDEST DUP2 MLOAD PUSH3 0x734 DUP5 DUP3 PUSH1 0x20 DUP7 ADD PUSH3 0x6BF JUMP JUMPDEST SWAP2 POP POP SWAP3 SWAP2 POP POP JUMP JUMPDEST PUSH1 0x0 PUSH3 0x754 PUSH3 0x74E DUP5 PUSH3 0x620 JUMP JUMPDEST PUSH3 0x601 JUMP JUMPDEST SWAP1 POP DUP1 PUSH1 0x20 DUP5 MUL DUP4 ADD DUP6 DUP2 GT ISZERO PUSH3 0x771 JUMPI PUSH3 0x770 PUSH3 0x649 JUMP JUMPDEST JUMPDEST DUP4 JUMPDEST DUP2 DUP2 LT ISZERO PUSH3 0x7BF JUMPI DUP1 MLOAD PUSH8 0xFFFFFFFFFFFFFFFF DUP2 GT ISZERO PUSH3 0x79A JUMPI PUSH3 0x799 PUSH3 0x586 JUMP JUMPDEST JUMPDEST DUP1 DUP7 ADD PUSH3 0x7A9 DUP10 DUP3 PUSH3 0x70A JUMP JUMPDEST DUP6 MSTORE PUSH1 0x20 DUP6 ADD SWAP5 POP POP POP PUSH1 0x20 DUP2 ADD SWAP1 POP PUSH3 0x773 JUMP JUMPDEST POP POP POP SWAP4 SWAP3 POP POP POP JUMP JUMPDEST PUSH1 0x0 DUP3 PUSH1 0x1F DUP4 ADD SLT PUSH3 0x7E1 JUMPI PUSH3 0x7E0 PUSH3 0x586 JUMP JUMPDEST JUMPDEST PUSH2 0x200 PUSH3 0x7F1 DUP5 DUP3 DUP6 PUSH3 0x73D JUMP JUMPDEST SWAP2 POP POP SWAP3 SWAP2 POP POP JUMP JUMPDEST PUSH1 0x0 DUP1 PUSH1 0x0 DUP1 PUSH1 0x0 DUP1 PUSH1 0x0 DUP1 PUSH1 0x0 PUSH2 0x120 DUP11 DUP13 SUB SLT ISZERO PUSH3 0x820 JUMPI PUSH3 0x81F PUSH3 0x497 JUMP JUMPDEST JUMPDEST PUSH1 0x0 PUSH3 0x830 DUP13 DUP3 DUP14 ADD PUSH3 0x4EF JUMP JUMPDEST SWAP10 POP POP PUSH1 0x20 PUSH3 0x843 DUP13 DUP3 DUP14 ADD PUSH3 0x534 JUMP JUMPDEST SWAP9 POP POP PUSH1 0x40 PUSH3 0x856 DUP13 DUP3 DUP14 ADD PUSH3 0x534 JUMP JUMPDEST SWAP8 POP POP PUSH1 0x60 PUSH3 0x869 DUP13 DUP3 DUP14 ADD PUSH3 0x56F JUMP JUMPDEST SWAP7 POP POP PUSH1 0x80 PUSH3 0x87C DUP13 DUP3 DUP14 ADD PUSH3 0x56F JUMP JUMPDEST SWAP6 POP POP PUSH1 0xA0 PUSH3 0x88F DUP13 DUP3 DUP14 ADD PUSH3 0x56F JUMP JUMPDEST SWAP5 POP POP PUSH1 0xC0 DUP11 ADD MLOAD PUSH8 0xFFFFFFFFFFFFFFFF DUP2 GT ISZERO PUSH3 0x8B3 JUMPI PUSH3 0x8B2 PUSH3 0x49C JUMP JUMPDEST JUMPDEST PUSH3 0x8C1 DUP13 DUP3 DUP14 ADD PUSH3 0x7C9 JUMP JUMPDEST SWAP4 POP POP PUSH1 0xE0 DUP11 ADD MLOAD PUSH8 0xFFFFFFFFFFFFFFFF DUP2 GT ISZERO PUSH3 0x8E5 JUMPI PUSH3 0x8E4 PUSH3 0x49C JUMP JUMPDEST JUMPDEST PUSH3 0x8F3 DUP13 DUP3 DUP14 ADD PUSH3 0x70A JUMP JUMPDEST SWAP3 POP POP PUSH2 0x100 PUSH3 0x907 DUP13 DUP3 DUP14 ADD PUSH3 0x56F JUMP JUMPDEST SWAP2 POP POP SWAP3 SWAP6 SWAP9 POP SWAP3 SWAP6 SWAP9 POP SWAP3 SWAP6 SWAP9 JUMP JUMPDEST PUSH32 0x4E487B7100000000000000000000000000000000000000000000000000000000 PUSH1 0x0 MSTORE PUSH1 0x22 PUSH1 0x4 MSTORE PUSH1 0x24 PUSH1 0x0 REVERT JUMPDEST PUSH1 0x0 PUSH1 0x2 DUP3 DIV SWAP1 POP PUSH1 0x1 DUP3 AND DUP1 PUSH3 0x95F JUMPI PUSH1 0x7F DUP3 AND SWAP2 POP JUMPDEST PUSH1 0x20 DUP3 LT DUP2 EQ ISZERO PUSH3 0x976 JUMPI PUSH3 0x975 PUSH3 0x917 JUMP JUMPDEST JUMPDEST POP SWAP2 SWAP1 POP JUMP JUMPDEST PUSH1 0x80 MLOAD PUSH1 0xA0 MLOAD PUSH2 0x36A9 PUSH3 0x9A9 PUSH1 0x0 CODECOPY PUSH1 0x0 DUP2 DUP2 PUSH2 0x20D ADD MSTORE PUSH2 0x7AD ADD MSTORE PUSH1 0x0 PUSH2 0xC50 ADD MSTORE PUSH2 0x36A9 PUSH1 0x0 RETURN INVALID PUSH1 0x80 PUSH1 0x40 MSTORE CALLVALUE DUP1 ISZERO PUSH2 0x10 JUMPI PUSH1 0x0 DUP1 REVERT JUMPDEST POP PUSH1 0x4 CALLDATASIZE LT PUSH2 0x62 JUMPI PUSH1 0x0 CALLDATALOAD PUSH1 0xE0 SHR DUP1 PUSH4 0x140FCADF EQ PUSH2 0x67 JUMPI DUP1 PUSH4 0x45FF7DD4 EQ PUSH2 0x85 JUMPI DUP1 PUSH4 0xA276C210 EQ PUSH2 0xA7 JUMPI DUP1 PUSH4 0xA8769ACB EQ PUSH2 0xC5 JUMPI DUP1 PUSH4 0xCC63F3BE EQ PUSH2 0xE3 JUMPI DUP1 PUSH4 0xD26D9A00 EQ PUSH2 0xFF JUMPI JUMPDEST PUSH1 0x0 DUP1 REVERT JUMPDEST PUSH2 0x6F PUSH2 0x11D JUMP JUMPDEST PUSH1 0x40 MLOAD PUSH2 0x7C SWAP2 SWAP1 PUSH2 0x18CF JUMP JUMPDEST PUSH1 0x40 MLOAD DUP1 SWAP2 SUB SWAP1 RETURN JUMPDEST PUSH2 0x8D PUSH2 0x12A JUMP JUMPDEST PUSH1 0x40 MLOAD PUSH2 0x9E SWAP6 SWAP5 SWAP4 SWAP3 SWAP2 SWAP1 PUSH2 0x190D JUMP JUMPDEST PUSH1 0x40 MLOAD DUP1 SWAP2 SUB SWAP1 RETURN JUMPDEST PUSH2 0xAF PUSH2 0x176 JUMP JUMPDEST PUSH1 0x40 MLOAD PUSH2 0xBC SWAP2 SWAP1 PUSH2 0x19F9 JUMP JUMPDEST PUSH1 0x40 MLOAD DUP1 SWAP2 SUB SWAP1 RETURN JUMPDEST PUSH2 0xCD PUSH2 0x20B JUMP JUMPDEST PUSH1 0x40 MLOAD PUSH2 0xDA SWAP2 SWAP1 PUSH2 0x18CF JUMP JUMPDEST PUSH1 0x40 MLOAD DUP1 SWAP2 SUB SWAP1 RETURN JUMPDEST PUSH2 0xFD PUSH1 0x4 DUP1 CALLDATASIZE SUB DUP2 ADD SWAP1 PUSH2 0xF8 SWAP2 SWAP1 PUSH2 0x1A54 JUMP JUMPDEST PUSH2 0x22F JUMP JUMPDEST STOP JUMPDEST PUSH2 0x107 PUSH2 0x4D0 JUMP JUMPDEST PUSH1 0x40 MLOAD PUSH2 0x114 SWAP2 SWAP1 PUSH2 0x18CF JUMP JUMPDEST PUSH1 0x40 MLOAD DUP1 SWAP2 SUB SWAP1 RETURN JUMPDEST PUSH1 0x0 PUSH1 0x14 PUSH1 0x2 ADD SLOAD SWAP1 POP SWAP1 JUMP JUMPDEST PUSH1 0x14 DUP1 PUSH1 0x0 ADD PUSH1 0x0 SWAP1 SLOAD SWAP1 PUSH2 0x100 EXP SWAP1 DIV PUSH8 0xFFFFFFFFFFFFFFFF AND SWAP1 DUP1 PUSH1 0x0 ADD PUSH1 0x8 SWAP1 SLOAD SWAP1 PUSH2 0x100 EXP SWAP1 DIV PUSH8 0xFFFFFFFFFFFFFFFF AND SWAP1 DUP1 PUSH1 0x1 ADD SLOAD SWAP1 DUP1 PUSH1 0x2 ADD SLOAD SWAP1 DUP1 PUSH1 0x3 ADD SLOAD SWAP1 POP DUP6 JUMP JUMPDEST PUSH1 0x19 DUP1 PUSH2 0x200 ADD DUP1 SLOAD PUSH2 0x188 SWAP1 PUSH2 0x1ACC JUMP JUMPDEST DUP1 PUSH1 0x1F ADD PUSH1 0x20 DUP1 SWAP2 DIV MUL PUSH1 0x20 ADD PUSH1 0x40 MLOAD SWAP1 DUP2 ADD PUSH1 0x40 MSTORE DUP1 SWAP3 SWAP2 SWAP1 DUP2 DUP2 MSTORE PUSH1 0x20 ADD DUP3 DUP1 SLOAD PUSH2 0x1B4 SWAP1 PUSH2 0x1ACC JUMP JUMPDEST DUP1 ISZERO PUSH2 0x201 JUMPI DUP1 PUSH1 0x1F LT PUSH2 0x1D6 JUMPI PUSH2 0x100 DUP1 DUP4 SLOAD DIV MUL DUP4 MSTORE SWAP2 PUSH1 0x20 ADD SWAP2 PUSH2 0x201 JUMP JUMPDEST DUP3 ADD SWAP2 SWAP1 PUSH1 0x0 MSTORE PUSH1 0x20 PUSH1 0x0 KECCAK256 SWAP1 JUMPDEST DUP2 SLOAD DUP2 MSTORE SWAP1 PUSH1 0x1 ADD SWAP1 PUSH1 0x20 ADD DUP1 DUP4 GT PUSH2 0x1E4 JUMPI DUP3 SWAP1 SUB PUSH1 0x1F AND DUP3 ADD SWAP2 JUMPDEST POP POP POP POP POP SWAP1 POP DUP2 JUMP JUMPDEST PUSH32 0x0 DUP2 JUMP JUMPDEST PUSH2 0x24B DUP2 DUP1 PUSH2 0x1A0 ADD SWAP1 PUSH2 0x243 SWAP2 SWAP1 PUSH2 0x1B0D JUMP JUMPDEST PUSH1 0x0 ADD PUSH2 0x4D6 JUMP JUMPDEST PUSH2 0x28A JUMPI PUSH1 0x40 MLOAD PUSH32 0x8C379A000000000000000000000000000000000000000000000000000000000 DUP2 MSTORE PUSH1 0x4 ADD PUSH2 0x281 SWAP1 PUSH2 0x1B92 JUMP JUMPDEST PUSH1 0x40 MLOAD DUP1 SWAP2 SUB SWAP1 REVERT JUMPDEST PUSH2 0x2BD DUP2 DUP1 PUSH2 0x1A0 ADD SWAP1 PUSH2 0x29E SWAP2 SWAP1 PUSH2 0x1B0D JUMP JUMPDEST PUSH1 0x19 DUP4 PUSH2 0x1C0 ADD PUSH1 0x20 DUP2 ADD SWAP1 PUSH2 0x2B4 SWAP2 SWAP1 PUSH2 0x1C0A JUMP JUMPDEST DUP5 PUSH1 0x0 ADD PUSH2 0x546 JUMP JUMPDEST PUSH2 0x2FC JUMPI PUSH1 0x40 MLOAD PUSH32 0x8C379A000000000000000000000000000000000000000000000000000000000 DUP2 MSTORE PUSH1 0x4 ADD PUSH2 0x2F3 SWAP1 PUSH2 0x1C83 JUMP JUMPDEST PUSH1 0x40 MLOAD DUP1 SWAP2 SUB SWAP1 REVERT JUMPDEST PUSH2 0x321 DUP2 PUSH1 0xE0 ADD DUP3 DUP1 PUSH2 0x180 ADD SWAP1 PUSH2 0x314 SWAP2 SWAP1 PUSH2 0x1CA3 JUMP JUMPDEST DUP5 PUSH1 0x0 ADD PUSH1 0x60 ADD CALLDATALOAD PUSH2 0x8D6 JUMP JUMPDEST PUSH2 0x360 JUMPI PUSH1 0x40 MLOAD PUSH32 0x8C379A000000000000000000000000000000000000000000000000000000000 DUP2 MSTORE PUSH1 0x4 ADD PUSH2 0x357 SWAP1 PUSH2 0x1D52 JUMP JUMPDEST PUSH1 0x40 MLOAD DUP1 SWAP2 SUB SWAP1 REVERT JUMPDEST PUSH1 0x0 PUSH2 0x384 PUSH1 0x14 PUSH1 0x0 ADD PUSH1 0x0 SWAP1 SLOAD SWAP1 PUSH2 0x100 EXP SWAP1 DIV PUSH8 0xFFFFFFFFFFFFFFFF AND PUSH2 0x9A0 JUMP JUMPDEST SWAP1 POP PUSH1 0x0 PUSH2 0x3A4 DUP4 PUSH2 0x1E0 ADD PUSH1 0x20 DUP2 ADD SWAP1 PUSH2 0x39F SWAP2 SWAP1 PUSH2 0x1D9E JUMP JUMPDEST PUSH2 0x9A0 JUMP JUMPDEST SWAP1 POP DUP2 PUSH8 0xFFFFFFFFFFFFFFFF AND DUP2 PUSH8 0xFFFFFFFFFFFFFFFF AND EQ DUP1 PUSH2 0x3E7 JUMPI POP PUSH1 0x1 DUP3 PUSH2 0x3D0 SWAP2 SWAP1 PUSH2 0x1DFA JUMP JUMPDEST PUSH8 0xFFFFFFFFFFFFFFFF AND DUP2 PUSH8 0xFFFFFFFFFFFFFFFF AND EQ JUMPDEST PUSH2 0x426 JUMPI PUSH1 0x40 MLOAD PUSH32 0x8C379A000000000000000000000000000000000000000000000000000000000 DUP2 MSTORE PUSH1 0x4 ADD PUSH2 0x41D SWAP1 PUSH2 0x1E84 JUMP JUMPDEST PUSH1 0x40 MLOAD DUP1 SWAP2 SUB SWAP1 REVERT JUMPDEST PUSH2 0x456 DUP4 DUP1 PUSH1 0xA0 ADD SWAP1 PUSH2 0x439 SWAP2 SWAP1 PUSH2 0x1EA4 JUMP JUMPDEST DUP5 DUP1 PUSH1 0xC0 ADD SWAP1 PUSH2 0x449 SWAP2 SWAP1 PUSH2 0x1CA3 JUMP JUMPDEST DUP7 PUSH1 0x0 ADD PUSH1 0x60 ADD CALLDATALOAD PUSH2 0x9C3 JUMP JUMPDEST PUSH2 0x495 JUMPI PUSH1 0x40 MLOAD PUSH32 0x8C379A000000000000000000000000000000000000000000000000000000000 DUP2 MSTORE PUSH1 0x4 ADD PUSH2 0x48C SWAP1 PUSH2 0x1F18 JUMP JUMPDEST PUSH1 0x40 MLOAD DUP1 SWAP2 SUB SWAP1 REVERT JUMPDEST DUP3 DUP1 PUSH1 0xA0 ADD SWAP1 PUSH2 0x4A5 SWAP2 SWAP1 PUSH2 0x1EA4 JUMP JUMPDEST PUSH1 0x19 DUP2 DUP2 PUSH2 0x4B3 SWAP2 SWAP1 PUSH2 0x26D8 JUMP JUMPDEST SWAP1 POP POP DUP3 PUSH1 0xE0 ADD PUSH1 0x14 DUP2 DUP2 PUSH2 0x4C8 SWAP2 SWAP1 PUSH2 0x2950 JUMP JUMPDEST SWAP1 POP POP POP POP POP JUMP JUMPDEST PUSH1 0x18 SLOAD DUP2 JUMP JUMPDEST PUSH1 0x0 PUSH1 0x2 PUSH2 0x200 PUSH2 0x4E7 SWAP2 SWAP1 PUSH2 0x295E JUMP JUMPDEST PUSH8 0xFFFFFFFFFFFFFFFF AND PUSH1 0x3 PUSH2 0x533 DUP5 PUSH1 0x2 DUP1 PUSH1 0x20 MUL PUSH1 0x40 MLOAD SWAP1 DUP2 ADD PUSH1 0x40 MSTORE DUP1 SWAP3 SWAP2 SWAP1 DUP3 PUSH1 0x2 PUSH1 0x20 MUL DUP1 DUP3 DUP5 CALLDATACOPY PUSH1 0x0 DUP2 DUP5 ADD MSTORE PUSH1 0x1F NOT PUSH1 0x1F DUP3 ADD AND SWAP1 POP DUP1 DUP4 ADD SWAP3 POP POP POP POP POP POP PUSH2 0xA86 JUMP JUMPDEST PUSH2 0x53D SWAP2 SWAP1 PUSH2 0x2042 JUMP JUMPDEST LT ISZERO SWAP1 POP SWAP2 SWAP1 POP JUMP JUMPDEST PUSH1 0x0 DUP1 PUSH2 0x58C DUP7 PUSH1 0x0 ADD PUSH1 0x2 DUP1 PUSH1 0x20 MUL PUSH1 0x40 MLOAD SWAP1 DUP2 ADD PUSH1 0x40 MSTORE DUP1 SWAP3 SWAP2 SWAP1 DUP3 PUSH1 0x2 PUSH1 0x20 MUL DUP1 DUP3 DUP5 CALLDATACOPY PUSH1 0x0 DUP2 DUP5 ADD MSTORE PUSH1 0x1F NOT PUSH1 0x1F DUP3 ADD AND SWAP1 POP DUP1 DUP4 ADD SWAP3 POP POP POP POP POP POP PUSH2 0xA86 JUMP JUMPDEST SWAP1 POP PUSH1 0x0 DUP2 PUSH8 0xFFFFFFFFFFFFFFFF DUP2 GT ISZERO PUSH2 0x5AA JUMPI PUSH2 0x5A9 PUSH2 0x1FFD JUMP JUMPDEST JUMPDEST PUSH1 0x40 MLOAD SWAP1 DUP1 DUP3 MSTORE DUP1 PUSH1 0x20 MUL PUSH1 0x20 ADD DUP3 ADD PUSH1 0x40 MSTORE DUP1 ISZERO PUSH2 0x5DD JUMPI DUP2 PUSH1 0x20 ADD JUMPDEST PUSH1 0x60 DUP2 MSTORE PUSH1 0x20 ADD SWAP1 PUSH1 0x1 SWAP1 SUB SWAP1 DUP2 PUSH2 0x5C8 JUMPI SWAP1 POP JUMPDEST POP SWAP1 POP PUSH1 0x0 DUP1 JUMPDEST PUSH2 0x200 PUSH8 0xFFFFFFFFFFFFFFFF AND DUP2 PUSH8 0xFFFFFFFFFFFFFFFF AND LT ISZERO PUSH2 0x79C JUMPI PUSH1 0x0 PUSH1 0x8 DUP3 PUSH8 0xFFFFFFFFFFFFFFFF AND SWAP1 SHR PUSH8 0xFFFFFFFFFFFFFFFF AND SWAP1 POP PUSH1 0x0 PUSH1 0x20 PUSH1 0x8 DUP5 PUSH2 0x630 SWAP2 SWAP1 PUSH2 0x29CF JUMP JUMPDEST PUSH2 0x63A SWAP2 SWAP1 PUSH2 0x2A00 JUMP JUMPDEST PUSH8 0xFFFFFFFFFFFFFFFF AND SWAP1 POP PUSH1 0x0 PUSH1 0x8 DUP5 PUSH2 0x655 SWAP2 SWAP1 PUSH2 0x2A00 JUMP JUMPDEST PUSH8 0xFFFFFFFFFFFFFFFF AND SWAP1 POP PUSH1 0x1 DUP1 DUP3 DUP15 PUSH1 0x0 ADD DUP7 PUSH1 0x2 DUP2 LT PUSH2 0x67B JUMPI PUSH2 0x67A PUSH2 0x2A31 JUMP JUMPDEST JUMPDEST PUSH1 0x20 MUL ADD CALLDATALOAD DUP6 PUSH1 0x20 DUP2 LT PUSH2 0x692 JUMPI PUSH2 0x691 PUSH2 0x2A31 JUMP JUMPDEST JUMPDEST BYTE PUSH1 0xF8 SHL PUSH1 0xF8 SHR PUSH1 0xFF AND SWAP1 SHR AND PUSH1 0xFF AND EQ ISZERO PUSH2 0x788 JUMPI DUP11 PUSH1 0x0 ADD DUP5 PUSH8 0xFFFFFFFFFFFFFFFF AND PUSH2 0x200 DUP2 LT PUSH2 0x6C9 JUMPI PUSH2 0x6C8 PUSH2 0x2A31 JUMP JUMPDEST JUMPDEST ADD DUP1 SLOAD PUSH2 0x6D5 SWAP1 PUSH2 0x1ACC JUMP JUMPDEST DUP1 PUSH1 0x1F ADD PUSH1 0x20 DUP1 SWAP2 DIV MUL PUSH1 0x20 ADD PUSH1 0x40 MLOAD SWAP1 DUP2 ADD PUSH1 0x40 MSTORE DUP1 SWAP3 SWAP2 SWAP1 DUP2 DUP2 MSTORE PUSH1 0x20 ADD DUP3 DUP1 SLOAD PUSH2 0x701 SWAP1 PUSH2 0x1ACC JUMP JUMPDEST DUP1 ISZERO PUSH2 0x74E JUMPI DUP1 PUSH1 0x1F LT PUSH2 0x723 JUMPI PUSH2 0x100 DUP1 DUP4 SLOAD DIV MUL DUP4 MSTORE SWAP2 PUSH1 0x20 ADD SWAP2 PUSH2 0x74E JUMP JUMPDEST DUP3 ADD SWAP2 SWAP1 PUSH1 0x0 MSTORE PUSH1 0x20 PUSH1 0x0 KECCAK256 SWAP1 JUMPDEST DUP2 SLOAD DUP2 MSTORE SWAP1 PUSH1 0x1 ADD SWAP1 PUSH1 0x20 ADD DUP1 DUP4 GT PUSH2 0x731 JUMPI DUP3 SWAP1 SUB PUSH1 0x1F AND DUP3 ADD SWAP2 JUMPDEST POP POP POP POP POP DUP7 DUP7 DUP1 PUSH2 0x75F SWAP1 PUSH2 0x2A60 JUMP JUMPDEST SWAP8 POP PUSH8 0xFFFFFFFFFFFFFFFF AND DUP2 MLOAD DUP2 LT PUSH2 0x77C JUMPI PUSH2 0x77B PUSH2 0x2A31 JUMP JUMPDEST JUMPDEST PUSH1 0x20 MUL PUSH1 0x20 ADD ADD DUP2 SWAP1 MSTORE POP JUMPDEST POP POP POP DUP1 PUSH2 0x795 SWAP1 PUSH2 0x2A60 JUMP JUMPDEST SWAP1 POP PUSH2 0x5E4 JUMP JUMPDEST POP PUSH1 0x0 PUSH2 0x7D1 PUSH4 0x7000000 PUSH1 0xE0 SHL DUP9 PUSH32 0x0 PUSH2 0xB5E JUMP JUMPDEST SWAP1 POP PUSH1 0x0 PUSH2 0x7EF DUP8 DUP1 CALLDATASIZE SUB DUP2 ADD SWAP1 PUSH2 0x7E9 SWAP2 SWAP1 PUSH2 0x2B88 JUMP JUMPDEST DUP4 PUSH2 0xB9D JUMP JUMPDEST SWAP1 POP PUSH1 0x0 DUP2 PUSH1 0x40 MLOAD PUSH1 0x20 ADD PUSH2 0x804 SWAP2 SWAP1 PUSH2 0x2BD6 JUMP JUMPDEST PUSH1 0x40 MLOAD PUSH1 0x20 DUP2 DUP4 SUB SUB DUP2 MSTORE SWAP1 PUSH1 0x40 MSTORE SWAP1 POP PUSH1 0x0 DUP12 DUP1 PUSH1 0x40 ADD SWAP1 PUSH2 0x827 SWAP2 SWAP1 PUSH2 0x1F9A JUMP JUMPDEST DUP1 DUP1 PUSH1 0x1F ADD PUSH1 0x20 DUP1 SWAP2 DIV MUL PUSH1 0x20 ADD PUSH1 0x40 MLOAD SWAP1 DUP2 ADD PUSH1 0x40 MSTORE DUP1 SWAP4 SWAP3 SWAP2 SWAP1 DUP2 DUP2 MSTORE PUSH1 0x20 ADD DUP4 DUP4 DUP1 DUP3 DUP5 CALLDATACOPY PUSH1 0x0 DUP2 DUP5 ADD MSTORE PUSH1 0x1F NOT PUSH1 0x1F DUP3 ADD AND SWAP1 POP DUP1 DUP4 ADD SWAP3 POP POP POP POP POP POP POP SWAP1 POP PUSH1 0x60 PUSH8 0xFFFFFFFFFFFFFFFF AND DUP2 MLOAD EQ PUSH2 0x8BA JUMPI PUSH1 0x40 MLOAD PUSH32 0x8C379A000000000000000000000000000000000000000000000000000000000 DUP2 MSTORE PUSH1 0x4 ADD PUSH2 0x8B1 SWAP1 PUSH2 0x2C3D JUMP JUMPDEST PUSH1 0x40 MLOAD DUP1 SWAP2 SUB SWAP1 REVERT JUMPDEST PUSH2 0x8C5 DUP7 DUP4 DUP4 PUSH2 0xBCC JUMP JUMPDEST SWAP8 POP POP POP POP POP POP POP POP SWAP5 SWAP4 POP POP POP POP JUMP JUMPDEST PUSH1 0x0 PUSH1 0x6 PUSH8 0xFFFFFFFFFFFFFFFF AND DUP5 DUP5 SWAP1 POP EQ PUSH2 0x928 JUMPI PUSH1 0x40 MLOAD PUSH32 0x8C379A000000000000000000000000000000000000000000000000000000000 DUP2 MSTORE PUSH1 0x4 ADD PUSH2 0x91F SWAP1 PUSH2 0x2CA9 JUMP JUMPDEST PUSH1 0x40 MLOAD DUP1 SWAP2 SUB SWAP1 REVERT JUMPDEST PUSH1 0x0 PUSH2 0x943 DUP7 DUP1 CALLDATASIZE SUB DUP2 ADD SWAP1 PUSH2 0x93E SWAP2 SWAP1 PUSH2 0x2B88 JUMP JUMPDEST PUSH2 0xD5C JUMP JUMPDEST SWAP1 POP PUSH2 0x995 DUP2 DUP7 DUP7 DUP1 DUP1 PUSH1 0x20 MUL PUSH1 0x20 ADD PUSH1 0x40 MLOAD SWAP1 DUP2 ADD PUSH1 0x40 MSTORE DUP1 SWAP4 SWAP3 SWAP2 SWAP1 DUP2 DUP2 MSTORE PUSH1 0x20 ADD DUP4 DUP4 PUSH1 0x20 MUL DUP1 DUP3 DUP5 CALLDATACOPY PUSH1 0x0 DUP2 DUP5 ADD MSTORE PUSH1 0x1F NOT PUSH1 0x1F DUP3 ADD AND SWAP1 POP DUP1 DUP4 ADD SWAP3 POP POP POP POP POP POP POP PUSH1 0x6 PUSH1 0x69 DUP8 PUSH2 0xEBB JUMP JUMPDEST SWAP2 POP POP SWAP5 SWAP4 POP POP POP POP JUMP JUMPDEST PUSH1 0x0 PUSH2 0x100 PUSH1 0x20 DUP4 PUSH2 0x9B2 SWAP2 SWAP1 PUSH2 0x29CF JUMP JUMPDEST PUSH2 0x9BC SWAP2 SWAP1 PUSH2 0x29CF JUMP JUMPDEST SWAP1 POP SWAP2 SWAP1 POP JUMP JUMPDEST PUSH1 0x0 PUSH1 0x5 PUSH8 0xFFFFFFFFFFFFFFFF AND DUP5 DUP5 SWAP1 POP EQ PUSH2 0xA15 JUMPI PUSH1 0x40 MLOAD PUSH32 0x8C379A000000000000000000000000000000000000000000000000000000000 DUP2 MSTORE PUSH1 0x4 ADD PUSH2 0xA0C SWAP1 PUSH2 0x2D15 JUMP JUMPDEST PUSH1 0x40 MLOAD DUP1 SWAP2 SUB SWAP1 REVERT JUMPDEST PUSH1 0x0 PUSH2 0xA29 DUP7 PUSH2 0xA24 SWAP1 PUSH2 0x2F4C JUMP JUMPDEST PUSH2 0xF7F JUMP JUMPDEST SWAP1 POP PUSH2 0xA7B DUP2 DUP7 DUP7 DUP1 DUP1 PUSH1 0x20 MUL PUSH1 0x20 ADD PUSH1 0x40 MLOAD SWAP1 DUP2 ADD PUSH1 0x40 MSTORE DUP1 SWAP4 SWAP3 SWAP2 SWAP1 DUP2 DUP2 MSTORE PUSH1 0x20 ADD DUP4 DUP4 PUSH1 0x20 MUL DUP1 DUP3 DUP5 CALLDATACOPY PUSH1 0x0 DUP2 DUP5 ADD MSTORE PUSH1 0x1F NOT PUSH1 0x1F DUP3 ADD AND SWAP1 POP DUP1 DUP4 ADD SWAP3 POP POP POP POP POP POP POP PUSH1 0x5 PUSH1 0x37 DUP8 PUSH2 0xEBB JUMP JUMPDEST SWAP2 POP POP SWAP5 SWAP4 POP POP POP POP JUMP JUMPDEST PUSH1 0x0 DUP1 PUSH1 0x2 PUSH8 0xFFFFFFFFFFFFFFFF DUP2 GT ISZERO PUSH2 0xAA4 JUMPI PUSH2 0xAA3 PUSH2 0x1FFD JUMP JUMPDEST JUMPDEST PUSH1 0x40 MLOAD SWAP1 DUP1 DUP3 MSTORE DUP1 PUSH1 0x20 MUL PUSH1 0x20 ADD DUP3 ADD PUSH1 0x40 MSTORE DUP1 ISZERO PUSH2 0xAD2 JUMPI DUP2 PUSH1 0x20 ADD PUSH1 0x20 DUP3 MUL DUP1 CALLDATASIZE DUP4 CALLDATACOPY DUP1 DUP3 ADD SWAP2 POP POP SWAP1 POP JUMPDEST POP SWAP1 POP DUP3 PUSH1 0x0 PUSH1 0x2 DUP2 LT PUSH2 0xAE9 JUMPI PUSH2 0xAE8 PUSH2 0x2A31 JUMP JUMPDEST JUMPDEST PUSH1 0x20 MUL ADD MLOAD PUSH1 0x0 SHR DUP2 PUSH1 0x0 DUP2 MLOAD DUP2 LT PUSH2 0xB05 JUMPI PUSH2 0xB04 PUSH2 0x2A31 JUMP JUMPDEST JUMPDEST PUSH1 0x20 MUL PUSH1 0x20 ADD ADD DUP2 DUP2 MSTORE POP POP DUP3 PUSH1 0x1 PUSH1 0x2 DUP2 LT PUSH2 0xB25 JUMPI PUSH2 0xB24 PUSH2 0x2A31 JUMP JUMPDEST JUMPDEST PUSH1 0x20 MUL ADD MLOAD PUSH1 0x0 SHR DUP2 PUSH1 0x1 DUP2 MLOAD DUP2 LT PUSH2 0xB41 JUMPI PUSH2 0xB40 PUSH2 0x2A31 JUMP JUMPDEST JUMPDEST PUSH1 0x20 MUL PUSH1 0x20 ADD ADD DUP2 DUP2 MSTORE POP POP PUSH2 0xB56 DUP2 PUSH2 0x1168 JUMP JUMPDEST SWAP2 POP POP SWAP2 SWAP1 POP JUMP JUMPDEST PUSH1 0x0 DUP1 PUSH2 0xB6B DUP5 DUP5 PUSH2 0x1438 JUMP JUMPDEST SWAP1 POP PUSH1 0x20 DUP2 SWAP1 SHR DUP6 PUSH28 0xFFFFFFFFFFFFFFFFFFFFFFFFFFFFFFFFFFFFFFFFFFFFFFFFFFFFFFFF NOT AND OR SWAP2 POP POP SWAP4 SWAP3 POP POP POP JUMP JUMPDEST PUSH1 0x0 PUSH2 0xBC4 PUSH1 0x40 MLOAD DUP1 PUSH1 0x40 ADD PUSH1 0x40 MSTORE DUP1 PUSH2 0xBB6 DUP7 PUSH2 0xD5C JUMP JUMPDEST DUP2 MSTORE PUSH1 0x20 ADD DUP5 DUP2 MSTORE POP PUSH2 0x147E JUMP JUMPDEST SWAP1 POP SWAP3 SWAP2 POP POP JUMP JUMPDEST PUSH1 0x0 DUP1 PUSH4 0xD63E8240 PUSH1 0xE0 SHL DUP6 DUP6 DUP6 PUSH1 0x40 MLOAD PUSH1 0x24 ADD PUSH2 0xBEC SWAP4 SWAP3 SWAP2 SWAP1 PUSH2 0x306B JUMP JUMPDEST PUSH1 0x40 MLOAD PUSH1 0x20 DUP2 DUP4 SUB SUB DUP2 MSTORE SWAP1 PUSH1 0x40 MSTORE SWAP1 PUSH28 0xFFFFFFFFFFFFFFFFFFFFFFFFFFFFFFFFFFFFFFFFFFFFFFFFFFFFFFFF NOT AND PUSH1 0x20 DUP3 ADD DUP1 MLOAD PUSH28 0xFFFFFFFFFFFFFFFFFFFFFFFFFFFFFFFFFFFFFFFFFFFFFFFFFFFFFFFF DUP4 DUP2 DUP4 AND OR DUP4 MSTORE POP POP POP POP SWAP1 POP PUSH1 0x0 DUP1 PUSH32 0x0 PUSH20 0xFFFFFFFFFFFFFFFFFFFFFFFFFFFFFFFFFFFFFFFF AND DUP4 PUSH1 0x40 MLOAD PUSH2 0xC93 SWAP2 SWAP1 PUSH2 0x30F3 JUMP JUMPDEST PUSH1 0x0 PUSH1 0x40 MLOAD DUP1 DUP4 SUB DUP2 DUP6 GAS STATICCALL SWAP2 POP POP RETURNDATASIZE DUP1 PUSH1 0x0 DUP2 EQ PUSH2 0xCCE JUMPI PUSH1 0x40 MLOAD SWAP2 POP PUSH1 0x1F NOT PUSH1 0x3F RETURNDATASIZE ADD AND DUP3 ADD PUSH1 0x40 MSTORE RETURNDATASIZE DUP3 MSTORE RETURNDATASIZE PUSH1 0x0 PUSH1 0x20 DUP5 ADD RETURNDATACOPY PUSH2 0xCD3 JUMP JUMPDEST PUSH1 0x60 SWAP2 POP JUMPDEST POP SWAP2 POP SWAP2 POP DUP2 ISZERO PUSH2 0xD04 JUMPI PUSH1 0x20 DUP2 MLOAD EQ ISZERO PUSH2 0xCFF JUMPI DUP1 DUP1 PUSH1 0x20 ADD SWAP1 MLOAD DUP2 ADD SWAP1 PUSH2 0xCFC SWAP2 SWAP1 PUSH2 0x3142 JUMP JUMPDEST SWAP4 POP JUMPDEST PUSH2 0xD52 JUMP JUMPDEST PUSH1 0x0 DUP2 MLOAD GT ISZERO PUSH2 0xD17 JUMPI DUP1 MLOAD DUP1 DUP3 PUSH1 0x20 ADD REVERT JUMPDEST PUSH1 0x40 MLOAD PUSH32 0x8C379A000000000000000000000000000000000000000000000000000000000 DUP2 MSTORE PUSH1 0x4 ADD PUSH2 0xD49 SWAP1 PUSH2 0x31BB JUMP JUMPDEST PUSH1 0x40 MLOAD DUP1 SWAP2 SUB SWAP1 REVERT JUMPDEST POP POP POP SWAP4 SWAP3 POP POP POP JUMP JUMPDEST PUSH1 0x0 DUP1 PUSH1 0x5 PUSH8 0xFFFFFFFFFFFFFFFF DUP2 GT ISZERO PUSH2 0xD7A JUMPI PUSH2 0xD79 PUSH2 0x1FFD JUMP JUMPDEST JUMPDEST PUSH1 0x40 MLOAD SWAP1 DUP1 DUP3 MSTORE DUP1 PUSH1 0x20 MUL PUSH1 0x20 ADD DUP3 ADD PUSH1 0x40 MSTORE DUP1 ISZERO PUSH2 0xDA8 JUMPI DUP2 PUSH1 0x20 ADD PUSH1 0x20 DUP3 MUL DUP1 CALLDATASIZE DUP4 CALLDATACOPY DUP1 DUP3 ADD SWAP2 POP POP SWAP1 POP JUMPDEST POP SWAP1 POP PUSH2 0xDB8 DUP4 PUSH1 0x0 ADD MLOAD PUSH2 0x1499 JUMP JUMPDEST PUSH24 0xFFFFFFFFFFFFFFFFFFFFFFFFFFFFFFFFFFFFFFFFFFFFFFFF NOT AND DUP2 PUSH1 0x0 DUP2 MLOAD DUP2 LT PUSH2 0xDE7 JUMPI PUSH2 0xDE6 PUSH2 0x2A31 JUMP JUMPDEST JUMPDEST PUSH1 0x20 MUL PUSH1 0x20 ADD ADD DUP2 DUP2 MSTORE POP POP PUSH2 0xE00 DUP4 PUSH1 0x20 ADD MLOAD PUSH2 0x1499 JUMP JUMPDEST PUSH24 0xFFFFFFFFFFFFFFFFFFFFFFFFFFFFFFFFFFFFFFFFFFFFFFFF NOT AND DUP2 PUSH1 0x1 DUP2 MLOAD DUP2 LT PUSH2 0xE2F JUMPI PUSH2 0xE2E PUSH2 0x2A31 JUMP JUMPDEST JUMPDEST PUSH1 0x20 MUL PUSH1 0x20 ADD ADD DUP2 DUP2 MSTORE POP POP DUP3 PUSH1 0x40 ADD MLOAD DUP2 PUSH1 0x2 DUP2 MLOAD DUP2 LT PUSH2 0xE54 JUMPI PUSH2 0xE53 PUSH2 0x2A31 JUMP JUMPDEST JUMPDEST PUSH1 0x20 MUL PUSH1 0x20 ADD ADD DUP2 DUP2 MSTORE POP POP DUP3 PUSH1 0x60 ADD MLOAD DUP2 PUSH1 0x3 DUP2 MLOAD DUP2 LT PUSH2 0xE79 JUMPI PUSH2 0xE78 PUSH2 0x2A31 JUMP JUMPDEST JUMPDEST PUSH1 0x20 MUL PUSH1 0x20 ADD ADD DUP2 DUP2 MSTORE POP POP DUP3 PUSH1 0x80 ADD MLOAD DUP2 PUSH1 0x4 DUP2 MLOAD DUP2 LT PUSH2 0xE9E JUMPI PUSH2 0xE9D PUSH2 0x2A31 JUMP JUMPDEST JUMPDEST PUSH1 0x20 MUL PUSH1 0x20 ADD ADD DUP2 DUP2 MSTORE POP POP PUSH2 0xEB3 DUP2 PUSH2 0x14AE JUMP JUMPDEST SWAP2 POP POP SWAP2 SWAP1 POP JUMP JUMPDEST PUSH1 0x0 DUP1 DUP7 SWAP1 POP PUSH1 0x0 JUMPDEST DUP6 PUSH8 0xFFFFFFFFFFFFFFFF AND DUP2 LT ISZERO PUSH2 0xF6F JUMPI PUSH1 0x1 PUSH1 0x2 DUP3 PUSH1 0x2 PUSH2 0xEE7 SWAP2 SWAP1 PUSH2 0x330E JUMP JUMPDEST DUP8 PUSH8 0xFFFFFFFFFFFFFFFF AND PUSH2 0xEFC SWAP2 SWAP1 PUSH2 0x3359 JUMP JUMPDEST PUSH2 0xF06 SWAP2 SWAP1 PUSH2 0x338A JUMP JUMPDEST EQ ISZERO PUSH2 0xF37 JUMPI PUSH2 0xF30 DUP8 DUP3 DUP2 MLOAD DUP2 LT PUSH2 0xF22 JUMPI PUSH2 0xF21 PUSH2 0x2A31 JUMP JUMPDEST JUMPDEST PUSH1 0x20 MUL PUSH1 0x20 ADD ADD MLOAD DUP4 PUSH2 0x170C JUMP JUMPDEST SWAP2 POP PUSH2 0xF5E JUMP JUMPDEST PUSH2 0xF5B DUP3 DUP9 DUP4 DUP2 MLOAD DUP2 LT PUSH2 0xF4E JUMPI PUSH2 0xF4D PUSH2 0x2A31 JUMP JUMPDEST JUMPDEST PUSH1 0x20 MUL PUSH1 0x20 ADD ADD MLOAD PUSH2 0x170C JUMP JUMPDEST SWAP2 POP JUMPDEST DUP1 PUSH2 0xF68 SWAP1 PUSH2 0x33BB JUMP JUMPDEST SWAP1 POP PUSH2 0xEC4 JUMP JUMPDEST POP DUP3 DUP2 EQ SWAP2 POP POP SWAP6 SWAP5 POP POP POP POP POP JUMP JUMPDEST PUSH1 0x0 DUP1 PUSH2 0x200 PUSH8 0xFFFFFFFFFFFFFFFF AND PUSH8 0xFFFFFFFFFFFFFFFF DUP2 GT ISZERO PUSH2 0xFA8 JUMPI PUSH2 0xFA7 PUSH2 0x1FFD JUMP JUMPDEST JUMPDEST PUSH1 0x40 MLOAD SWAP1 DUP1 DUP3 MSTORE DUP1 PUSH1 0x20 MUL PUSH1 0x20 ADD DUP3 ADD PUSH1 0x40 MSTORE DUP1 ISZERO PUSH2 0xFD6 JUMPI DUP2 PUSH1 0x20 ADD PUSH1 0x20 DUP3 MUL DUP1 CALLDATASIZE DUP4 CALLDATACOPY DUP1 DUP3 ADD SWAP2 POP POP SWAP1 POP JUMPDEST POP SWAP1 POP PUSH1 0x0 JUMPDEST PUSH2 0x200 PUSH8 0xFFFFFFFFFFFFFFFF AND DUP2 LT ISZERO PUSH2 0x10BE JUMPI PUSH1 0x0 DUP5 PUSH1 0x0 ADD MLOAD DUP3 PUSH2 0x200 DUP2 LT PUSH2 0x100A JUMPI PUSH2 0x1009 PUSH2 0x2A31 JUMP JUMPDEST JUMPDEST PUSH1 0x20 MUL ADD MLOAD SWAP1 POP PUSH1 0x30 PUSH8 0xFFFFFFFFFFFFFFFF AND DUP2 MLOAD EQ PUSH2 0x105F JUMPI PUSH1 0x40 MLOAD PUSH32 0x8C379A000000000000000000000000000000000000000000000000000000000 DUP2 MSTORE PUSH1 0x4 ADD PUSH2 0x1056 SWAP1 PUSH2 0x3450 JUMP JUMPDEST PUSH1 0x40 MLOAD DUP1 SWAP2 SUB SWAP1 REVERT JUMPDEST PUSH2 0x108D DUP2 PUSH1 0x0 PUSH1 0x80 SHL PUSH1 0x40 MLOAD PUSH1 0x20 ADD PUSH2 0x1079 SWAP3 SWAP2 SWAP1 PUSH2 0x34BD JUMP JUMPDEST PUSH1 0x40 MLOAD PUSH1 0x20 DUP2 DUP4 SUB SUB DUP2 MSTORE SWAP1 PUSH1 0x40 MSTORE PUSH2 0x1740 JUMP JUMPDEST DUP4 DUP4 DUP2 MLOAD DUP2 LT PUSH2 0x10A0 JUMPI PUSH2 0x109F PUSH2 0x2A31 JUMP JUMPDEST JUMPDEST PUSH1 0x20 MUL PUSH1 0x20 ADD ADD DUP2 DUP2 MSTORE POP POP POP DUP1 PUSH2 0x10B7 SWAP1 PUSH2 0x33BB JUMP JUMPDEST SWAP1 POP PUSH2 0xFDC JUMP JUMPDEST POP PUSH1 0x0 PUSH2 0x10CA DUP3 PUSH2 0x14AE JUMP JUMPDEST SWAP1 POP PUSH1 0x30 PUSH8 0xFFFFFFFFFFFFFFFF AND DUP5 PUSH1 0x20 ADD MLOAD MLOAD EQ PUSH2 0x111E JUMPI PUSH1 0x40 MLOAD PUSH32 0x8C379A000000000000000000000000000000000000000000000000000000000 DUP2 MSTORE PUSH1 0x4 ADD PUSH2 0x1115 SWAP1 PUSH2 0x3531 JUMP JUMPDEST PUSH1 0x40 MLOAD DUP1 SWAP2 SUB SWAP1 REVERT JUMPDEST PUSH1 0x0 PUSH2 0x1152 DUP6 PUSH1 0x20 ADD MLOAD PUSH1 0x0 PUSH1 0x80 SHL PUSH1 0x40 MLOAD PUSH1 0x20 ADD PUSH2 0x113E SWAP3 SWAP2 SWAP1 PUSH2 0x34BD JUMP JUMPDEST PUSH1 0x40 MLOAD PUSH1 0x20 DUP2 DUP4 SUB SUB DUP2 MSTORE SWAP1 PUSH1 0x40 MSTORE PUSH2 0x1740 JUMP JUMPDEST SWAP1 POP PUSH2 0x115E DUP3 DUP3 PUSH2 0x170C JUMP JUMPDEST SWAP4 POP POP POP POP SWAP2 SWAP1 POP JUMP JUMPDEST PUSH1 0x0 DUP1 PUSH1 0x0 SWAP1 POP PUSH1 0x0 JUMPDEST DUP4 MLOAD DUP2 LT ISZERO PUSH2 0x142E JUMPI PUSH1 0x0 DUP5 DUP3 DUP2 MLOAD DUP2 LT PUSH2 0x1190 JUMPI PUSH2 0x118F PUSH2 0x2A31 JUMP JUMPDEST JUMPDEST PUSH1 0x20 MUL PUSH1 0x20 ADD ADD MLOAD SWAP1 POP PUSH32 0x5555555555555555555555555555555555555555555555555555555555555555 PUSH1 0x1 DUP3 SWAP1 SHR AND PUSH32 0x5555555555555555555555555555555555555555555555555555555555555555 DUP3 AND PUSH2 0x11EE SWAP2 SWAP1 PUSH2 0x3551 JUMP JUMPDEST SWAP1 POP PUSH32 0x3333333333333333333333333333333333333333333333333333333333333333 PUSH1 0x2 DUP3 SWAP1 SHR AND PUSH32 0x3333333333333333333333333333333333333333333333333333333333333333 DUP3 AND PUSH2 0x1244 SWAP2 SWAP1 PUSH2 0x3551 JUMP JUMPDEST SWAP1 POP PUSH32 0xF0F0F0F0F0F0F0F0F0F0F0F0F0F0F0F0F0F0F0F0F0F0F0F0F0F0F0F0F0F0F0F PUSH1 0x4 DUP3 SWAP1 SHR AND PUSH32 0xF0F0F0F0F0F0F0F0F0F0F0F0F0F0F0F0F0F0F0F0F0F0F0F0F0F0F0F0F0F0F0F DUP3 AND PUSH2 0x129A SWAP2 SWAP1 PUSH2 0x3551 JUMP JUMPDEST SWAP1 POP PUSH31 0xFF00FF00FF00FF00FF00FF00FF00FF00FF00FF00FF00FF00FF00FF00FF00FF PUSH1 0x8 DUP3 SWAP1 SHR AND PUSH31 0xFF00FF00FF00FF00FF00FF00FF00FF00FF00FF00FF00FF00FF00FF00FF00FF DUP3 AND PUSH2 0x12EE SWAP2 SWAP1 PUSH2 0x3551 JUMP JUMPDEST SWAP1 POP PUSH30 0xFFFF0000FFFF0000FFFF0000FFFF0000FFFF0000FFFF0000FFFF0000FFFF PUSH1 0x10 DUP3 SWAP1 SHR AND PUSH30 0xFFFF0000FFFF0000FFFF0000FFFF0000FFFF0000FFFF0000FFFF0000FFFF DUP3 AND PUSH2 0x1340 SWAP2 SWAP1 PUSH2 0x3551 JUMP JUMPDEST SWAP1 POP PUSH28 0xFFFFFFFF00000000FFFFFFFF00000000FFFFFFFF00000000FFFFFFFF PUSH1 0x20 DUP3 SWAP1 SHR AND PUSH28 0xFFFFFFFF00000000FFFFFFFF00000000FFFFFFFF00000000FFFFFFFF DUP3 AND PUSH2 0x138E SWAP2 SWAP1 PUSH2 0x3551 JUMP JUMPDEST SWAP1 POP PUSH24 0xFFFFFFFFFFFFFFFF0000000000000000FFFFFFFFFFFFFFFF PUSH1 0x40 DUP3 SWAP1 SHR AND PUSH24 0xFFFFFFFFFFFFFFFF0000000000000000FFFFFFFFFFFFFFFF DUP3 AND PUSH2 0x13D4 SWAP2 SWAP1 PUSH2 0x3551 JUMP JUMPDEST SWAP1 POP PUSH16 0xFFFFFFFFFFFFFFFFFFFFFFFFFFFFFFFF PUSH1 0x80 DUP3 SWAP1 SHR AND PUSH16 0xFFFFFFFFFFFFFFFFFFFFFFFFFFFFFFFF DUP3 AND PUSH2 0x140A SWAP2 SWAP1 PUSH2 0x3551 JUMP JUMPDEST SWAP1 POP DUP1 DUP4 PUSH2 0x1418 SWAP2 SWAP1 PUSH2 0x3551 JUMP JUMPDEST SWAP3 POP POP DUP1 DUP1 PUSH2 0x1426 SWAP1 PUSH2 0x33BB JUMP JUMPDEST SWAP2 POP POP PUSH2 0x1172 JUMP JUMPDEST POP DUP1 SWAP2 POP POP SWAP2 SWAP1 POP JUMP JUMPDEST PUSH1 0x0 PUSH2 0x1476 PUSH1 0x40 MLOAD DUP1 PUSH1 0x40 ADD PUSH1 0x40 MSTORE DUP1 DUP6 PUSH28 0xFFFFFFFFFFFFFFFFFFFFFFFFFFFFFFFFFFFFFFFFFFFFFFFFFFFFFFFF NOT AND DUP2 MSTORE PUSH1 0x20 ADD DUP5 DUP2 MSTORE POP PUSH2 0x1799 JUMP JUMPDEST SWAP1 POP SWAP3 SWAP2 POP POP JUMP JUMPDEST PUSH1 0x0 PUSH2 0x1492 DUP3 PUSH1 0x0 ADD MLOAD DUP4 PUSH1 0x20 ADD MLOAD PUSH2 0x170C JUMP JUMPDEST SWAP1 POP SWAP2 SWAP1 POP JUMP JUMPDEST PUSH1 0x0 PUSH2 0x14A4 DUP3 PUSH2 0x17D3 JUMP JUMPDEST PUSH1 0xC0 SHL SWAP1 POP SWAP2 SWAP1 POP JUMP JUMPDEST PUSH1 0x0 DUP1 DUP3 MLOAD SWAP1 POP PUSH1 0x0 DUP2 EQ ISZERO PUSH2 0x14CA JUMPI PUSH1 0x0 DUP1 SHL SWAP2 POP POP PUSH2 0x1707 JUMP JUMPDEST PUSH1 0x1 DUP2 EQ ISZERO PUSH2 0x151E JUMPI PUSH2 0x1516 DUP4 PUSH1 0x0 DUP2 MLOAD DUP2 LT PUSH2 0x14EA JUMPI PUSH2 0x14E9 PUSH2 0x2A31 JUMP JUMPDEST JUMPDEST PUSH1 0x20 MUL PUSH1 0x20 ADD ADD MLOAD PUSH1 0x40 MLOAD PUSH1 0x20 ADD PUSH2 0x1502 SWAP2 SWAP1 PUSH2 0x2BD6 JUMP JUMPDEST PUSH1 0x40 MLOAD PUSH1 0x20 DUP2 DUP4 SUB SUB DUP2 MSTORE SWAP1 PUSH1 0x40 MSTORE PUSH2 0x1740 JUMP JUMPDEST SWAP2 POP POP PUSH2 0x1707 JUMP JUMPDEST PUSH1 0x2 DUP2 EQ ISZERO PUSH2 0x156F JUMPI PUSH2 0x1567 DUP4 PUSH1 0x0 DUP2 MLOAD DUP2 LT PUSH2 0x153E JUMPI PUSH2 0x153D PUSH2 0x2A31 JUMP JUMPDEST JUMPDEST PUSH1 0x20 MUL PUSH1 0x20 ADD ADD MLOAD DUP5 PUSH1 0x1 DUP2 MLOAD DUP2 LT PUSH2 0x155A JUMPI PUSH2 0x1559 PUSH2 0x2A31 JUMP JUMPDEST JUMPDEST PUSH1 0x20 MUL PUSH1 0x20 ADD ADD MLOAD PUSH2 0x170C JUMP JUMPDEST SWAP2 POP POP PUSH2 0x1707 JUMP JUMPDEST PUSH1 0x0 PUSH2 0x157A DUP3 PUSH2 0x1865 JUMP JUMPDEST SWAP1 POP PUSH1 0x0 PUSH1 0x2 DUP3 PUSH2 0x158B SWAP2 SWAP1 PUSH2 0x2042 JUMP JUMPDEST PUSH8 0xFFFFFFFFFFFFFFFF DUP2 GT ISZERO PUSH2 0x15A4 JUMPI PUSH2 0x15A3 PUSH2 0x1FFD JUMP JUMPDEST JUMPDEST PUSH1 0x40 MLOAD SWAP1 DUP1 DUP3 MSTORE DUP1 PUSH1 0x20 MUL PUSH1 0x20 ADD DUP3 ADD PUSH1 0x40 MSTORE DUP1 ISZERO PUSH2 0x15D2 JUMPI DUP2 PUSH1 0x20 ADD PUSH1 0x20 DUP3 MUL DUP1 CALLDATASIZE DUP4 CALLDATACOPY DUP1 DUP3 ADD SWAP2 POP POP SWAP1 POP JUMPDEST POP SWAP1 POP PUSH1 0x0 JUMPDEST DUP4 DUP2 LT ISZERO PUSH2 0x1636 JUMPI DUP6 DUP2 DUP2 MLOAD DUP2 LT PUSH2 0x15F3 JUMPI PUSH2 0x15F2 PUSH2 0x2A31 JUMP JUMPDEST JUMPDEST PUSH1 0x20 MUL PUSH1 0x20 ADD ADD MLOAD DUP3 DUP3 DUP6 PUSH2 0x1608 SWAP2 SWAP1 PUSH2 0x3551 JUMP JUMPDEST DUP2 MLOAD DUP2 LT PUSH2 0x1619 JUMPI PUSH2 0x1618 PUSH2 0x2A31 JUMP JUMPDEST JUMPDEST PUSH1 0x20 MUL PUSH1 0x20 ADD ADD DUP2 DUP2 MSTORE POP POP DUP1 PUSH2 0x162F SWAP1 PUSH2 0x33BB JUMP JUMPDEST SWAP1 POP PUSH2 0x15D8 JUMP JUMPDEST POP PUSH1 0x0 PUSH1 0x1 DUP4 PUSH2 0x1646 SWAP2 SWAP1 PUSH2 0x35A7 JUMP JUMPDEST SWAP1 POP JUMPDEST PUSH1 0x0 DUP2 GT ISZERO PUSH2 0x16E4 JUMPI PUSH2 0x16B4 DUP3 PUSH1 0x2 DUP4 PUSH2 0x1663 SWAP2 SWAP1 PUSH2 0x2042 JUMP JUMPDEST DUP2 MLOAD DUP2 LT PUSH2 0x1674 JUMPI PUSH2 0x1673 PUSH2 0x2A31 JUMP JUMPDEST JUMPDEST PUSH1 0x20 MUL PUSH1 0x20 ADD ADD MLOAD DUP4 PUSH1 0x1 PUSH1 0x2 DUP6 PUSH2 0x168C SWAP2 SWAP1 PUSH2 0x2042 JUMP JUMPDEST PUSH2 0x1696 SWAP2 SWAP1 PUSH2 0x3551 JUMP JUMPDEST DUP2 MLOAD DUP2 LT PUSH2 0x16A7 JUMPI PUSH2 0x16A6 PUSH2 0x2A31 JUMP JUMPDEST JUMPDEST PUSH1 0x20 MUL PUSH1 0x20 ADD ADD MLOAD PUSH2 0x170C JUMP JUMPDEST DUP3 DUP3 DUP2 MLOAD DUP2 LT PUSH2 0x16C7 JUMPI PUSH2 0x16C6 PUSH2 0x2A31 JUMP JUMPDEST JUMPDEST PUSH1 0x20 MUL PUSH1 0x20 ADD ADD DUP2 DUP2 MSTORE POP POP DUP1 PUSH2 0x16DD SWAP1 PUSH2 0x35DB JUMP JUMPDEST SWAP1 POP PUSH2 0x1649 JUMP JUMPDEST POP DUP1 PUSH1 0x1 DUP2 MLOAD DUP2 LT PUSH2 0x16F9 JUMPI PUSH2 0x16F8 PUSH2 0x2A31 JUMP JUMPDEST JUMPDEST PUSH1 0x20 MUL PUSH1 0x20 ADD ADD MLOAD SWAP4 POP POP POP POP JUMPDEST SWAP2 SWAP1 POP JUMP JUMPDEST PUSH1 0x0 PUSH2 0x1738 DUP4 DUP4 PUSH1 0x40 MLOAD PUSH1 0x20 ADD PUSH2 0x1724 SWAP3 SWAP2 SWAP1 PUSH2 0x3605 JUMP JUMPDEST PUSH1 0x40 MLOAD PUSH1 0x20 DUP2 DUP4 SUB SUB DUP2 MSTORE SWAP1 PUSH1 0x40 MSTORE PUSH2 0x1740 JUMP JUMPDEST SWAP1 POP SWAP3 SWAP2 POP POP JUMP JUMPDEST PUSH1 0x0 PUSH1 0x2 DUP3 PUSH1 0x40 MLOAD PUSH2 0x1752 SWAP2 SWAP1 PUSH2 0x30F3 JUMP JUMPDEST PUSH1 0x20 PUSH1 0x40 MLOAD DUP1 DUP4 SUB DUP2 DUP6 GAS STATICCALL ISZERO DUP1 ISZERO PUSH2 0x176F JUMPI RETURNDATASIZE PUSH1 0x0 DUP1 RETURNDATACOPY RETURNDATASIZE PUSH1 0x0 REVERT JUMPDEST POP POP POP PUSH1 0x40 MLOAD RETURNDATASIZE PUSH1 0x1F NOT PUSH1 0x1F DUP3 ADD AND DUP3 ADD DUP1 PUSH1 0x40 MSTORE POP DUP2 ADD SWAP1 PUSH2 0x1792 SWAP2 SWAP1 PUSH2 0x3646 JUMP JUMPDEST SWAP1 POP SWAP2 SWAP1 POP JUMP JUMPDEST PUSH1 0x0 PUSH2 0x17CC DUP3 PUSH1 0x0 ADD MLOAD PUSH28 0xFFFFFFFFFFFFFFFFFFFFFFFFFFFFFFFFFFFFFFFFFFFFFFFFFFFFFFFF NOT AND DUP4 PUSH1 0x20 ADD MLOAD PUSH2 0x170C JUMP JUMPDEST SWAP1 POP SWAP2 SWAP1 POP JUMP JUMPDEST PUSH1 0x0 DUP2 SWAP1 POP PUSH1 0x8 PUSH7 0xFF00FF00FF00FF DUP3 AND PUSH8 0xFFFFFFFFFFFFFFFF AND SWAP1 SHL PUSH1 0x8 PUSH8 0xFF00FF00FF00FF00 DUP4 AND PUSH8 0xFFFFFFFFFFFFFFFF AND SWAP1 SHR OR SWAP1 POP PUSH1 0x10 PUSH6 0xFFFF0000FFFF DUP3 AND PUSH8 0xFFFFFFFFFFFFFFFF AND SWAP1 SHL PUSH1 0x10 PUSH8 0xFFFF0000FFFF0000 DUP4 AND PUSH8 0xFFFFFFFFFFFFFFFF AND SWAP1 SHR OR SWAP1 POP PUSH1 0x20 DUP2 PUSH8 0xFFFFFFFFFFFFFFFF AND SWAP1 SHL PUSH1 0x20 DUP3 PUSH8 0xFFFFFFFFFFFFFFFF AND SWAP1 SHR OR SWAP1 POP SWAP2 SWAP1 POP JUMP JUMPDEST PUSH1 0x0 PUSH1 0x1 DUP3 GT PUSH2 0x1878 JUMPI PUSH1 0x1 SWAP1 POP PUSH2 0x18B1 JUMP JUMPDEST PUSH1 0x2 DUP3 EQ ISZERO PUSH2 0x188A JUMPI PUSH1 0x2 SWAP1 POP PUSH2 0x18B1 JUMP JUMPDEST PUSH2 0x18A2 PUSH1 0x1 DUP1 DUP5 PUSH2 0x189B SWAP2 SWAP1 PUSH2 0x3551 JUMP JUMPDEST SWAP1 SHR PUSH2 0x1865 JUMP JUMPDEST PUSH1 0x2 PUSH2 0x18AE SWAP2 SWAP1 PUSH2 0x2042 JUMP JUMPDEST SWAP1 POP JUMPDEST SWAP2 SWAP1 POP JUMP JUMPDEST PUSH1 0x0 DUP2 SWAP1 POP SWAP2 SWAP1 POP JUMP JUMPDEST PUSH2 0x18C9 DUP2 PUSH2 0x18B6 JUMP JUMPDEST DUP3 MSTORE POP POP JUMP JUMPDEST PUSH1 0x0 PUSH1 0x20 DUP3 ADD SWAP1 POP PUSH2 0x18E4 PUSH1 0x0 DUP4 ADD DUP5 PUSH2 0x18C0 JUMP JUMPDEST SWAP3 SWAP2 POP POP JUMP JUMPDEST PUSH1 0x0 PUSH8 0xFFFFFFFFFFFFFFFF DUP3 AND SWAP1 POP SWAP2 SWAP1 POP JUMP JUMPDEST PUSH2 0x1907 DUP2 PUSH2 0x18EA JUMP JUMPDEST DUP3 MSTORE POP POP JUMP JUMPDEST PUSH1 0x0 PUSH1 0xA0 DUP3 ADD SWAP1 POP PUSH2 0x1922 PUSH1 0x0 DUP4 ADD DUP9 PUSH2 0x18FE JUMP JUMPDEST PUSH2 0x192F PUSH1 0x20 DUP4 ADD DUP8 PUSH2 0x18FE JUMP JUMPDEST PUSH2 0x193C PUSH1 0x40 DUP4 ADD DUP7 PUSH2 0x18C0 JUMP JUMPDEST PUSH2 0x1949 PUSH1 0x60 DUP4 ADD DUP6 PUSH2 0x18C0 JUMP JUMPDEST PUSH2 0x1956 PUSH1 0x80 DUP4 ADD DUP5 PUSH2 0x18C0 JUMP JUMPDEST SWAP7 SWAP6 POP POP POP POP POP POP JUMP JUMPDEST PUSH1 0x0 DUP2 MLOAD SWAP1 POP SWAP2 SWAP1 POP JUMP JUMPDEST PUSH1 0x0 DUP3 DUP3 MSTORE PUSH1 0x20 DUP3 ADD SWAP1 POP SWAP3 SWAP2 POP POP JUMP JUMPDEST PUSH1 0x0 JUMPDEST DUP4 DUP2 LT ISZERO PUSH2 0x199A JUMPI DUP1 DUP3 ADD MLOAD DUP2 DUP5 ADD MSTORE PUSH1 0x20 DUP2 ADD SWAP1 POP PUSH2 0x197F JUMP JUMPDEST DUP4 DUP2 GT ISZERO PUSH2 0x19A9 JUMPI PUSH1 0x0 DUP5 DUP5 ADD MSTORE JUMPDEST POP POP POP POP JUMP JUMPDEST PUSH1 0x0 PUSH1 0x1F NOT PUSH1 0x1F DUP4 ADD AND SWAP1 POP SWAP2 SWAP1 POP JUMP JUMPDEST PUSH1 0x0 PUSH2 0x19CB DUP3 PUSH2 0x1960 JUMP JUMPDEST PUSH2 0x19D5 DUP2 DUP6 PUSH2 0x196B JUMP JUMPDEST SWAP4 POP PUSH2 0x19E5 DUP2 DUP6 PUSH1 0x20 DUP7 ADD PUSH2 0x197C JUMP JUMPDEST PUSH2 0x19EE DUP2 PUSH2 0x19AF JUMP JUMPDEST DUP5 ADD SWAP2 POP POP SWAP3 SWAP2 POP POP JUMP JUMPDEST PUSH1 0x0 PUSH1 0x20 DUP3 ADD SWAP1 POP DUP2 DUP2 SUB PUSH1 0x0 DUP4 ADD MSTORE PUSH2 0x1A13 DUP2 DUP5 PUSH2 0x19C0 JUMP JUMPDEST SWAP1 POP SWAP3 SWAP2 POP POP JUMP JUMPDEST PUSH1 0x0 PUSH1 0x40 MLOAD SWAP1 POP SWAP1 JUMP JUMPDEST PUSH1 0x0 DUP1 REVERT JUMPDEST PUSH1 0x0 DUP1 REVERT JUMPDEST PUSH1 0x0 DUP1 REVERT JUMPDEST PUSH1 0x0 PUSH2 0x200 DUP3 DUP5 SUB SLT ISZERO PUSH2 0x1A4B JUMPI PUSH2 0x1A4A PUSH2 0x1A2F JUMP JUMPDEST JUMPDEST DUP2 SWAP1 POP SWAP3 SWAP2 POP POP JUMP JUMPDEST PUSH1 0x0 PUSH1 0x20 DUP3 DUP5 SUB SLT ISZERO PUSH2 0x1A6A JUMPI PUSH2 0x1A69 PUSH2 0x1A25 JUMP JUMPDEST JUMPDEST PUSH1 0x0 DUP3 ADD CALLDATALOAD PUSH8 0xFFFFFFFFFFFFFFFF DUP2 GT ISZERO PUSH2 0x1A88 JUMPI PUSH2 0x1A87 PUSH2 0x1A2A JUMP JUMPDEST JUMPDEST PUSH2 0x1A94 DUP5 DUP3 DUP6 ADD PUSH2 0x1A34 JUMP JUMPDEST SWAP2 POP POP SWAP3 SWAP2 POP POP JUMP JUMPDEST PUSH32 0x4E487B7100000000000000000000000000000000000000000000000000000000 PUSH1 0x0 MSTORE PUSH1 0x22 PUSH1 0x4 MSTORE PUSH1 0x24 PUSH1 0x0 REVERT JUMPDEST PUSH1 0x0 PUSH1 0x2 DUP3 DIV SWAP1 POP PUSH1 0x1 DUP3 AND DUP1 PUSH2 0x1AE4 JUMPI PUSH1 0x7F DUP3 AND SWAP2 POP JUMPDEST PUSH1 0x20 DUP3 LT DUP2 EQ ISZERO PUSH2 0x1AF8 JUMPI PUSH2 0x1AF7 PUSH2 0x1A9D JUMP JUMPDEST JUMPDEST POP SWAP2 SWAP1 POP JUMP JUMPDEST PUSH1 0x0 DUP1 REVERT JUMPDEST PUSH1 0x0 DUP1 REVERT JUMPDEST PUSH1 0x0 DUP1 REVERT JUMPDEST PUSH1 0x0 DUP3 CALLDATALOAD PUSH1 0x1 PUSH1 0x60 SUB DUP4 CALLDATASIZE SUB SUB DUP2 SLT PUSH2 0x1B29 JUMPI PUSH2 0x1B28 PUSH2 0x1AFE JUMP JUMPDEST JUMPDEST DUP1 DUP4 ADD SWAP2 POP POP SWAP3 SWAP2 POP POP JUMP JUMPDEST PUSH1 0x0 DUP3 DUP3 MSTORE PUSH1 0x20 DUP3 ADD SWAP1 POP SWAP3 SWAP2 POP POP JUMP JUMPDEST PUSH32 0x2173757065726D616A6F72000000000000000000000000000000000000000000 PUSH1 0x0 DUP3 ADD MSTORE POP JUMP JUMPDEST PUSH1 0x0 PUSH2 0x1B7C PUSH1 0xB DUP4 PUSH2 0x1B35 JUMP JUMPDEST SWAP2 POP PUSH2 0x1B87 DUP3 PUSH2 0x1B46 JUMP JUMPDEST PUSH1 0x20 DUP3 ADD SWAP1 POP SWAP2 SWAP1 POP JUMP JUMPDEST PUSH1 0x0 PUSH1 0x20 DUP3 ADD SWAP1 POP DUP2 DUP2 SUB PUSH1 0x0 DUP4 ADD MSTORE PUSH2 0x1BAB DUP2 PUSH2 0x1B6F JUMP JUMPDEST SWAP1 POP SWAP2 SWAP1 POP JUMP JUMPDEST PUSH1 0x0 PUSH32 0xFFFFFFFF00000000000000000000000000000000000000000000000000000000 DUP3 AND SWAP1 POP SWAP2 SWAP1 POP JUMP JUMPDEST PUSH2 0x1BE7 DUP2 PUSH2 0x1BB2 JUMP JUMPDEST DUP2 EQ PUSH2 0x1BF2 JUMPI PUSH1 0x0 DUP1 REVERT JUMPDEST POP JUMP JUMPDEST PUSH1 0x0 DUP2 CALLDATALOAD SWAP1 POP PUSH2 0x1C04 DUP2 PUSH2 0x1BDE JUMP JUMPDEST SWAP3 SWAP2 POP POP JUMP JUMPDEST PUSH1 0x0 PUSH1 0x20 DUP3 DUP5 SUB SLT ISZERO PUSH2 0x1C20 JUMPI PUSH2 0x1C1F PUSH2 0x1A25 JUMP JUMPDEST JUMPDEST PUSH1 0x0 PUSH2 0x1C2E DUP5 DUP3 DUP6 ADD PUSH2 0x1BF5 JUMP JUMPDEST SWAP2 POP POP SWAP3 SWAP2 POP POP JUMP JUMPDEST PUSH32 0x217369676E000000000000000000000000000000000000000000000000000000 PUSH1 0x0 DUP3 ADD MSTORE POP JUMP JUMPDEST PUSH1 0x0 PUSH2 0x1C6D PUSH1 0x5 DUP4 PUSH2 0x1B35 JUMP JUMPDEST SWAP2 POP PUSH2 0x1C78 DUP3 PUSH2 0x1C37 JUMP JUMPDEST PUSH1 0x20 DUP3 ADD SWAP1 POP SWAP2 SWAP1 POP JUMP JUMPDEST PUSH1 0x0 PUSH1 0x20 DUP3 ADD SWAP1 POP DUP2 DUP2 SUB PUSH1 0x0 DUP4 ADD MSTORE PUSH2 0x1C9C DUP2 PUSH2 0x1C60 JUMP JUMPDEST SWAP1 POP SWAP2 SWAP1 POP JUMP JUMPDEST PUSH1 0x0 DUP1 DUP4 CALLDATALOAD PUSH1 0x1 PUSH1 0x20 SUB DUP5 CALLDATASIZE SUB SUB DUP2 SLT PUSH2 0x1CC0 JUMPI PUSH2 0x1CBF PUSH2 0x1AFE JUMP JUMPDEST JUMPDEST DUP1 DUP5 ADD SWAP3 POP DUP3 CALLDATALOAD SWAP2 POP PUSH8 0xFFFFFFFFFFFFFFFF DUP3 GT ISZERO PUSH2 0x1CE2 JUMPI PUSH2 0x1CE1 PUSH2 0x1B03 JUMP JUMPDEST JUMPDEST PUSH1 0x20 DUP4 ADD SWAP3 POP PUSH1 0x20 DUP3 MUL CALLDATASIZE SUB DUP4 SGT ISZERO PUSH2 0x1CFE JUMPI PUSH2 0x1CFD PUSH2 0x1B08 JUMP JUMPDEST JUMPDEST POP SWAP3 POP SWAP3 SWAP1 POP JUMP JUMPDEST PUSH32 0x2166696E616C697A65645F686561646572000000000000000000000000000000 PUSH1 0x0 DUP3 ADD MSTORE POP JUMP JUMPDEST PUSH1 0x0 PUSH2 0x1D3C PUSH1 0x11 DUP4 PUSH2 0x1B35 JUMP JUMPDEST SWAP2 POP PUSH2 0x1D47 DUP3 PUSH2 0x1D06 JUMP JUMPDEST PUSH1 0x20 DUP3 ADD SWAP1 POP SWAP2 SWAP1 POP JUMP JUMPDEST PUSH1 0x0 PUSH1 0x20 DUP3 ADD SWAP1 POP DUP2 DUP2 SUB PUSH1 0x0 DUP4 ADD MSTORE PUSH2 0x1D6B DUP2 PUSH2 0x1D2F JUMP JUMPDEST SWAP1 POP SWAP2 SWAP1 POP JUMP JUMPDEST PUSH2 0x1D7B DUP2 PUSH2 0x18EA JUMP JUMPDEST DUP2 EQ PUSH2 0x1D86 JUMPI PUSH1 0x0 DUP1 REVERT JUMPDEST POP JUMP JUMPDEST PUSH1 0x0 DUP2 CALLDATALOAD SWAP1 POP PUSH2 0x1D98 DUP2 PUSH2 0x1D72 JUMP JUMPDEST SWAP3 SWAP2 POP POP JUMP JUMPDEST PUSH1 0x0 PUSH1 0x20 DUP3 DUP5 SUB SLT ISZERO PUSH2 0x1DB4 JUMPI PUSH2 0x1DB3 PUSH2 0x1A25 JUMP JUMPDEST JUMPDEST PUSH1 0x0 PUSH2 0x1DC2 DUP5 DUP3 DUP6 ADD PUSH2 0x1D89 JUMP JUMPDEST SWAP2 POP POP SWAP3 SWAP2 POP POP JUMP JUMPDEST PUSH32 0x4E487B7100000000000000000000000000000000000000000000000000000000 PUSH1 0x0 MSTORE PUSH1 0x11 PUSH1 0x4 MSTORE PUSH1 0x24 PUSH1 0x0 REVERT JUMPDEST PUSH1 0x0 PUSH2 0x1E05 DUP3 PUSH2 0x18EA JUMP JUMPDEST SWAP2 POP PUSH2 0x1E10 DUP4 PUSH2 0x18EA JUMP JUMPDEST SWAP3 POP DUP3 PUSH8 0xFFFFFFFFFFFFFFFF SUB DUP3 GT ISZERO PUSH2 0x1E2D JUMPI PUSH2 0x1E2C PUSH2 0x1DCB JUMP JUMPDEST JUMPDEST DUP3 DUP3 ADD SWAP1 POP SWAP3 SWAP2 POP POP JUMP JUMPDEST PUSH32 0x217369676E61747572655F706572696F64000000000000000000000000000000 PUSH1 0x0 DUP3 ADD MSTORE POP JUMP JUMPDEST PUSH1 0x0 PUSH2 0x1E6E PUSH1 0x11 DUP4 PUSH2 0x1B35 JUMP JUMPDEST SWAP2 POP PUSH2 0x1E79 DUP3 PUSH2 0x1E38 JUMP JUMPDEST PUSH1 0x20 DUP3 ADD SWAP1 POP SWAP2 SWAP1 POP JUMP JUMPDEST PUSH1 0x0 PUSH1 0x20 DUP3 ADD SWAP1 POP DUP2 DUP2 SUB PUSH1 0x0 DUP4 ADD MSTORE PUSH2 0x1E9D DUP2 PUSH2 0x1E61 JUMP JUMPDEST SWAP1 POP SWAP2 SWAP1 POP JUMP JUMPDEST PUSH1 0x0 DUP3 CALLDATALOAD PUSH1 0x1 PUSH1 0x40 SUB DUP4 CALLDATASIZE SUB SUB DUP2 SLT PUSH2 0x1EC0 JUMPI PUSH2 0x1EBF PUSH2 0x1AFE JUMP JUMPDEST JUMPDEST DUP1 DUP4 ADD SWAP2 POP POP SWAP3 SWAP2 POP POP JUMP JUMPDEST PUSH32 0x216E6578745F73796E635F636F6D6D6974746565000000000000000000000000 PUSH1 0x0 DUP3 ADD MSTORE POP JUMP JUMPDEST PUSH1 0x0 PUSH2 0x1F02 PUSH1 0x14 DUP4 PUSH2 0x1B35 JUMP JUMPDEST SWAP2 POP PUSH2 0x1F0D DUP3 PUSH2 0x1ECC JUMP JUMPDEST PUSH1 0x20 DUP3 ADD SWAP1 POP SWAP2 SWAP1 POP JUMP JUMPDEST PUSH1 0x0 PUSH1 0x20 DUP3 ADD SWAP1 POP DUP2 DUP2 SUB PUSH1 0x0 DUP4 ADD MSTORE PUSH2 0x1F31 DUP2 PUSH2 0x1EF5 JUMP JUMPDEST SWAP1 POP SWAP2 SWAP1 POP JUMP JUMPDEST PUSH32 0x4E487B7100000000000000000000000000000000000000000000000000000000 PUSH1 0x0 MSTORE PUSH1 0x0 PUSH1 0x4 MSTORE PUSH1 0x24 PUSH1 0x0 REVERT JUMPDEST PUSH1 0x0 DUP3 CALLDATALOAD PUSH1 0x1 PUSH2 0x4000 SUB DUP4 CALLDATASIZE SUB SUB DUP2 SLT PUSH2 0x1F84 JUMPI PUSH2 0x1F83 PUSH2 0x1AFE JUMP JUMPDEST JUMPDEST DUP1 DUP4 ADD SWAP2 POP POP SWAP3 SWAP2 POP POP JUMP JUMPDEST PUSH1 0x0 DUP2 SWAP1 POP SWAP2 SWAP1 POP JUMP JUMPDEST PUSH1 0x0 DUP1 DUP4 CALLDATALOAD PUSH1 0x1 PUSH1 0x20 SUB DUP5 CALLDATASIZE SUB SUB DUP2 SLT PUSH2 0x1FB7 JUMPI PUSH2 0x1FB6 PUSH2 0x1AFE JUMP JUMPDEST JUMPDEST DUP1 DUP5 ADD SWAP3 POP DUP3 CALLDATALOAD SWAP2 POP PUSH8 0xFFFFFFFFFFFFFFFF DUP3 GT ISZERO PUSH2 0x1FD9 JUMPI PUSH2 0x1FD8 PUSH2 0x1B03 JUMP JUMPDEST JUMPDEST PUSH1 0x20 DUP4 ADD SWAP3 POP PUSH1 0x1 DUP3 MUL CALLDATASIZE SUB DUP4 SGT ISZERO PUSH2 0x1FF5 JUMPI PUSH2 0x1FF4 PUSH2 0x1B08 JUMP JUMPDEST JUMPDEST POP SWAP3 POP SWAP3 SWAP1 POP JUMP JUMPDEST PUSH32 0x4E487B7100000000000000000000000000000000000000000000000000000000 PUSH1 0x0 MSTORE PUSH1 0x41 PUSH1 0x4 MSTORE PUSH1 0x24 PUSH1 0x0 REVERT JUMPDEST PUSH1 0x0 PUSH2 0x200 SWAP1 POP SWAP2 SWAP1 POP JUMP JUMPDEST PUSH1 0x0 DUP2 SWAP1 POP SWAP2 SWAP1 POP JUMP JUMPDEST PUSH1 0x0 PUSH2 0x204D DUP3 PUSH2 0x2038 JUMP JUMPDEST SWAP2 POP PUSH2 0x2058 DUP4 PUSH2 0x2038 JUMP JUMPDEST SWAP3 POP DUP2 PUSH32 0xFFFFFFFFFFFFFFFFFFFFFFFFFFFFFFFFFFFFFFFFFFFFFFFFFFFFFFFFFFFFFFFF DIV DUP4 GT DUP3 ISZERO ISZERO AND ISZERO PUSH2 0x2091 JUMPI PUSH2 0x2090 PUSH2 0x1DCB JUMP JUMPDEST JUMPDEST DUP3 DUP3 MUL SWAP1 POP SWAP3 SWAP2 POP POP JUMP JUMPDEST PUSH1 0x0 DUP2 SWAP1 POP PUSH1 0x1 DUP1 PUSH1 0x1 SUB DUP4 ADD DIV SWAP1 POP SWAP2 SWAP1 POP JUMP JUMPDEST PUSH1 0x0 DUP2 SWAP1 POP SWAP2 SWAP1 POP JUMP JUMPDEST PUSH1 0x0 DUP2 SWAP1 POP DUP2 PUSH1 0x0 MSTORE PUSH1 0x20 PUSH1 0x0 KECCAK256 SWAP1 POP SWAP2 SWAP1 POP JUMP JUMPDEST PUSH1 0x0 DUP3 DUP3 SHR SWAP1 POP SWAP3 SWAP2 POP POP JUMP JUMPDEST PUSH2 0x210D PUSH32 0xFFFFFFFFFFFFFFFFFFFFFFFFFFFFFFFFFFFFFFFFFFFFFFFFFFFFFFFFFFFFFFFF DUP4 PUSH1 0x20 SUB PUSH1 0x8 MUL PUSH2 0x20D0 JUMP JUMPDEST DUP2 SLOAD DUP2 AND DUP3 SSTORE POP POP POP JUMP JUMPDEST PUSH1 0x0 DUP3 DUP3 SHL SWAP1 POP SWAP3 SWAP2 POP POP JUMP JUMPDEST PUSH1 0x0 PUSH1 0x8 DUP4 MUL PUSH2 0x2155 PUSH32 0xFFFFFFFFFFFFFFFFFFFFFFFFFFFFFFFFFFFFFFFFFFFFFFFFFFFFFFFFFFFFFFFF DUP3 PUSH2 0x2118 JUMP JUMPDEST PUSH2 0x215F DUP7 DUP4 PUSH2 0x2118 JUMP JUMPDEST SWAP6 POP DUP1 NOT DUP5 AND SWAP4 POP DUP1 DUP7 AND DUP5 OR SWAP3 POP POP POP SWAP4 SWAP3 POP POP POP JUMP JUMPDEST PUSH1 0x0 DUP2 SWAP1 POP SWAP2 SWAP1 POP JUMP JUMPDEST PUSH1 0x0 PUSH2 0x219C PUSH2 0x2197 PUSH2 0x2192 DUP5 PUSH2 0x2038 JUMP JUMPDEST PUSH2 0x2177 JUMP JUMPDEST PUSH2 0x2038 JUMP JUMPDEST SWAP1 POP SWAP2 SWAP1 POP JUMP JUMPDEST PUSH1 0x0 DUP2 SWAP1 POP SWAP2 SWAP1 POP JUMP JUMPDEST PUSH2 0x21B6 DUP4 PUSH2 0x2181 JUMP JUMPDEST PUSH2 0x21CA PUSH2 0x21C2 DUP3 PUSH2 0x21A3 JUMP JUMPDEST DUP5 DUP5 SLOAD PUSH2 0x2125 JUMP JUMPDEST DUP3 SSTORE POP POP POP POP JUMP JUMPDEST PUSH1 0x0 SWAP1 JUMP JUMPDEST PUSH2 0x21DF PUSH2 0x21D2 JUMP JUMPDEST PUSH2 0x21EA DUP2 DUP5 DUP5 PUSH2 0x21AD JUMP JUMPDEST POP POP POP JUMP JUMPDEST JUMPDEST DUP2 DUP2 LT ISZERO PUSH2 0x220E JUMPI PUSH2 0x2203 PUSH1 0x0 DUP3 PUSH2 0x21D7 JUMP JUMPDEST PUSH1 0x1 DUP2 ADD SWAP1 POP PUSH2 0x21F0 JUMP JUMPDEST POP POP JUMP JUMPDEST PUSH1 0x0 PUSH2 0x2223 PUSH1 0x0 NOT DUP5 PUSH1 0x8 MUL PUSH2 0x20D0 JUMP JUMPDEST NOT DUP1 DUP4 AND SWAP2 POP POP SWAP3 SWAP2 POP POP JUMP JUMPDEST PUSH1 0x0 PUSH2 0x223C DUP4 DUP4 PUSH2 0x2212 JUMP JUMPDEST SWAP2 POP DUP3 PUSH1 0x2 MUL DUP3 OR SWAP1 POP SWAP3 SWAP2 POP POP JUMP JUMPDEST PUSH2 0x2255 DUP2 PUSH2 0x20BB JUMP JUMPDEST PUSH2 0x2260 DUP4 DUP3 SLOAD PUSH2 0x2230 JUMP JUMPDEST DUP1 DUP4 SSTORE PUSH1 0x0 DUP3 SSTORE POP POP POP POP JUMP JUMPDEST PUSH1 0x0 PUSH1 0x20 PUSH1 0x1F DUP4 ADD DIV SWAP1 POP SWAP2 SWAP1 POP JUMP JUMPDEST PUSH1 0x20 DUP5 LT PUSH1 0x0 DUP2 EQ PUSH2 0x22D8 JUMPI PUSH1 0x1F DUP5 GT PUSH1 0x1 DUP2 EQ PUSH2 0x22A6 JUMPI PUSH2 0x229F DUP7 DUP6 PUSH2 0x2230 JUMP JUMPDEST DUP4 SSTORE PUSH2 0x22D2 JUMP JUMPDEST PUSH2 0x22AF DUP4 PUSH2 0x20BB JUMP JUMPDEST PUSH2 0x22C6 PUSH2 0x22BB DUP8 PUSH2 0x226D JUMP JUMPDEST DUP3 ADD PUSH1 0x1 DUP4 ADD PUSH2 0x21EF JUMP JUMPDEST PUSH2 0x22D0 DUP8 DUP6 PUSH2 0x224C JUMP JUMPDEST POP JUMPDEST POP PUSH2 0x2325 JUMP JUMPDEST PUSH2 0x22E1 DUP3 PUSH2 0x20BB JUMP JUMPDEST PUSH2 0x22EA DUP7 PUSH2 0x226D JUMP JUMPDEST DUP2 ADD PUSH1 0x1F DUP8 AND DUP1 ISZERO PUSH2 0x2304 JUMPI PUSH2 0x2303 DUP2 PUSH1 0x1 DUP5 SUB PUSH2 0x20DD JUMP JUMPDEST JUMPDEST PUSH2 0x2318 PUSH2 0x2310 DUP9 PUSH2 0x226D JUMP JUMPDEST DUP5 ADD DUP4 PUSH2 0x21EF JUMP JUMPDEST PUSH1 0x1 DUP9 PUSH1 0x2 MUL OR DUP6 SSTORE POP POP POP JUMPDEST POP POP POP POP POP JUMP JUMPDEST PUSH9 0x10000000000000000 DUP5 GT ISZERO PUSH2 0x2346 JUMPI PUSH2 0x2345 PUSH2 0x1FFD JUMP JUMPDEST JUMPDEST PUSH1 0x20 DUP4 LT PUSH1 0x0 DUP2 EQ PUSH2 0x2391 JUMPI PUSH1 0x20 DUP6 LT PUSH1 0x0 DUP2 EQ PUSH2 0x236F JUMPI PUSH2 0x2368 DUP7 DUP6 PUSH2 0x2230 JUMP JUMPDEST DUP4 SSTORE PUSH2 0x238B JUMP JUMPDEST DUP4 PUSH1 0xFF NOT AND SWAP4 POP DUP4 PUSH2 0x2380 DUP5 PUSH2 0x20BB JUMP JUMPDEST SSTORE PUSH1 0x1 DUP7 PUSH1 0x2 MUL ADD DUP4 SSTORE JUMPDEST POP PUSH2 0x239B JUMP JUMPDEST PUSH1 0x1 DUP6 PUSH1 0x2 MUL ADD DUP3 SSTORE JUMPDEST POP POP POP POP POP JUMP JUMPDEST DUP1 SLOAD PUSH2 0x23AD DUP2 PUSH2 0x1ACC JUMP JUMPDEST DUP1 DUP5 GT ISZERO PUSH2 0x23C2 JUMPI PUSH2 0x23C1 DUP5 DUP3 DUP5 DUP7 PUSH2 0x232C JUMP JUMPDEST JUMPDEST DUP1 DUP5 LT ISZERO PUSH2 0x23D7 JUMPI PUSH2 0x23D6 DUP5 DUP3 DUP5 DUP7 PUSH2 0x227D JUMP JUMPDEST JUMPDEST POP POP POP POP JUMP JUMPDEST DUP2 DUP2 LT ISZERO PUSH2 0x23FB JUMPI PUSH2 0x23F0 PUSH1 0x0 DUP3 PUSH2 0x21D7 JUMP JUMPDEST PUSH1 0x1 DUP2 ADD SWAP1 POP PUSH2 0x23DD JUMP JUMPDEST POP POP JUMP JUMPDEST PUSH2 0x240A PUSH1 0x0 DUP3 PUSH2 0x23A2 JUMP JUMPDEST POP JUMP JUMPDEST PUSH1 0x0 DUP3 EQ PUSH2 0x241E JUMPI PUSH2 0x241D PUSH2 0x1F38 JUMP JUMPDEST JUMPDEST PUSH2 0x2427 DUP2 PUSH2 0x23FF JUMP JUMPDEST POP POP JUMP JUMPDEST JUMPDEST DUP2 DUP2 LT ISZERO PUSH2 0x244A JUMPI PUSH2 0x243F PUSH1 0x0 DUP3 PUSH2 0x240D JUMP JUMPDEST PUSH1 0x1 DUP2 ADD SWAP1 POP PUSH2 0x242C JUMP JUMPDEST POP POP JUMP JUMPDEST DUP2 DUP4 LT ISZERO PUSH2 0x2487 JUMPI PUSH2 0x245F DUP3 PUSH2 0x209C JUMP JUMPDEST PUSH2 0x2468 DUP5 PUSH2 0x209C JUMP JUMPDEST PUSH2 0x2471 DUP4 PUSH2 0x20B1 JUMP JUMPDEST DUP2 DUP2 ADD DUP4 DUP3 ADD PUSH2 0x2481 DUP2 DUP4 PUSH2 0x242B JUMP JUMPDEST POP POP POP POP POP JUMPDEST POP POP POP JUMP JUMPDEST PUSH9 0x10000000000000000 DUP3 GT ISZERO PUSH2 0x24A6 JUMPI PUSH2 0x24A5 PUSH2 0x1FFD JUMP JUMPDEST JUMPDEST PUSH2 0x24AF DUP2 PUSH2 0x202C JUMP JUMPDEST PUSH2 0x24BA DUP4 DUP3 DUP5 PUSH2 0x244E JUMP JUMPDEST POP POP POP JUMP JUMPDEST PUSH1 0x0 PUSH2 0x200 SWAP1 POP SWAP2 SWAP1 POP JUMP JUMPDEST PUSH1 0x0 DUP3 SWAP1 POP SWAP3 SWAP2 POP POP JUMP JUMPDEST PUSH1 0x1F DUP3 GT ISZERO PUSH2 0x2517 JUMPI PUSH2 0x24E8 DUP2 PUSH2 0x20BB JUMP JUMPDEST PUSH2 0x24F1 DUP5 PUSH2 0x226D JUMP JUMPDEST DUP2 ADD PUSH1 0x20 DUP6 LT ISZERO PUSH2 0x2500 JUMPI DUP2 SWAP1 POP JUMPDEST PUSH2 0x2514 PUSH2 0x250C DUP6 PUSH2 0x226D JUMP JUMPDEST DUP4 ADD DUP3 PUSH2 0x21EF JUMP JUMPDEST POP POP JUMPDEST POP POP POP JUMP JUMPDEST PUSH2 0x2526 DUP4 DUP4 PUSH2 0x24CB JUMP JUMPDEST PUSH8 0xFFFFFFFFFFFFFFFF DUP2 GT ISZERO PUSH2 0x253F JUMPI PUSH2 0x253E PUSH2 0x1FFD JUMP JUMPDEST JUMPDEST PUSH2 0x2549 DUP3 SLOAD PUSH2 0x1ACC JUMP JUMPDEST PUSH2 0x2554 DUP3 DUP3 DUP6 PUSH2 0x24D6 JUMP JUMPDEST PUSH1 0x0 PUSH1 0x1F DUP4 GT PUSH1 0x1 DUP2 EQ PUSH2 0x2583 JUMPI PUSH1 0x0 DUP5 ISZERO PUSH2 0x2571 JUMPI DUP3 DUP8 ADD CALLDATALOAD SWAP1 POP JUMPDEST PUSH2 0x257B DUP6 DUP3 PUSH2 0x2230 JUMP JUMPDEST DUP7 SSTORE POP PUSH2 0x25E3 JUMP JUMPDEST PUSH1 0x1F NOT DUP5 AND PUSH2 0x2591 DUP7 PUSH2 0x20BB JUMP JUMPDEST PUSH1 0x0 JUMPDEST DUP3 DUP2 LT ISZERO PUSH2 0x25B9 JUMPI DUP5 DUP10 ADD CALLDATALOAD DUP3 SSTORE PUSH1 0x1 DUP3 ADD SWAP2 POP PUSH1 0x20 DUP6 ADD SWAP5 POP PUSH1 0x20 DUP2 ADD SWAP1 POP PUSH2 0x2594 JUMP JUMPDEST DUP7 DUP4 LT ISZERO PUSH2 0x25D6 JUMPI DUP5 DUP10 ADD CALLDATALOAD PUSH2 0x25D2 PUSH1 0x1F DUP10 AND DUP3 PUSH2 0x2212 JUMP JUMPDEST DUP4 SSTORE POP JUMPDEST PUSH1 0x1 PUSH1 0x2 DUP9 MUL ADD DUP9 SSTORE POP POP POP JUMPDEST POP POP POP POP POP POP POP JUMP JUMPDEST DUP2 ISZERO PUSH2 0x25FB JUMPI PUSH2 0x25FA PUSH2 0x1F38 JUMP JUMPDEST JUMPDEST PUSH2 0x2606 DUP5 DUP5 DUP4 PUSH2 0x251C JUMP JUMPDEST POP POP POP POP JUMP JUMPDEST PUSH2 0x2615 DUP3 PUSH2 0x24BF JUMP JUMPDEST PUSH2 0x261F DUP2 DUP4 PUSH2 0x248C JUMP JUMPDEST PUSH2 0x2628 DUP4 PUSH2 0x1F90 JUMP JUMPDEST PUSH2 0x2631 DUP4 PUSH2 0x20B1 JUMP JUMPDEST PUSH1 0x0 DUP1 JUMPDEST DUP5 DUP2 LT ISZERO PUSH2 0x266C JUMPI PUSH2 0x2647 DUP5 DUP9 PUSH2 0x1F9A JUMP JUMPDEST PUSH2 0x2653 DUP2 DUP4 DUP7 DUP9 PUSH2 0x25EC JUMP JUMPDEST PUSH1 0x20 DUP7 ADD SWAP6 POP PUSH1 0x1 DUP6 ADD SWAP5 POP POP POP PUSH1 0x1 DUP2 ADD SWAP1 POP PUSH2 0x2635 JUMP JUMPDEST POP POP POP POP POP POP POP JUMP JUMPDEST PUSH2 0x267F DUP3 DUP3 PUSH2 0x260C JUMP JUMPDEST POP POP JUMP JUMPDEST PUSH2 0x268E DUP4 DUP4 DUP4 PUSH2 0x251C JUMP JUMPDEST POP POP POP JUMP JUMPDEST PUSH1 0x0 DUP2 ADD PUSH1 0x0 DUP4 ADD PUSH2 0x26A5 DUP2 DUP6 PUSH2 0x1F67 JUMP JUMPDEST PUSH2 0x26AF DUP2 DUP5 PUSH2 0x2675 JUMP JUMPDEST POP POP POP PUSH2 0x200 DUP2 ADD PUSH1 0x20 DUP4 ADD PUSH2 0x26C5 DUP2 DUP6 PUSH2 0x1F9A JUMP JUMPDEST PUSH2 0x26D0 DUP2 DUP4 DUP7 PUSH2 0x2683 JUMP JUMPDEST POP POP POP POP POP POP JUMP JUMPDEST PUSH2 0x26E2 DUP3 DUP3 PUSH2 0x2693 JUMP JUMPDEST POP POP JUMP JUMPDEST PUSH1 0x0 DUP2 CALLDATALOAD PUSH2 0x26F3 DUP2 PUSH2 0x1D72 JUMP JUMPDEST DUP1 SWAP2 POP POP SWAP2 SWAP1 POP JUMP JUMPDEST PUSH1 0x0 DUP2 PUSH1 0x0 SHL SWAP1 POP SWAP2 SWAP1 POP JUMP JUMPDEST PUSH1 0x0 PUSH8 0xFFFFFFFFFFFFFFFF PUSH2 0x271D DUP5 PUSH2 0x26FC JUMP JUMPDEST SWAP4 POP DUP1 NOT DUP4 AND SWAP3 POP DUP1 DUP5 AND DUP4 OR SWAP2 POP POP SWAP3 SWAP2 POP POP JUMP JUMPDEST PUSH1 0x0 PUSH2 0x274E PUSH2 0x2749 PUSH2 0x2744 DUP5 PUSH2 0x18EA JUMP JUMPDEST PUSH2 0x2177 JUMP JUMPDEST PUSH2 0x18EA JUMP JUMPDEST SWAP1 POP SWAP2 SWAP1 POP JUMP JUMPDEST PUSH1 0x0 DUP2 SWAP1 POP SWAP2 SWAP1 POP JUMP JUMPDEST PUSH2 0x2768 DUP3 PUSH2 0x2733 JUMP JUMPDEST PUSH2 0x277B PUSH2 0x2774 DUP3 PUSH2 0x2755 JUMP JUMPDEST DUP4 SLOAD PUSH2 0x2709 JUMP JUMPDEST DUP3 SSTORE POP POP POP JUMP JUMPDEST PUSH1 0x0 DUP2 PUSH1 0x40 SHL SWAP1 POP SWAP2 SWAP1 POP JUMP JUMPDEST PUSH1 0x0 PUSH16 0xFFFFFFFFFFFFFFFF0000000000000000 PUSH2 0x27AB DUP5 PUSH2 0x2782 JUMP JUMPDEST SWAP4 POP DUP1 NOT DUP4 AND SWAP3 POP DUP1 DUP5 AND DUP4 OR SWAP2 POP POP SWAP3 SWAP2 POP POP JUMP JUMPDEST PUSH2 0x27CA DUP3 PUSH2 0x2733 JUMP JUMPDEST PUSH2 0x27DD PUSH2 0x27D6 DUP3 PUSH2 0x2755 JUMP JUMPDEST DUP4 SLOAD PUSH2 0x278F JUMP JUMPDEST DUP3 SSTORE POP POP POP JUMP JUMPDEST PUSH2 0x27ED DUP2 PUSH2 0x18B6 JUMP JUMPDEST DUP2 EQ PUSH2 0x27F8 JUMPI PUSH1 0x0 DUP1 REVERT JUMPDEST POP JUMP JUMPDEST PUSH1 0x0 DUP2 CALLDATALOAD PUSH2 0x2808 DUP2 PUSH2 0x27E4 JUMP JUMPDEST DUP1 SWAP2 POP POP SWAP2 SWAP1 POP JUMP JUMPDEST PUSH1 0x0 PUSH32 0xFFFFFFFFFFFFFFFFFFFFFFFFFFFFFFFFFFFFFFFFFFFFFFFFFFFFFFFFFFFFFFFF PUSH2 0x283D DUP5 PUSH2 0x26FC JUMP JUMPDEST SWAP4 POP DUP1 NOT DUP4 AND SWAP3 POP DUP1 DUP5 AND DUP4 OR SWAP2 POP POP SWAP3 SWAP2 POP POP JUMP JUMPDEST PUSH1 0x0 PUSH2 0x285E DUP3 PUSH2 0x18B6 JUMP JUMPDEST SWAP1 POP SWAP2 SWAP1 POP JUMP JUMPDEST PUSH1 0x0 DUP2 PUSH1 0x0 SHR SWAP1 POP SWAP2 SWAP1 POP JUMP JUMPDEST PUSH1 0x0 PUSH2 0x287D DUP3 PUSH2 0x2865 JUMP JUMPDEST SWAP1 POP SWAP2 SWAP1 POP JUMP JUMPDEST PUSH2 0x288D DUP3 PUSH2 0x2853 JUMP JUMPDEST PUSH2 0x28A0 PUSH2 0x2899 DUP3 PUSH2 0x2872 JUMP JUMPDEST DUP4 SLOAD PUSH2 0x2811 JUMP JUMPDEST DUP3 SSTORE POP POP POP JUMP JUMPDEST PUSH1 0x0 DUP2 ADD PUSH1 0x0 DUP4 ADD DUP1 PUSH2 0x28B9 DUP2 PUSH2 0x26E6 JUMP JUMPDEST SWAP1 POP PUSH2 0x28C5 DUP2 DUP5 PUSH2 0x275F JUMP JUMPDEST POP POP POP PUSH1 0x0 DUP2 ADD PUSH1 0x20 DUP4 ADD DUP1 PUSH2 0x28DA DUP2 PUSH2 0x26E6 JUMP JUMPDEST SWAP1 POP PUSH2 0x28E6 DUP2 DUP5 PUSH2 0x27C1 JUMP JUMPDEST POP POP POP PUSH1 0x1 DUP2 ADD PUSH1 0x40 DUP4 ADD DUP1 PUSH2 0x28FB DUP2 PUSH2 0x27FB JUMP JUMPDEST SWAP1 POP PUSH2 0x2907 DUP2 DUP5 PUSH2 0x2884 JUMP JUMPDEST POP POP POP PUSH1 0x2 DUP2 ADD PUSH1 0x60 DUP4 ADD DUP1 PUSH2 0x291C DUP2 PUSH2 0x27FB JUMP JUMPDEST SWAP1 POP PUSH2 0x2928 DUP2 DUP5 PUSH2 0x2884 JUMP JUMPDEST POP POP POP PUSH1 0x3 DUP2 ADD PUSH1 0x80 DUP4 ADD DUP1 PUSH2 0x293D DUP2 PUSH2 0x27FB JUMP JUMPDEST SWAP1 POP PUSH2 0x2949 DUP2 DUP5 PUSH2 0x2884 JUMP JUMPDEST POP POP POP POP POP JUMP JUMPDEST PUSH2 0x295A DUP3 DUP3 PUSH2 0x28A7 JUMP JUMPDEST POP POP JUMP JUMPDEST PUSH1 0x0 PUSH2 0x2969 DUP3 PUSH2 0x18EA JUMP JUMPDEST SWAP2 POP PUSH2 0x2974 DUP4 PUSH2 0x18EA JUMP JUMPDEST SWAP3 POP DUP2 PUSH8 0xFFFFFFFFFFFFFFFF DIV DUP4 GT DUP3 ISZERO ISZERO AND ISZERO PUSH2 0x2995 JUMPI PUSH2 0x2994 PUSH2 0x1DCB JUMP JUMPDEST JUMPDEST DUP3 DUP3 MUL SWAP1 POP SWAP3 SWAP2 POP POP JUMP JUMPDEST PUSH32 0x4E487B7100000000000000000000000000000000000000000000000000000000 PUSH1 0x0 MSTORE PUSH1 0x12 PUSH1 0x4 MSTORE PUSH1 0x24 PUSH1 0x0 REVERT JUMPDEST PUSH1 0x0 PUSH2 0x29DA DUP3 PUSH2 0x18EA JUMP JUMPDEST SWAP2 POP PUSH2 0x29E5 DUP4 PUSH2 0x18EA JUMP JUMPDEST SWAP3 POP DUP3 PUSH2 0x29F5 JUMPI PUSH2 0x29F4 PUSH2 0x29A0 JUMP JUMPDEST JUMPDEST DUP3 DUP3 DIV SWAP1 POP SWAP3 SWAP2 POP POP JUMP JUMPDEST PUSH1 0x0 PUSH2 0x2A0B DUP3 PUSH2 0x18EA JUMP JUMPDEST SWAP2 POP PUSH2 0x2A16 DUP4 PUSH2 0x18EA JUMP JUMPDEST SWAP3 POP DUP3 PUSH2 0x2A26 JUMPI PUSH2 0x2A25 PUSH2 0x29A0 JUMP JUMPDEST JUMPDEST DUP3 DUP3 MOD SWAP1 POP SWAP3 SWAP2 POP POP JUMP JUMPDEST PUSH32 0x4E487B7100000000000000000000000000000000000000000000000000000000 PUSH1 0x0 MSTORE PUSH1 0x32 PUSH1 0x4 MSTORE PUSH1 0x24 PUSH1 0x0 REVERT JUMPDEST PUSH1 0x0 PUSH2 0x2A6B DUP3 PUSH2 0x18EA JUMP JUMPDEST SWAP2 POP PUSH8 0xFFFFFFFFFFFFFFFF DUP3 EQ ISZERO PUSH2 0x2A86 JUMPI PUSH2 0x2A85 PUSH2 0x1DCB JUMP JUMPDEST JUMPDEST PUSH1 0x1 DUP3 ADD SWAP1 POP SWAP2 SWAP1 POP JUMP JUMPDEST PUSH1 0x0 DUP1 REVERT JUMPDEST PUSH2 0x2A9F DUP3 PUSH2 0x19AF JUMP JUMPDEST DUP2 ADD DUP2 DUP2 LT PUSH8 0xFFFFFFFFFFFFFFFF DUP3 GT OR ISZERO PUSH2 0x2ABE JUMPI PUSH2 0x2ABD PUSH2 0x1FFD JUMP JUMPDEST JUMPDEST DUP1 PUSH1 0x40 MSTORE POP POP POP JUMP JUMPDEST PUSH1 0x0 PUSH2 0x2AD1 PUSH2 0x1A1B JUMP JUMPDEST SWAP1 POP PUSH2 0x2ADD DUP3 DUP3 PUSH2 0x2A96 JUMP JUMPDEST SWAP2 SWAP1 POP JUMP JUMPDEST PUSH1 0x0 DUP1 REVERT JUMPDEST PUSH1 0x0 DUP2 CALLDATALOAD SWAP1 POP PUSH2 0x2AF6 DUP2 PUSH2 0x27E4 JUMP JUMPDEST SWAP3 SWAP2 POP POP JUMP JUMPDEST PUSH1 0x0 PUSH1 0xA0 DUP3 DUP5 SUB SLT ISZERO PUSH2 0x2B12 JUMPI PUSH2 0x2B11 PUSH2 0x2A91 JUMP JUMPDEST JUMPDEST PUSH2 0x2B1C PUSH1 0xA0 PUSH2 0x2AC7 JUMP JUMPDEST SWAP1 POP PUSH1 0x0 PUSH2 0x2B2C DUP5 DUP3 DUP6 ADD PUSH2 0x1D89 JUMP JUMPDEST PUSH1 0x0 DUP4 ADD MSTORE POP PUSH1 0x20 PUSH2 0x2B40 DUP5 DUP3 DUP6 ADD PUSH2 0x1D89 JUMP JUMPDEST PUSH1 0x20 DUP4 ADD MSTORE POP PUSH1 0x40 PUSH2 0x2B54 DUP5 DUP3 DUP6 ADD PUSH2 0x2AE7 JUMP JUMPDEST PUSH1 0x40 DUP4 ADD MSTORE POP PUSH1 0x60 PUSH2 0x2B68 DUP5 DUP3 DUP6 ADD PUSH2 0x2AE7 JUMP JUMPDEST PUSH1 0x60 DUP4 ADD MSTORE POP PUSH1 0x80 PUSH2 0x2B7C DUP5 DUP3 DUP6 ADD PUSH2 0x2AE7 JUMP JUMPDEST PUSH1 0x80 DUP4 ADD MSTORE POP SWAP3 SWAP2 POP POP JUMP JUMPDEST PUSH1 0x0 PUSH1 0xA0 DUP3 DUP5 SUB SLT ISZERO PUSH2 0x2B9E JUMPI PUSH2 0x2B9D PUSH2 0x1A25 JUMP JUMPDEST JUMPDEST PUSH1 0x0 PUSH2 0x2BAC DUP5 DUP3 DUP6 ADD PUSH2 0x2AFC JUMP JUMPDEST SWAP2 POP POP SWAP3 SWAP2 POP POP JUMP JUMPDEST PUSH1 0x0 DUP2 SWAP1 POP SWAP2 SWAP1 POP JUMP JUMPDEST PUSH2 0x2BD0 PUSH2 0x2BCB DUP3 PUSH2 0x18B6 JUMP JUMPDEST PUSH2 0x2BB5 JUMP JUMPDEST DUP3 MSTORE POP POP JUMP JUMPDEST PUSH1 0x0 PUSH2 0x2BE2 DUP3 DUP5 PUSH2 0x2BBF JUMP JUMPDEST PUSH1 0x20 DUP3 ADD SWAP2 POP DUP2 SWAP1 POP SWAP3 SWAP2 POP POP JUMP JUMPDEST PUSH32 0x217369676E617475726500000000000000000000000000000000000000000000 PUSH1 0x0 DUP3 ADD MSTORE POP JUMP JUMPDEST PUSH1 0x0 PUSH2 0x2C27 PUSH1 0xA DUP4 PUSH2 0x1B35 JUMP JUMPDEST SWAP2 POP PUSH2 0x2C32 DUP3 PUSH2 0x2BF1 JUMP JUMPDEST PUSH1 0x20 DUP3 ADD SWAP1 POP SWAP2 SWAP1 POP JUMP JUMPDEST PUSH1 0x0 PUSH1 0x20 DUP3 ADD SWAP1 POP DUP2 DUP2 SUB PUSH1 0x0 DUP4 ADD MSTORE PUSH2 0x2C56 DUP2 PUSH2 0x2C1A JUMP JUMPDEST SWAP1 POP SWAP2 SWAP1 POP JUMP JUMPDEST PUSH32 0x2166696E616C6974795F6272616E636800000000000000000000000000000000 PUSH1 0x0 DUP3 ADD MSTORE POP JUMP JUMPDEST PUSH1 0x0 PUSH2 0x2C93 PUSH1 0x10 DUP4 PUSH2 0x1B35 JUMP JUMPDEST SWAP2 POP PUSH2 0x2C9E DUP3 PUSH2 0x2C5D JUMP JUMPDEST PUSH1 0x20 DUP3 ADD SWAP1 POP SWAP2 SWAP1 POP JUMP JUMPDEST PUSH1 0x0 PUSH1 0x20 DUP3 ADD SWAP1 POP DUP2 DUP2 SUB PUSH1 0x0 DUP4 ADD MSTORE PUSH2 0x2CC2 DUP2 PUSH2 0x2C86 JUMP JUMPDEST SWAP1 POP SWAP2 SWAP1 POP JUMP JUMPDEST PUSH32 0x216E6578745F73796E635F636F6D6D69747465655F6272616E63680000000000 PUSH1 0x0 DUP3 ADD MSTORE POP JUMP JUMPDEST PUSH1 0x0 PUSH2 0x2CFF PUSH1 0x1B DUP4 PUSH2 0x1B35 JUMP JUMPDEST SWAP2 POP PUSH2 0x2D0A DUP3 PUSH2 0x2CC9 JUMP JUMPDEST PUSH1 0x20 DUP3 ADD SWAP1 POP SWAP2 SWAP1 POP JUMP JUMPDEST PUSH1 0x0 PUSH1 0x20 DUP3 ADD SWAP1 POP DUP2 DUP2 SUB PUSH1 0x0 DUP4 ADD MSTORE PUSH2 0x2D2E DUP2 PUSH2 0x2CF2 JUMP JUMPDEST SWAP1 POP SWAP2 SWAP1 POP JUMP JUMPDEST PUSH1 0x0 DUP1 REVERT JUMPDEST PUSH1 0x0 PUSH8 0xFFFFFFFFFFFFFFFF DUP3 GT ISZERO PUSH2 0x2D55 JUMPI PUSH2 0x2D54 PUSH2 0x1FFD JUMP JUMPDEST JUMPDEST PUSH1 0x20 DUP3 MUL SWAP1 POP SWAP2 SWAP1 POP JUMP JUMPDEST PUSH1 0x0 DUP1 REVERT JUMPDEST PUSH1 0x0 DUP1 REVERT JUMPDEST PUSH1 0x0 PUSH8 0xFFFFFFFFFFFFFFFF DUP3 GT ISZERO PUSH2 0x2D85 JUMPI PUSH2 0x2D84 PUSH2 0x1FFD JUMP JUMPDEST JUMPDEST PUSH2 0x2D8E DUP3 PUSH2 0x19AF JUMP JUMPDEST SWAP1 POP PUSH1 0x20 DUP2 ADD SWAP1 POP SWAP2 SWAP1 POP JUMP JUMPDEST DUP3 DUP2 DUP4 CALLDATACOPY PUSH1 0x0 DUP4 DUP4 ADD MSTORE POP POP POP JUMP JUMPDEST PUSH1 0x0 PUSH2 0x2DBD PUSH2 0x2DB8 DUP5 PUSH2 0x2D6A JUMP JUMPDEST PUSH2 0x2AC7 JUMP JUMPDEST SWAP1 POP DUP3 DUP2 MSTORE PUSH1 0x20 DUP2 ADD DUP5 DUP5 DUP5 ADD GT ISZERO PUSH2 0x2DD9 JUMPI PUSH2 0x2DD8 PUSH2 0x2D65 JUMP JUMPDEST JUMPDEST PUSH2 0x2DE4 DUP5 DUP3 DUP6 PUSH2 0x2D9B JUMP JUMPDEST POP SWAP4 SWAP3 POP POP POP JUMP JUMPDEST PUSH1 0x0 DUP3 PUSH1 0x1F DUP4 ADD SLT PUSH2 0x2E01 JUMPI PUSH2 0x2E00 PUSH2 0x2D35 JUMP JUMPDEST JUMPDEST DUP2 CALLDATALOAD PUSH2 0x2E11 DUP5 DUP3 PUSH1 0x20 DUP7 ADD PUSH2 0x2DAA JUMP JUMPDEST SWAP2 POP POP SWAP3 SWAP2 POP POP JUMP JUMPDEST PUSH1 0x0 PUSH2 0x2E2D PUSH2 0x2E28 DUP5 PUSH2 0x2D3A JUMP JUMPDEST PUSH2 0x2AC7 JUMP JUMPDEST SWAP1 POP DUP1 PUSH1 0x20 DUP5 MUL DUP4 ADD DUP6 DUP2 GT ISZERO PUSH2 0x2E47 JUMPI PUSH2 0x2E46 PUSH2 0x2D60 JUMP JUMPDEST JUMPDEST DUP4 JUMPDEST DUP2 DUP2 LT ISZERO PUSH2 0x2E8E JUMPI DUP1 CALLDATALOAD PUSH8 0xFFFFFFFFFFFFFFFF DUP2 GT ISZERO PUSH2 0x2E6C JUMPI PUSH2 0x2E6B PUSH2 0x2D35 JUMP JUMPDEST JUMPDEST DUP1 DUP7 ADD PUSH2 0x2E79 DUP10 DUP3 PUSH2 0x2DEC JUMP JUMPDEST DUP6 MSTORE PUSH1 0x20 DUP6 ADD SWAP5 POP POP POP PUSH1 0x20 DUP2 ADD SWAP1 POP PUSH2 0x2E49 JUMP JUMPDEST POP POP POP SWAP4 SWAP3 POP POP POP JUMP JUMPDEST PUSH1 0x0 DUP3 PUSH1 0x1F DUP4 ADD SLT PUSH2 0x2EAD JUMPI PUSH2 0x2EAC PUSH2 0x2D35 JUMP JUMPDEST JUMPDEST PUSH2 0x200 PUSH2 0x2EBB DUP5 DUP3 DUP6 PUSH2 0x2E1A JUMP JUMPDEST SWAP2 POP POP SWAP3 SWAP2 POP POP JUMP JUMPDEST PUSH1 0x0 PUSH1 0x40 DUP3 DUP5 SUB SLT ISZERO PUSH2 0x2EDA JUMPI PUSH2 0x2ED9 PUSH2 0x2A91 JUMP JUMPDEST JUMPDEST PUSH2 0x2EE4 PUSH1 0x40 PUSH2 0x2AC7 JUMP JUMPDEST SWAP1 POP PUSH1 0x0 DUP3 ADD CALLDATALOAD PUSH8 0xFFFFFFFFFFFFFFFF DUP2 GT ISZERO PUSH2 0x2F04 JUMPI PUSH2 0x2F03 PUSH2 0x2AE2 JUMP JUMPDEST JUMPDEST PUSH2 0x2F10 DUP5 DUP3 DUP6 ADD PUSH2 0x2E98 JUMP JUMPDEST PUSH1 0x0 DUP4 ADD MSTORE POP PUSH1 0x20 DUP3 ADD CALLDATALOAD PUSH8 0xFFFFFFFFFFFFFFFF DUP2 GT ISZERO PUSH2 0x2F34 JUMPI PUSH2 0x2F33 PUSH2 0x2AE2 JUMP JUMPDEST JUMPDEST PUSH2 0x2F40 DUP5 DUP3 DUP6 ADD PUSH2 0x2DEC JUMP JUMPDEST PUSH1 0x20 DUP4 ADD MSTORE POP SWAP3 SWAP2 POP POP JUMP JUMPDEST PUSH1 0x0 PUSH2 0x2F58 CALLDATASIZE DUP4 PUSH2 0x2EC4 JUMP JUMPDEST SWAP1 POP SWAP2 SWAP1 POP JUMP JUMPDEST PUSH1 0x0 DUP2 MLOAD SWAP1 POP SWAP2 SWAP1 POP JUMP JUMPDEST PUSH1 0x0 DUP3 DUP3 MSTORE PUSH1 0x20 DUP3 ADD SWAP1 POP SWAP3 SWAP2 POP POP JUMP JUMPDEST PUSH1 0x0 DUP2 SWAP1 POP PUSH1 0x20 DUP3 ADD SWAP1 POP SWAP2 SWAP1 POP JUMP JUMPDEST PUSH1 0x0 DUP3 DUP3 MSTORE PUSH1 0x20 DUP3 ADD SWAP1 POP SWAP3 SWAP2 POP POP JUMP JUMPDEST PUSH1 0x0 PUSH2 0x2FA7 DUP3 PUSH2 0x1960 JUMP JUMPDEST PUSH2 0x2FB1 DUP2 DUP6 PUSH2 0x2F8B JUMP JUMPDEST SWAP4 POP PUSH2 0x2FC1 DUP2 DUP6 PUSH1 0x20 DUP7 ADD PUSH2 0x197C JUMP JUMPDEST PUSH2 0x2FCA DUP2 PUSH2 0x19AF JUMP JUMPDEST DUP5 ADD SWAP2 POP POP SWAP3 SWAP2 POP POP JUMP JUMPDEST PUSH1 0x0 PUSH2 0x2FE1 DUP4 DUP4 PUSH2 0x2F9C JUMP JUMPDEST SWAP1 POP SWAP3 SWAP2 POP POP JUMP JUMPDEST PUSH1 0x0 PUSH1 0x20 DUP3 ADD SWAP1 POP SWAP2 SWAP1 POP JUMP JUMPDEST PUSH1 0x0 PUSH2 0x3001 DUP3 PUSH2 0x2F5F JUMP JUMPDEST PUSH2 0x300B DUP2 DUP6 PUSH2 0x2F6A JUMP JUMPDEST SWAP4 POP DUP4 PUSH1 0x20 DUP3 MUL DUP6 ADD PUSH2 0x301D DUP6 PUSH2 0x2F7B JUMP JUMPDEST DUP1 PUSH1 0x0 JUMPDEST DUP6 DUP2 LT ISZERO PUSH2 0x3059 JUMPI DUP5 DUP5 SUB DUP10 MSTORE DUP2 MLOAD PUSH2 0x303A DUP6 DUP3 PUSH2 0x2FD5 JUMP JUMPDEST SWAP5 POP PUSH2 0x3045 DUP4 PUSH2 0x2FE9 JUMP JUMPDEST SWAP3 POP PUSH1 0x20 DUP11 ADD SWAP10 POP POP PUSH1 0x1 DUP2 ADD SWAP1 POP PUSH2 0x3021 JUMP JUMPDEST POP DUP3 SWAP8 POP DUP8 SWAP6 POP POP POP POP POP POP SWAP3 SWAP2 POP POP JUMP JUMPDEST PUSH1 0x0 PUSH1 0x60 DUP3 ADD SWAP1 POP DUP2 DUP2 SUB PUSH1 0x0 DUP4 ADD MSTORE PUSH2 0x3085 DUP2 DUP7 PUSH2 0x2FF6 JUMP JUMPDEST SWAP1 POP DUP2 DUP2 SUB PUSH1 0x20 DUP4 ADD MSTORE PUSH2 0x3099 DUP2 DUP6 PUSH2 0x19C0 JUMP JUMPDEST SWAP1 POP DUP2 DUP2 SUB PUSH1 0x40 DUP4 ADD MSTORE PUSH2 0x30AD DUP2 DUP5 PUSH2 0x19C0 JUMP JUMPDEST SWAP1 POP SWAP5 SWAP4 POP POP POP POP JUMP JUMPDEST PUSH1 0x0 DUP2 SWAP1 POP SWAP3 SWAP2 POP POP JUMP JUMPDEST PUSH1 0x0 PUSH2 0x30CD DUP3 PUSH2 0x1960 JUMP JUMPDEST PUSH2 0x30D7 DUP2 DUP6 PUSH2 0x30B7 JUMP JUMPDEST SWAP4 POP PUSH2 0x30E7 DUP2 DUP6 PUSH1 0x20 DUP7 ADD PUSH2 0x197C JUMP JUMPDEST DUP1 DUP5 ADD SWAP2 POP POP SWAP3 SWAP2 POP POP JUMP JUMPDEST PUSH1 0x0 PUSH2 0x30FF DUP3 DUP5 PUSH2 0x30C2 JUMP JUMPDEST SWAP2 POP DUP2 SWAP1 POP SWAP3 SWAP2 POP POP JUMP JUMPDEST PUSH1 0x0 DUP2 ISZERO ISZERO SWAP1 POP SWAP2 SWAP1 POP JUMP JUMPDEST PUSH2 0x311F DUP2 PUSH2 0x310A JUMP JUMPDEST DUP2 EQ PUSH2 0x312A JUMPI PUSH1 0x0 DUP1 REVERT JUMPDEST POP JUMP JUMPDEST PUSH1 0x0 DUP2 MLOAD SWAP1 POP PUSH2 0x313C DUP2 PUSH2 0x3116 JUMP JUMPDEST SWAP3 SWAP2 POP POP JUMP JUMPDEST PUSH1 0x0 PUSH1 0x20 DUP3 DUP5 SUB SLT ISZERO PUSH2 0x3158 JUMPI PUSH2 0x3157 PUSH2 0x1A25 JUMP JUMPDEST JUMPDEST PUSH1 0x0 PUSH2 0x3166 DUP5 DUP3 DUP6 ADD PUSH2 0x312D JUMP JUMPDEST SWAP2 POP POP SWAP3 SWAP2 POP POP JUMP JUMPDEST PUSH32 0x2176657269667900000000000000000000000000000000000000000000000000 PUSH1 0x0 DUP3 ADD MSTORE POP JUMP JUMPDEST PUSH1 0x0 PUSH2 0x31A5 PUSH1 0x7 DUP4 PUSH2 0x1B35 JUMP JUMPDEST SWAP2 POP PUSH2 0x31B0 DUP3 PUSH2 0x316F JUMP JUMPDEST PUSH1 0x20 DUP3 ADD SWAP1 POP SWAP2 SWAP1 POP JUMP JUMPDEST PUSH1 0x0 PUSH1 0x20 DUP3 ADD SWAP1 POP DUP2 DUP2 SUB PUSH1 0x0 DUP4 ADD MSTORE PUSH2 0x31D4 DUP2 PUSH2 0x3198 JUMP JUMPDEST SWAP1 POP SWAP2 SWAP1 POP JUMP JUMPDEST PUSH1 0x0 DUP2 PUSH1 0x1 SHR SWAP1 POP SWAP2 SWAP1 POP JUMP JUMPDEST PUSH1 0x0 DUP1 DUP3 SWAP2 POP DUP4 SWAP1 POP JUMPDEST PUSH1 0x1 DUP6 GT ISZERO PUSH2 0x3232 JUMPI DUP1 DUP7 DIV DUP2 GT ISZERO PUSH2 0x320E JUMPI PUSH2 0x320D PUSH2 0x1DCB JUMP JUMPDEST JUMPDEST PUSH1 0x1 DUP6 AND ISZERO PUSH2 0x321D JUMPI DUP1 DUP3 MUL SWAP2 POP JUMPDEST DUP1 DUP2 MUL SWAP1 POP PUSH2 0x322B DUP6 PUSH2 0x31DB JUMP JUMPDEST SWAP5 POP PUSH2 0x31F2 JUMP JUMPDEST SWAP5 POP SWAP5 SWAP3 POP POP POP JUMP JUMPDEST PUSH1 0x0 DUP3 PUSH2 0x324B JUMPI PUSH1 0x1 SWAP1 POP PUSH2 0x3307 JUMP JUMPDEST DUP2 PUSH2 0x3259 JUMPI PUSH1 0x0 SWAP1 POP PUSH2 0x3307 JUMP JUMPDEST DUP2 PUSH1 0x1 DUP2 EQ PUSH2 0x326F JUMPI PUSH1 0x2 DUP2 EQ PUSH2 0x3279 JUMPI PUSH2 0x32A8 JUMP JUMPDEST PUSH1 0x1 SWAP2 POP POP PUSH2 0x3307 JUMP JUMPDEST PUSH1 0xFF DUP5 GT ISZERO PUSH2 0x328B JUMPI PUSH2 0x328A PUSH2 0x1DCB JUMP JUMPDEST JUMPDEST DUP4 PUSH1 0x2 EXP SWAP2 POP DUP5 DUP3 GT ISZERO PUSH2 0x32A2 JUMPI PUSH2 0x32A1 PUSH2 0x1DCB JUMP JUMPDEST JUMPDEST POP PUSH2 0x3307 JUMP JUMPDEST POP PUSH1 0x20 DUP4 LT PUSH2 0x133 DUP4 LT AND PUSH1 0x4E DUP5 LT PUSH1 0xB DUP5 LT AND OR ISZERO PUSH2 0x32DD JUMPI DUP3 DUP3 EXP SWAP1 POP DUP4 DUP2 GT ISZERO PUSH2 0x32D8 JUMPI PUSH2 0x32D7 PUSH2 0x1DCB JUMP JUMPDEST JUMPDEST PUSH2 0x3307 JUMP JUMPDEST PUSH2 0x32EA DUP5 DUP5 DUP5 PUSH1 0x1 PUSH2 0x31E8 JUMP JUMPDEST SWAP3 POP SWAP1 POP DUP2 DUP5 DIV DUP2 GT ISZERO PUSH2 0x3301 JUMPI PUSH2 0x3300 PUSH2 0x1DCB JUMP JUMPDEST JUMPDEST DUP2 DUP2 MUL SWAP1 POP JUMPDEST SWAP4 SWAP3 POP POP POP JUMP JUMPDEST PUSH1 0x0 PUSH2 0x3319 DUP3 PUSH2 0x2038 JUMP JUMPDEST SWAP2 POP PUSH2 0x3324 DUP4 PUSH2 0x2038 JUMP JUMPDEST SWAP3 POP PUSH2 0x3351 PUSH32 0xFFFFFFFFFFFFFFFFFFFFFFFFFFFFFFFFFFFFFFFFFFFFFFFFFFFFFFFFFFFFFFFF DUP5 DUP5 PUSH2 0x323B JUMP JUMPDEST SWAP1 POP SWAP3 SWAP2 POP POP JUMP JUMPDEST PUSH1 0x0 PUSH2 0x3364 DUP3 PUSH2 0x2038 JUMP JUMPDEST SWAP2 POP PUSH2 0x336F DUP4 PUSH2 0x2038 JUMP JUMPDEST SWAP3 POP DUP3 PUSH2 0x337F JUMPI PUSH2 0x337E PUSH2 0x29A0 JUMP JUMPDEST JUMPDEST DUP3 DUP3 DIV SWAP1 POP SWAP3 SWAP2 POP POP JUMP JUMPDEST PUSH1 0x0 PUSH2 0x3395 DUP3 PUSH2 0x2038 JUMP JUMPDEST SWAP2 POP PUSH2 0x33A0 DUP4 PUSH2 0x2038 JUMP JUMPDEST SWAP3 POP DUP3 PUSH2 0x33B0 JUMPI PUSH2 0x33AF PUSH2 0x29A0 JUMP JUMPDEST JUMPDEST DUP3 DUP3 MOD SWAP1 POP SWAP3 SWAP2 POP POP JUMP JUMPDEST PUSH1 0x0 PUSH2 0x33C6 DUP3 PUSH2 0x2038 JUMP JUMPDEST SWAP2 POP PUSH32 0xFFFFFFFFFFFFFFFFFFFFFFFFFFFFFFFFFFFFFFFFFFFFFFFFFFFFFFFFFFFFFFFF DUP3 EQ ISZERO PUSH2 0x33F9 JUMPI PUSH2 0x33F8 PUSH2 0x1DCB JUMP JUMPDEST JUMPDEST PUSH1 0x1 DUP3 ADD SWAP1 POP SWAP2 SWAP1 POP JUMP JUMPDEST PUSH32 0x216B657900000000000000000000000000000000000000000000000000000000 PUSH1 0x0 DUP3 ADD MSTORE POP JUMP JUMPDEST PUSH1 0x0 PUSH2 0x343A PUSH1 0x4 DUP4 PUSH2 0x1B35 JUMP JUMPDEST SWAP2 POP PUSH2 0x3445 DUP3 PUSH2 0x3404 JUMP JUMPDEST PUSH1 0x20 DUP3 ADD SWAP1 POP SWAP2 SWAP1 POP JUMP JUMPDEST PUSH1 0x0 PUSH1 0x20 DUP3 ADD SWAP1 POP DUP2 DUP2 SUB PUSH1 0x0 DUP4 ADD MSTORE PUSH2 0x3469 DUP2 PUSH2 0x342D JUMP JUMPDEST SWAP1 POP SWAP2 SWAP1 POP JUMP JUMPDEST PUSH1 0x0 PUSH32 0xFFFFFFFFFFFFFFFFFFFFFFFFFFFFFFFF00000000000000000000000000000000 DUP3 AND SWAP1 POP SWAP2 SWAP1 POP JUMP JUMPDEST PUSH1 0x0 DUP2 SWAP1 POP SWAP2 SWAP1 POP JUMP JUMPDEST PUSH2 0x34B7 PUSH2 0x34B2 DUP3 PUSH2 0x3470 JUMP JUMPDEST PUSH2 0x349C JUMP JUMPDEST DUP3 MSTORE POP POP JUMP JUMPDEST PUSH1 0x0 PUSH2 0x34C9 DUP3 DUP6 PUSH2 0x30C2 JUMP JUMPDEST SWAP2 POP PUSH2 0x34D5 DUP3 DUP5 PUSH2 0x34A6 JUMP JUMPDEST PUSH1 0x10 DUP3 ADD SWAP2 POP DUP2 SWAP1 POP SWAP4 SWAP3 POP POP POP JUMP JUMPDEST PUSH32 0x216167675F6B6579000000000000000000000000000000000000000000000000 PUSH1 0x0 DUP3 ADD MSTORE POP JUMP JUMPDEST PUSH1 0x0 PUSH2 0x351B PUSH1 0x8 DUP4 PUSH2 0x1B35 JUMP JUMPDEST SWAP2 POP PUSH2 0x3526 DUP3 PUSH2 0x34E5 JUMP JUMPDEST PUSH1 0x20 DUP3 ADD SWAP1 POP SWAP2 SWAP1 POP JUMP JUMPDEST PUSH1 0x0 PUSH1 0x20 DUP3 ADD SWAP1 POP DUP2 DUP2 SUB PUSH1 0x0 DUP4 ADD MSTORE PUSH2 0x354A DUP2 PUSH2 0x350E JUMP JUMPDEST SWAP1 POP SWAP2 SWAP1 POP JUMP JUMPDEST PUSH1 0x0 PUSH2 0x355C DUP3 PUSH2 0x2038 JUMP JUMPDEST SWAP2 POP PUSH2 0x3567 DUP4 PUSH2 0x2038 JUMP JUMPDEST SWAP3 POP DUP3 PUSH32 0xFFFFFFFFFFFFFFFFFFFFFFFFFFFFFFFFFFFFFFFFFFFFFFFFFFFFFFFFFFFFFFFF SUB DUP3 GT ISZERO PUSH2 0x359C JUMPI PUSH2 0x359B PUSH2 0x1DCB JUMP JUMPDEST JUMPDEST DUP3 DUP3 ADD SWAP1 POP SWAP3 SWAP2 POP POP JUMP JUMPDEST PUSH1 0x0 PUSH2 0x35B2 DUP3 PUSH2 0x2038 JUMP JUMPDEST SWAP2 POP PUSH2 0x35BD DUP4 PUSH2 0x2038 JUMP JUMPDEST SWAP3 POP DUP3 DUP3 LT ISZERO PUSH2 0x35D0 JUMPI PUSH2 0x35CF PUSH2 0x1DCB JUMP JUMPDEST JUMPDEST DUP3 DUP3 SUB SWAP1 POP SWAP3 SWAP2 POP POP JUMP JUMPDEST PUSH1 0x0 PUSH2 0x35E6 DUP3 PUSH2 0x2038 JUMP JUMPDEST SWAP2 POP PUSH1 0x0 DUP3 EQ ISZERO PUSH2 0x35FA JUMPI PUSH2 0x35F9 PUSH2 0x1DCB JUMP JUMPDEST JUMPDEST PUSH1 0x1 DUP3 SUB SWAP1 POP SWAP2 SWAP1 POP JUMP JUMPDEST PUSH1 0x0 PUSH2 0x3611 DUP3 DUP6 PUSH2 0x2BBF JUMP JUMPDEST PUSH1 0x20 DUP3 ADD SWAP2 POP PUSH2 0x3621 DUP3 DUP5 PUSH2 0x2BBF JUMP JUMPDEST PUSH1 0x20 DUP3 ADD SWAP2 POP DUP2 SWAP1 POP SWAP4 SWAP3 POP POP POP JUMP JUMPDEST PUSH1 0x0 DUP2 MLOAD SWAP1 POP PUSH2 0x3640 DUP2 PUSH2 0x27E4 JUMP JUMPDEST SWAP3 SWAP2 POP POP JUMP JUMPDEST PUSH1 0x0 PUSH1 0x20 DUP3 DUP5 SUB SLT ISZERO PUSH2 0x365C JUMPI PUSH2 0x365B PUSH2 0x1A25 JUMP JUMPDEST JUMPDEST PUSH1 0x0 PUSH2 0x366A DUP5 DUP3 DUP6 ADD PUSH2 0x3631 JUMP JUMPDEST SWAP2 POP POP SWAP3 SWAP2 POP POP JUMP INVALID LOG2 PUSH5 0x6970667358 0x22 SLT KECCAK256 0xCA 0xE5 DUP11 ADDRESS PUSH1 0x16 0x4D 0xC3 SELFDESTRUCT 0xCA PUSH26 0x7FD7DA13D239D33384270ECA3D693E9551B4BF96564736F6C63 NUMBER STOP ADDMOD MULMOD STOP CALLER "
        },
        "methodIdentifiers": {
          "GENESIS_VALIDATORS_ROOT()": "a8769acb",
          "finalized_header()": "45ff7dd4",
          "latest_execution_payload_state_root()": "d26d9a00",
          "light_client_update(((uint64,uint64,bytes32,bytes32,bytes32),(bytes[512],bytes),bytes32[],(uint64,uint64,bytes32,bytes32,bytes32),bytes32[],(bytes32[2],bytes),bytes4,uint64))": "cc63f3be",
          "prev_sync_committee()": "a276c210",
          "state_root()": "140fcadf"
        }
      }
    }
  }
}