{
  "_format": "hh-sol-artifact-1",
  "contractName": "MockBLS",
  "sourceName": "contracts/MockBLS.sol",
  "abi": [
    {
      "inputs": [],
      "stateMutability": "nonpayable",
      "type": "constructor"
    },
    {
      "inputs": [
        {
          "internalType": "bytes[]",
          "name": "",
          "type": "bytes[]"
        },
        {
          "internalType": "bytes",
          "name": "",
          "type": "bytes"
        },
        {
          "internalType": "bytes",
          "name": "",
          "type": "bytes"
        }
      ],
      "name": "fast_aggregate_verify",
      "outputs": [
        {
          "internalType": "bool",
          "name": "",
          "type": "bool"
        }
      ],
      "stateMutability": "pure",
      "type": "function"
    }
  ],
  "bytecode": "0x608060405234801561001057600080fd5b50610255806100206000396000f3fe608060405234801561001057600080fd5b506004361061002b5760003560e01c8063d63e824014610030575b600080fd5b61004a60048036038101906100459190610135565b610060565b6040516100579190610204565b60405180910390f35b6000600190509695505050505050565b600080fd5b600080fd5b600080fd5b600080fd5b600080fd5b60008083601f84011261009f5761009e61007a565b5b8235905067ffffffffffffffff8111156100bc576100bb61007f565b5b6020830191508360208202830111156100d8576100d7610084565b5b9250929050565b60008083601f8401126100f5576100f461007a565b5b8235905067ffffffffffffffff8111156101125761011161007f565b5b60208301915083600182028301111561012e5761012d610084565b5b9250929050565b6000806000806000806060878903121561015257610151610070565b5b600087013567ffffffffffffffff8111156101705761016f610075565b5b61017c89828a01610089565b9650965050602087013567ffffffffffffffff81111561019f5761019e610075565b5b6101ab89828a016100df565b9450945050604087013567ffffffffffffffff8111156101ce576101cd610075565b5b6101da89828a016100df565b92509250509295509295509295565b60008115159050919050565b6101fe816101e9565b82525050565b600060208201905061021960008301846101f5565b9291505056fea2646970667358221220c4745a41a5033aa1d8da7525e6e53a35f9ed9f0f2d8cd06eb807491b029104a364736f6c63430008090033",
  "linkReferences": {},
  "deployedLinkReferences": {}
}