{
  "_format": "hh-sol-artifact-1",
  "contractName": "BeaconLightClient",
  "sourceName": "contracts/BeaconLightClient.sol",
  "abi": [
    {
      "inputs": [
        {
          "internalType": "address",
          "name": "_bls",
          "type": "address"
        },
        {
          "internalType": "uint64",
          "name": "_slot",
          "type": "uint64"
        },
        {
          "internalType": "uint64",
          "name": "_proposer_index",
          "type": "uint64"
        },
        {
          "internalType": "bytes32",
          "name": "_parent_root",
          "type": "bytes32"
        },
        {
          "internalType": "bytes32",
          "name": "_state_root",
          "type": "bytes32"
        },
        {
          "internalType": "bytes32",
          "name": "_body_root",
          "type": "bytes32"
        },
        {
          "internalType": "bytes[512]",
          "name": "_pubkeys",
          "type": "bytes[512]"
        },
        {
          "internalType": "bytes",
          "name": "_aggregate_pubkey",
          "type": "bytes"
        },
        {
          "internalType": "bytes32",
          "name": "_genesis_validators_root",
          "type": "bytes32"
        }
      ],
      "stateMutability": "nonpayable",
      "type": "constructor"
    },
    {
      "inputs": [],
      "name": "GENESIS_VALIDATORS_ROOT",
      "outputs": [
        {
          "internalType": "bytes32",
          "name": "",
          "type": "bytes32"
        }
      ],
      "stateMutability": "view",
      "type": "function"
    },
    {
      "inputs": [],
      "name": "finalized_header",
      "outputs": [
        {
          "internalType": "uint64",
          "name": "slot",
          "type": "uint64"
        },
        {
          "internalType": "uint64",
          "name": "proposer_index",
          "type": "uint64"
        },
        {
          "internalType": "bytes32",
          "name": "parent_root",
          "type": "bytes32"
        },
        {
          "internalType": "bytes32",
          "name": "state_root",
          "type": "bytes32"
        },
        {
          "internalType": "bytes32",
          "name": "body_root",
          "type": "bytes32"
        }
      ],
      "stateMutability": "view",
      "type": "function"
    },
    {
      "inputs": [],
      "name": "latest_execution_payload_state_root",
      "outputs": [
        {
          "internalType": "bytes32",
          "name": "",
          "type": "bytes32"
        }
      ],
      "stateMutability": "view",
      "type": "function"
    },
    {
      "inputs": [
        {
          "components": [
            {
              "components": [
                {
                  "internalType": "uint64",
                  "name": "slot",
                  "type": "uint64"
                },
                {
                  "internalType": "uint64",
                  "name": "proposer_index",
                  "type": "uint64"
                },
                {
                  "internalType": "bytes32",
                  "name": "parent_root",
                  "type": "bytes32"
                },
                {
                  "internalType": "bytes32",
                  "name": "state_root",
                  "type": "bytes32"
                },
                {
                  "internalType": "bytes32",
                  "name": "body_root",
                  "type": "bytes32"
                }
              ],
              "internalType": "struct BeaconChain.BeaconBlockHeader",
              "name": "attested_header",
              "type": "tuple"
            },
            {
              "components": [
                {
                  "internalType": "bytes[512]",
                  "name": "pubkeys",
                  "type": "bytes[512]"
                },
                {
                  "internalType": "bytes",
                  "name": "aggregate_pubkey",
                  "type": "bytes"
                }
              ],
              "internalType": "struct BeaconChain.SyncCommittee",
              "name": "next_sync_committee",
              "type": "tuple"
            },
            {
              "internalType": "bytes32[]",
              "name": "next_sync_committee_branch",
              "type": "bytes32[]"
            },
            {
              "components": [
                {
                  "internalType": "uint64",
                  "name": "slot",
                  "type": "uint64"
                },
                {
                  "internalType": "uint64",
                  "name": "proposer_index",
                  "type": "uint64"
                },
                {
                  "internalType": "bytes32",
                  "name": "parent_root",
                  "type": "bytes32"
                },
                {
                  "internalType": "bytes32",
                  "name": "state_root",
                  "type": "bytes32"
                },
                {
                  "internalType": "bytes32",
                  "name": "body_root",
                  "type": "bytes32"
                }
              ],
              "internalType": "struct BeaconChain.BeaconBlockHeader",
              "name": "finalized_header",
              "type": "tuple"
            },
            {
              "internalType": "bytes32[]",
              "name": "finality_branch",
              "type": "bytes32[]"
            },
            {
              "components": [
                {
                  "internalType": "bytes32[2]",
                  "name": "sync_committee_bits",
                  "type": "bytes32[2]"
                },
                {
                  "internalType": "bytes",
                  "name": "sync_committee_signature",
                  "type": "bytes"
                }
              ],
              "internalType": "struct BeaconLightClient.SyncAggregate",
              "name": "sync_aggregate",
              "type": "tuple"
            },
            {
              "internalType": "bytes4",
              "name": "fork_version",
              "type": "bytes4"
            },
            {
              "internalType": "uint64",
              "name": "signature_slot",
              "type": "uint64"
            }
          ],
          "internalType": "struct BeaconLightClient.FinalizedHeaderUpdate",
          "name": "update",
          "type": "tuple"
        }
      ],
      "name": "light_client_update",
      "outputs": [],
      "stateMutability": "nonpayable",
      "type": "function"
    },
    {
      "inputs": [],
      "name": "prev_sync_committee",
      "outputs": [
        {
          "internalType": "bytes",
          "name": "aggregate_pubkey",
          "type": "bytes"
        }
      ],
      "stateMutability": "view",
      "type": "function"
    },
    {
      "inputs": [],
      "name": "state_root",
      "outputs": [
        {
          "internalType": "bytes32",
          "name": "",
          "type": "bytes32"
        }
      ],
      "stateMutability": "view",
      "type": "function"
    }
  ],
  "bytecode": "0x60c0604052604051806102800160405280620f424362ffffff168152602001620f426162ffffff168152602001620f426562ffffff168152602001620f426762ffffff168152602001620f429162ffffff168152602001620f42a362ffffff168152602001620f42b562ffffff168152602001620f42b962ffffff168152602001620f42c562ffffff168152602001620f42d762ffffff168152602001620f42df62ffffff168152602001620f42eb62ffffff168152602001620f42f762ffffff168152602001620f42fb62ffffff168152602001620f430162ffffff168152602001620f430762ffffff168152602001620f431362ffffff168152602001620f431562ffffff168152602001620f432762ffffff168152602001620f433962ffffff16815250600090601462000138929190620002c8565b503480156200014657600080fd5b50604051620040523803806200405283398181016040528101906200016c9190620007fa565b8873ffffffffffffffffffffffffffffffffffffffff1660808173ffffffffffffffffffffffffffffffffffffffff16815250506040518060a001604052808967ffffffffffffffff1681526020018867ffffffffffffffff16815260200187815260200186815260200185815250601460008201518160000160006101000a81548167ffffffffffffffff021916908367ffffffffffffffff16021790555060208201518160000160086101000a81548167ffffffffffffffff021916908367ffffffffffffffff1602179055506040820151816001015560608201518160020155608082015181600301559050506040518060400160405280848152602001838152506019600082015181600001906102006200028d92919062000314565b50602082015181610200019080519060200190620002ad9291906200036f565b509050508060a081815250505050505050505050506200097c565b826014810192821562000301579160200282015b8281111562000300578251829062ffffff16905591602001919060010190620002dc565b5b50905062000310919062000400565b5090565b8261020081019282156200035c579160200282015b828111156200035b5782518290805190602001906200034a9291906200036f565b509160200191906001019062000329565b5b5090506200036b91906200041f565b5090565b8280546200037d9062000946565b90600052602060002090601f016020900481019282620003a15760008555620003ed565b82601f10620003bc57805160ff1916838001178555620003ed565b82800160010185558215620003ed579182015b82811115620003ec578251825591602001919060010190620003cf565b5b509050620003fc919062000400565b5090565b5b808211156200041b57600081600090555060010162000401565b5090565b5b8082111562000443576000818162000439919062000447565b5060010162000420565b5090565b508054620004559062000946565b6000825580601f106200046957506200048a565b601f01602090049060005260206000209081019062000489919062000400565b5b50565b6000604051905090565b600080fd5b600080fd5b600073ffffffffffffffffffffffffffffffffffffffff82169050919050565b6000620004ce82620004a1565b9050919050565b620004e081620004c1565b8114620004ec57600080fd5b50565b6000815190506200050081620004d5565b92915050565b600067ffffffffffffffff82169050919050565b620005258162000506565b81146200053157600080fd5b50565b60008151905062000545816200051a565b92915050565b6000819050919050565b62000560816200054b565b81146200056c57600080fd5b50565b600081519050620005808162000555565b92915050565b600080fd5b6000601f19601f8301169050919050565b7f4e487b7100000000000000000000000000000000000000000000000000000000600052604160045260246000fd5b620005d6826200058b565b810181811067ffffffffffffffff82111715620005f857620005f76200059c565b5b80604052505050565b60006200060d6200048d565b90506200061b8282620005cb565b919050565b600067ffffffffffffffff8211156200063e576200063d6200059c565b5b602082029050919050565b600080fd5b600080fd5b600067ffffffffffffffff8211156200067157620006706200059c565b5b6200067c826200058b565b9050602081019050919050565b60005b83811015620006a95780820151818401526020810190506200068c565b83811115620006b9576000848401525b50505050565b6000620006d6620006d08462000653565b62000601565b905082815260208101848484011115620006f557620006f46200064e565b5b6200070284828562000689565b509392505050565b600082601f83011262000722576200072162000586565b5b815162000734848260208601620006bf565b91505092915050565b6000620007546200074e8462000620565b62000601565b9050806020840283018581111562000771576200077062000649565b5b835b81811015620007bf57805167ffffffffffffffff8111156200079a576200079962000586565b5b808601620007a989826200070a565b8552602085019450505060208101905062000773565b5050509392505050565b600082601f830112620007e157620007e062000586565b5b610200620007f18482856200073d565b91505092915050565b60008060008060008060008060006101208a8c03121562000820576200081f62000497565b5b6000620008308c828d01620004ef565b9950506020620008438c828d0162000534565b9850506040620008568c828d0162000534565b9750506060620008698c828d016200056f565b96505060806200087c8c828d016200056f565b95505060a06200088f8c828d016200056f565b94505060c08a015167ffffffffffffffff811115620008b357620008b26200049c565b5b620008c18c828d01620007c9565b93505060e08a015167ffffffffffffffff811115620008e557620008e46200049c565b5b620008f38c828d016200070a565b925050610100620009078c828d016200056f565b9150509295985092959850929598565b7f4e487b7100000000000000000000000000000000000000000000000000000000600052602260045260246000fd5b600060028204905060018216806200095f57607f821691505b6020821081141562000976576200097562000917565b5b50919050565b60805160a0516136a9620009a96000396000818161020d01526107ad01526000610c5001526136a96000f3fe608060405234801561001057600080fd5b50600436106100625760003560e01c8063140fcadf1461006757806345ff7dd414610085578063a276c210146100a7578063a8769acb146100c5578063cc63f3be146100e3578063d26d9a00146100ff575b600080fd5b61006f61011d565b60405161007c91906118cf565b60405180910390f35b61008d61012a565b60405161009e95949392919061190d565b60405180910390f35b6100af610176565b6040516100bc91906119f9565b60405180910390f35b6100cd61020b565b6040516100da91906118cf565b60405180910390f35b6100fd60048036038101906100f89190611a54565b61022f565b005b6101076104d0565b60405161011491906118cf565b60405180910390f35b6000601460020154905090565b60148060000160009054906101000a900467ffffffffffffffff16908060000160089054906101000a900467ffffffffffffffff16908060010154908060020154908060030154905085565b60198061020001805461018890611acc565b80601f01602080910402602001604051908101604052809291908181526020018280546101b490611acc565b80156102015780601f106101d657610100808354040283529160200191610201565b820191906000526020600020905b8154815290600101906020018083116101e457829003601f168201915b5050505050905081565b7f000000000000000000000000000000000000000000000000000000000000000081565b61024b81806101a001906102439190611b0d565b6000016104d6565b61028a576040517f08c379a000000000000000000000000000000000000000000000000000000000815260040161028190611b92565b60405180910390fd5b6102bd81806101a0019061029e9190611b0d565b6019836101c00160208101906102b49190611c0a565b84600001610546565b6102fc576040517f08c379a00000000000000000000000000000000000000000000000000000000081526004016102f390611c83565b60405180910390fd5b6103218160e001828061018001906103149190611ca3565b84600001606001356108d6565b610360576040517f08c379a000000000000000000000000000000000000000000000000000000000815260040161035790611d52565b60405180910390fd5b6000610384601460000160009054906101000a900467ffffffffffffffff166109a0565b905060006103a4836101e001602081019061039f9190611d9e565b6109a0565b90508167ffffffffffffffff168167ffffffffffffffff1614806103e757506001826103d09190611dfa565b67ffffffffffffffff168167ffffffffffffffff16145b610426576040517f08c379a000000000000000000000000000000000000000000000000000000000815260040161041d90611e84565b60405180910390fd5b610456838060a001906104399190611ea4565b848060c001906104499190611ca3565b86600001606001356109c3565b610495576040517f08c379a000000000000000000000000000000000000000000000000000000000815260040161048c90611f18565b60405180910390fd5b828060a001906104a59190611ea4565b601981816104b391906126d8565b9050508260e001601481816104c89190612950565b905050505050565b60185481565b600060026102006104e7919061295e565b67ffffffffffffffff166003610533846002806020026040519081016040528092919082600260200280828437600081840152601f19601f820116905080830192505050505050610a86565b61053d9190612042565b10159050919050565b60008061058c866000016002806020026040519081016040528092919082600260200280828437600081840152601f19601f820116905080830192505050505050610a86565b905060008167ffffffffffffffff8111156105aa576105a9611ffd565b5b6040519080825280602002602001820160405280156105dd57816020015b60608152602001906001900390816105c85790505b5090506000805b61020067ffffffffffffffff168167ffffffffffffffff16101561079c57600060088267ffffffffffffffff16901c67ffffffffffffffff1690506000602060088461063091906129cf565b61063a9190612a00565b67ffffffffffffffff16905060006008846106559190612a00565b67ffffffffffffffff169050600180828e600001866002811061067b5761067a612a31565b5b6020020135856020811061069257610691612a31565b5b1a60f81b60f81c60ff16901c1660ff161415610788578a6000018467ffffffffffffffff1661020081106106c9576106c8612a31565b5b0180546106d590611acc565b80601f016020809104026020016040519081016040528092919081815260200182805461070190611acc565b801561074e5780601f106107235761010080835404028352916020019161074e565b820191906000526020600020905b81548152906001019060200180831161073157829003601f168201915b505050505086868061075f90612a60565b975067ffffffffffffffff168151811061077c5761077b612a31565b5b60200260200101819052505b5050508061079590612a60565b90506105e4565b5060006107d1630700000060e01b887f0000000000000000000000000000000000000000000000000000000000000000610b5e565b905060006107ef878036038101906107e99190612b88565b83610b9d565b90506000816040516020016108049190612bd6565b604051602081830303815290604052905060008b80604001906108279190611f9a565b8080601f016020809104026020016040519081016040528093929190818152602001838380828437600081840152601f19601f820116905080830192505050505050509050606067ffffffffffffffff168151146108ba576040517f08c379a00000000000000000000000000000000000000000000000000000000081526004016108b190612c3d565b60405180910390fd5b6108c5868383610bcc565b975050505050505050949350505050565b6000600667ffffffffffffffff168484905014610928576040517f08c379a000000000000000000000000000000000000000000000000000000000815260040161091f90612ca9565b60405180910390fd5b60006109438680360381019061093e9190612b88565b610d5c565b905061099581868680806020026020016040519081016040528093929190818152602001838360200280828437600081840152601f19601f820116905080830192505050505050506006606987610ebb565b915050949350505050565b60006101006020836109b291906129cf565b6109bc91906129cf565b9050919050565b6000600567ffffffffffffffff168484905014610a15576040517f08c379a0000000000000000000000000000000000000000000000000000000008152600401610a0c90612d15565b60405180910390fd5b6000610a2986610a2490612f4c565b610f7f565b9050610a7b81868680806020026020016040519081016040528093929190818152602001838360200280828437600081840152601f19601f820116905080830192505050505050506005603787610ebb565b915050949350505050565b600080600267ffffffffffffffff811115610aa457610aa3611ffd565b5b604051908082528060200260200182016040528015610ad25781602001602082028036833780820191505090505b50905082600060028110610ae957610ae8612a31565b5b602002015160001c81600081518110610b0557610b04612a31565b5b60200260200101818152505082600160028110610b2557610b24612a31565b5b602002015160001c81600181518110610b4157610b40612a31565b5b602002602001018181525050610b5681611168565b915050919050565b600080610b6b8484611438565b9050602081901c857bffffffffffffffffffffffffffffffffffffffffffffffffffffffff1916179150509392505050565b6000610bc46040518060400160405280610bb686610d5c565b81526020018481525061147e565b905092915050565b60008063d63e824060e01b858585604051602401610bec9392919061306b565b604051602081830303815290604052907bffffffffffffffffffffffffffffffffffffffffffffffffffffffff19166020820180517bffffffffffffffffffffffffffffffffffffffffffffffffffffffff838183161783525050505090506000807f000000000000000000000000000000000000000000000000000000000000000073ffffffffffffffffffffffffffffffffffffffff1683604051610c9391906130f3565b600060405180830381855afa9150503d8060008114610cce576040519150601f19603f3d011682016040523d82523d6000602084013e610cd3565b606091505b50915091508115610d0457602081511415610cff5780806020019051810190610cfc9190613142565b93505b610d52565b600081511115610d175780518082602001fd5b6040517f08c379a0000000000000000000000000000000000000000000000000000000008152600401610d49906131bb565b60405180910390fd5b5050509392505050565b600080600567ffffffffffffffff811115610d7a57610d79611ffd565b5b604051908082528060200260200182016040528015610da85781602001602082028036833780820191505090505b509050610db88360000151611499565b77ffffffffffffffffffffffffffffffffffffffffffffffff191681600081518110610de757610de6612a31565b5b602002602001018181525050610e008360200151611499565b77ffffffffffffffffffffffffffffffffffffffffffffffff191681600181518110610e2f57610e2e612a31565b5b602002602001018181525050826040015181600281518110610e5457610e53612a31565b5b602002602001018181525050826060015181600381518110610e7957610e78612a31565b5b602002602001018181525050826080015181600481518110610e9e57610e9d612a31565b5b602002602001018181525050610eb3816114ae565b915050919050565b60008086905060005b8567ffffffffffffffff16811015610f6f5760016002826002610ee7919061330e565b8767ffffffffffffffff16610efc9190613359565b610f06919061338a565b1415610f3757610f30878281518110610f2257610f21612a31565b5b60200260200101518361170c565b9150610f5e565b610f5b82888381518110610f4e57610f4d612a31565b5b602002602001015161170c565b91505b80610f68906133bb565b9050610ec4565b5082811491505095945050505050565b60008061020067ffffffffffffffff1667ffffffffffffffff811115610fa857610fa7611ffd565b5b604051908082528060200260200182016040528015610fd65781602001602082028036833780820191505090505b50905060005b61020067ffffffffffffffff168110156110be576000846000015182610200811061100a57611009612a31565b5b60200201519050603067ffffffffffffffff1681511461105f576040517f08c379a000000000000000000000000000000000000000000000000000000000815260040161105690613450565b60405180910390fd5b61108d81600060801b6040516020016110799291906134bd565b604051602081830303815290604052611740565b8383815181106110a05761109f612a31565b5b60200260200101818152505050806110b7906133bb565b9050610fdc565b5060006110ca826114ae565b9050603067ffffffffffffffff168460200151511461111e576040517f08c379a000000000000000000000000000000000000000000000000000000000815260040161111590613531565b60405180910390fd5b60006111528560200151600060801b60405160200161113e9291906134bd565b604051602081830303815290604052611740565b905061115e828261170c565b9350505050919050565b6000806000905060005b835181101561142e5760008482815181106111905761118f612a31565b5b602002602001015190507f5555555555555555555555555555555555555555555555555555555555555555600182901c167f555555555555555555555555555555555555555555555555555555555555555582166111ee9190613551565b90507f3333333333333333333333333333333333333333333333333333333333333333600282901c167f333333333333333333333333333333333333333333333333333333333333333382166112449190613551565b90507f0f0f0f0f0f0f0f0f0f0f0f0f0f0f0f0f0f0f0f0f0f0f0f0f0f0f0f0f0f0f0f0f600482901c167f0f0f0f0f0f0f0f0f0f0f0f0f0f0f0f0f0f0f0f0f0f0f0f0f0f0f0f0f0f0f0f0f821661129a9190613551565b90507eff00ff00ff00ff00ff00ff00ff00ff00ff00ff00ff00ff00ff00ff00ff00ff600882901c167eff00ff00ff00ff00ff00ff00ff00ff00ff00ff00ff00ff00ff00ff00ff00ff82166112ee9190613551565b90507dffff0000ffff0000ffff0000ffff0000ffff0000ffff0000ffff0000ffff601082901c167dffff0000ffff0000ffff0000ffff0000ffff0000ffff0000ffff0000ffff82166113409190613551565b90507bffffffff00000000ffffffff00000000ffffffff00000000ffffffff602082901c167bffffffff00000000ffffffff00000000ffffffff00000000ffffffff821661138e9190613551565b905077ffffffffffffffff0000000000000000ffffffffffffffff604082901c1677ffffffffffffffff0000000000000000ffffffffffffffff82166113d49190613551565b90506fffffffffffffffffffffffffffffffff608082901c166fffffffffffffffffffffffffffffffff821661140a9190613551565b905080836114189190613551565b9250508080611426906133bb565b915050611172565b5080915050919050565b60006114766040518060400160405280857bffffffffffffffffffffffffffffffffffffffffffffffffffffffff1916815260200184815250611799565b905092915050565b60006114928260000151836020015161170c565b9050919050565b60006114a4826117d3565b60c01b9050919050565b6000808251905060008114156114ca576000801b915050611707565b600181141561151e57611516836000815181106114ea576114e9612a31565b5b60200260200101516040516020016115029190612bd6565b604051602081830303815290604052611740565b915050611707565b600281141561156f576115678360008151811061153e5761153d612a31565b5b60200260200101518460018151811061155a57611559612a31565b5b602002602001015161170c565b915050611707565b600061157a82611865565b9050600060028261158b9190612042565b67ffffffffffffffff8111156115a4576115a3611ffd565b5b6040519080825280602002602001820160405280156115d25781602001602082028036833780820191505090505b50905060005b83811015611636578581815181106115f3576115f2612a31565b5b60200260200101518282856116089190613551565b8151811061161957611618612a31565b5b6020026020010181815250508061162f906133bb565b90506115d8565b50600060018361164691906135a7565b90505b60008111156116e4576116b4826002836116639190612042565b8151811061167457611673612a31565b5b602002602001015183600160028561168c9190612042565b6116969190613551565b815181106116a7576116a6612a31565b5b602002602001015161170c565b8282815181106116c7576116c6612a31565b5b602002602001018181525050806116dd906135db565b9050611649565b50806001815181106116f9576116f8612a31565b5b602002602001015193505050505b919050565b60006117388383604051602001611724929190613605565b604051602081830303815290604052611740565b905092915050565b600060028260405161175291906130f3565b602060405180830381855afa15801561176f573d6000803e3d6000fd5b5050506040513d601f19601f820116820180604052508101906117929190613646565b9050919050565b60006117cc82600001517bffffffffffffffffffffffffffffffffffffffffffffffffffffffff1916836020015161170c565b9050919050565b6000819050600866ff00ff00ff00ff821667ffffffffffffffff16901b600867ff00ff00ff00ff00831667ffffffffffffffff16901c179050601065ffff0000ffff821667ffffffffffffffff16901b601067ffff0000ffff0000831667ffffffffffffffff16901c17905060208167ffffffffffffffff16901b60208267ffffffffffffffff16901c179050919050565b60006001821161187857600190506118b1565b600282141561188a57600290506118b1565b6118a26001808461189b9190613551565b901c611865565b60026118ae9190612042565b90505b919050565b6000819050919050565b6118c9816118b6565b82525050565b60006020820190506118e460008301846118c0565b92915050565b600067ffffffffffffffff82169050919050565b611907816118ea565b82525050565b600060a08201905061192260008301886118fe565b61192f60208301876118fe565b61193c60408301866118c0565b61194960608301856118c0565b61195660808301846118c0565b9695505050505050565b600081519050919050565b600082825260208201905092915050565b60005b8381101561199a57808201518184015260208101905061197f565b838111156119a9576000848401525b50505050565b6000601f19601f8301169050919050565b60006119cb82611960565b6119d5818561196b565b93506119e581856020860161197c565b6119ee816119af565b840191505092915050565b60006020820190508181036000830152611a1381846119c0565b905092915050565b6000604051905090565b600080fd5b600080fd5b600080fd5b60006102008284031215611a4b57611a4a611a2f565b5b81905092915050565b600060208284031215611a6a57611a69611a25565b5b600082013567ffffffffffffffff811115611a8857611a87611a2a565b5b611a9484828501611a34565b91505092915050565b7f4e487b7100000000000000000000000000000000000000000000000000000000600052602260045260246000fd5b60006002820490506001821680611ae457607f821691505b60208210811415611af857611af7611a9d565b5b50919050565b600080fd5b600080fd5b600080fd5b600082356001606003833603038112611b2957611b28611afe565b5b80830191505092915050565b600082825260208201905092915050565b7f2173757065726d616a6f72000000000000000000000000000000000000000000600082015250565b6000611b7c600b83611b35565b9150611b8782611b46565b602082019050919050565b60006020820190508181036000830152611bab81611b6f565b9050919050565b60007fffffffff0000000000000000000000000000000000000000000000000000000082169050919050565b611be781611bb2565b8114611bf257600080fd5b50565b600081359050611c0481611bde565b92915050565b600060208284031215611c2057611c1f611a25565b5b6000611c2e84828501611bf5565b91505092915050565b7f217369676e000000000000000000000000000000000000000000000000000000600082015250565b6000611c6d600583611b35565b9150611c7882611c37565b602082019050919050565b60006020820190508181036000830152611c9c81611c60565b9050919050565b60008083356001602003843603038112611cc057611cbf611afe565b5b80840192508235915067ffffffffffffffff821115611ce257611ce1611b03565b5b602083019250602082023603831315611cfe57611cfd611b08565b5b509250929050565b7f2166696e616c697a65645f686561646572000000000000000000000000000000600082015250565b6000611d3c601183611b35565b9150611d4782611d06565b602082019050919050565b60006020820190508181036000830152611d6b81611d2f565b9050919050565b611d7b816118ea565b8114611d8657600080fd5b50565b600081359050611d9881611d72565b92915050565b600060208284031215611db457611db3611a25565b5b6000611dc284828501611d89565b91505092915050565b7f4e487b7100000000000000000000000000000000000000000000000000000000600052601160045260246000fd5b6000611e05826118ea565b9150611e10836118ea565b92508267ffffffffffffffff03821115611e2d57611e2c611dcb565b5b828201905092915050565b7f217369676e61747572655f706572696f64000000000000000000000000000000600082015250565b6000611e6e601183611b35565b9150611e7982611e38565b602082019050919050565b60006020820190508181036000830152611e9d81611e61565b9050919050565b600082356001604003833603038112611ec057611ebf611afe565b5b80830191505092915050565b7f216e6578745f73796e635f636f6d6d6974746565000000000000000000000000600082015250565b6000611f02601483611b35565b9150611f0d82611ecc565b602082019050919050565b60006020820190508181036000830152611f3181611ef5565b9050919050565b7f4e487b7100000000000000000000000000000000000000000000000000000000600052600060045260246000fd5b60008235600161400003833603038112611f8457611f83611afe565b5b80830191505092915050565b6000819050919050565b60008083356001602003843603038112611fb757611fb6611afe565b5b80840192508235915067ffffffffffffffff821115611fd957611fd8611b03565b5b602083019250600182023603831315611ff557611ff4611b08565b5b509250929050565b7f4e487b7100000000000000000000000000000000000000000000000000000000600052604160045260246000fd5b60006102009050919050565b6000819050919050565b600061204d82612038565b915061205883612038565b9250817fffffffffffffffffffffffffffffffffffffffffffffffffffffffffffffffff048311821515161561209157612090611dcb565b5b828202905092915050565b60008190506001806001038301049050919050565b6000819050919050565b60008190508160005260206000209050919050565b600082821c905092915050565b61210d7fffffffffffffffffffffffffffffffffffffffffffffffffffffffffffffffff836020036008026120d0565b815481168255505050565b600082821b905092915050565b6000600883026121557fffffffffffffffffffffffffffffffffffffffffffffffffffffffffffffffff82612118565b61215f8683612118565b95508019841693508086168417925050509392505050565b6000819050919050565b600061219c61219761219284612038565b612177565b612038565b9050919050565b6000819050919050565b6121b683612181565b6121ca6121c2826121a3565b848454612125565b825550505050565b600090565b6121df6121d2565b6121ea8184846121ad565b505050565b5b8181101561220e576122036000826121d7565b6001810190506121f0565b5050565b6000612223600019846008026120d0565b1980831691505092915050565b600061223c8383612212565b9150826002028217905092915050565b612255816120bb565b612260838254612230565b8083556000825550505050565b60006020601f8301049050919050565b60208410600081146122d857601f8411600181146122a65761229f8685612230565b83556122d2565b6122af836120bb565b6122c66122bb8761226d565b8201600183016121ef565b6122d0878561224c565b505b50612325565b6122e1826120bb565b6122ea8661226d565b8101601f871680156123045761230381600184036120dd565b5b6123186123108861226d565b8401836121ef565b6001886002021785555050505b5050505050565b6801000000000000000084111561234657612345611ffd565b5b602083106000811461239157602085106000811461236f576123688685612230565b835561238b565b8360ff1916935083612380846120bb565b556001866002020183555b5061239b565b6001856002020182555b5050505050565b80546123ad81611acc565b808411156123c2576123c18482848661232c565b5b808410156123d7576123d68482848661227d565b5b50505050565b818110156123fb576123f06000826121d7565b6001810190506123dd565b5050565b61240a6000826123a2565b50565b6000821461241e5761241d611f38565b5b612427816123ff565b5050565b5b8181101561244a5761243f60008261240d565b60018101905061242c565b5050565b818310156124875761245f8261209c565b6124688461209c565b612471836120b1565b818101838201612481818361242b565b50505050505b505050565b680100000000000000008211156124a6576124a5611ffd565b5b6124af8161202c565b6124ba83828461244e565b505050565b60006102009050919050565b600082905092915050565b601f821115612517576124e8816120bb565b6124f18461226d565b81016020851015612500578190505b61251461250c8561226d565b8301826121ef565b50505b505050565b61252683836124cb565b67ffffffffffffffff81111561253f5761253e611ffd565b5b6125498254611acc565b6125548282856124d6565b6000601f8311600181146125835760008415612571578287013590505b61257b8582612230565b8655506125e3565b601f198416612591866120bb565b60005b828110156125b957848901358255600182019150602085019450602081019050612594565b868310156125d657848901356125d2601f891682612212565b8355505b6001600288020188555050505b50505050505050565b81156125fb576125fa611f38565b5b61260684848361251c565b50505050565b612615826124bf565b61261f818361248c565b61262883611f90565b612631836120b1565b6000805b8481101561266c576126478488611f9a565b612653818386886125ec565b6020860195506001850194505050600181019050612635565b50505050505050565b61267f828261260c565b5050565b61268e83838361251c565b505050565b60008101600083016126a58185611f67565b6126af8184612675565b5050506102008101602083016126c58185611f9a565b6126d0818386612683565b505050505050565b6126e28282612693565b5050565b600081356126f381611d72565b80915050919050565b60008160001b9050919050565b600067ffffffffffffffff61271d846126fc565b9350801983169250808416831791505092915050565b600061274e612749612744846118ea565b612177565b6118ea565b9050919050565b6000819050919050565b61276882612733565b61277b61277482612755565b8354612709565b8255505050565b60008160401b9050919050565b60006fffffffffffffffff00000000000000006127ab84612782565b9350801983169250808416831791505092915050565b6127ca82612733565b6127dd6127d682612755565b835461278f565b8255505050565b6127ed816118b6565b81146127f857600080fd5b50565b60008135612808816127e4565b80915050919050565b60007fffffffffffffffffffffffffffffffffffffffffffffffffffffffffffffffff61283d846126fc565b9350801983169250808416831791505092915050565b600061285e826118b6565b9050919050565b60008160001c9050919050565b600061287d82612865565b9050919050565b61288d82612853565b6128a061289982612872565b8354612811565b8255505050565b6000810160008301806128b9816126e6565b90506128c5818461275f565b5050506000810160208301806128da816126e6565b90506128e681846127c1565b5050506001810160408301806128fb816127fb565b90506129078184612884565b50505060028101606083018061291c816127fb565b90506129288184612884565b50505060038101608083018061293d816127fb565b90506129498184612884565b5050505050565b61295a82826128a7565b5050565b6000612969826118ea565b9150612974836118ea565b92508167ffffffffffffffff048311821515161561299557612994611dcb565b5b828202905092915050565b7f4e487b7100000000000000000000000000000000000000000000000000000000600052601260045260246000fd5b60006129da826118ea565b91506129e5836118ea565b9250826129f5576129f46129a0565b5b828204905092915050565b6000612a0b826118ea565b9150612a16836118ea565b925082612a2657612a256129a0565b5b828206905092915050565b7f4e487b7100000000000000000000000000000000000000000000000000000000600052603260045260246000fd5b6000612a6b826118ea565b915067ffffffffffffffff821415612a8657612a85611dcb565b5b600182019050919050565b600080fd5b612a9f826119af565b810181811067ffffffffffffffff82111715612abe57612abd611ffd565b5b80604052505050565b6000612ad1611a1b565b9050612add8282612a96565b919050565b600080fd5b600081359050612af6816127e4565b92915050565b600060a08284031215612b1257612b11612a91565b5b612b1c60a0612ac7565b90506000612b2c84828501611d89565b6000830152506020612b4084828501611d89565b6020830152506040612b5484828501612ae7565b6040830152506060612b6884828501612ae7565b6060830152506080612b7c84828501612ae7565b60808301525092915050565b600060a08284031215612b9e57612b9d611a25565b5b6000612bac84828501612afc565b91505092915050565b6000819050919050565b612bd0612bcb826118b6565b612bb5565b82525050565b6000612be28284612bbf565b60208201915081905092915050565b7f217369676e617475726500000000000000000000000000000000000000000000600082015250565b6000612c27600a83611b35565b9150612c3282612bf1565b602082019050919050565b60006020820190508181036000830152612c5681612c1a565b9050919050565b7f2166696e616c6974795f6272616e636800000000000000000000000000000000600082015250565b6000612c93601083611b35565b9150612c9e82612c5d565b602082019050919050565b60006020820190508181036000830152612cc281612c86565b9050919050565b7f216e6578745f73796e635f636f6d6d69747465655f6272616e63680000000000600082015250565b6000612cff601b83611b35565b9150612d0a82612cc9565b602082019050919050565b60006020820190508181036000830152612d2e81612cf2565b9050919050565b600080fd5b600067ffffffffffffffff821115612d5557612d54611ffd565b5b602082029050919050565b600080fd5b600080fd5b600067ffffffffffffffff821115612d8557612d84611ffd565b5b612d8e826119af565b9050602081019050919050565b82818337600083830152505050565b6000612dbd612db884612d6a565b612ac7565b905082815260208101848484011115612dd957612dd8612d65565b5b612de4848285612d9b565b509392505050565b600082601f830112612e0157612e00612d35565b5b8135612e11848260208601612daa565b91505092915050565b6000612e2d612e2884612d3a565b612ac7565b90508060208402830185811115612e4757612e46612d60565b5b835b81811015612e8e57803567ffffffffffffffff811115612e6c57612e6b612d35565b5b808601612e798982612dec565b85526020850194505050602081019050612e49565b5050509392505050565b600082601f830112612ead57612eac612d35565b5b610200612ebb848285612e1a565b91505092915050565b600060408284031215612eda57612ed9612a91565b5b612ee46040612ac7565b9050600082013567ffffffffffffffff811115612f0457612f03612ae2565b5b612f1084828501612e98565b600083015250602082013567ffffffffffffffff811115612f3457612f33612ae2565b5b612f4084828501612dec565b60208301525092915050565b6000612f583683612ec4565b9050919050565b600081519050919050565b600082825260208201905092915050565b6000819050602082019050919050565b600082825260208201905092915050565b6000612fa782611960565b612fb18185612f8b565b9350612fc181856020860161197c565b612fca816119af565b840191505092915050565b6000612fe18383612f9c565b905092915050565b6000602082019050919050565b600061300182612f5f565b61300b8185612f6a565b93508360208202850161301d85612f7b565b8060005b85811015613059578484038952815161303a8582612fd5565b945061304583612fe9565b925060208a01995050600181019050613021565b50829750879550505050505092915050565b600060608201905081810360008301526130858186612ff6565b9050818103602083015261309981856119c0565b905081810360408301526130ad81846119c0565b9050949350505050565b600081905092915050565b60006130cd82611960565b6130d781856130b7565b93506130e781856020860161197c565b80840191505092915050565b60006130ff82846130c2565b915081905092915050565b60008115159050919050565b61311f8161310a565b811461312a57600080fd5b50565b60008151905061313c81613116565b92915050565b60006020828403121561315857613157611a25565b5b60006131668482850161312d565b91505092915050565b7f2176657269667900000000000000000000000000000000000000000000000000600082015250565b60006131a5600783611b35565b91506131b08261316f565b602082019050919050565b600060208201905081810360008301526131d481613198565b9050919050565b60008160011c9050919050565b6000808291508390505b60018511156132325780860481111561320e5761320d611dcb565b5b600185161561321d5780820291505b808102905061322b856131db565b94506131f2565b94509492505050565b60008261324b5760019050613307565b816132595760009050613307565b816001811461326f5760028114613279576132a8565b6001915050613307565b60ff84111561328b5761328a611dcb565b5b8360020a9150848211156132a2576132a1611dcb565b5b50613307565b5060208310610133831016604e8410600b84101617156132dd5782820a9050838111156132d8576132d7611dcb565b5b613307565b6132ea84848460016131e8565b9250905081840481111561330157613300611dcb565b5b81810290505b9392505050565b600061331982612038565b915061332483612038565b92506133517fffffffffffffffffffffffffffffffffffffffffffffffffffffffffffffffff848461323b565b905092915050565b600061336482612038565b915061336f83612038565b92508261337f5761337e6129a0565b5b828204905092915050565b600061339582612038565b91506133a083612038565b9250826133b0576133af6129a0565b5b828206905092915050565b60006133c682612038565b91507fffffffffffffffffffffffffffffffffffffffffffffffffffffffffffffffff8214156133f9576133f8611dcb565b5b600182019050919050565b7f216b657900000000000000000000000000000000000000000000000000000000600082015250565b600061343a600483611b35565b915061344582613404565b602082019050919050565b600060208201905081810360008301526134698161342d565b9050919050565b60007fffffffffffffffffffffffffffffffff0000000000000000000000000000000082169050919050565b6000819050919050565b6134b76134b282613470565b61349c565b82525050565b60006134c982856130c2565b91506134d582846134a6565b6010820191508190509392505050565b7f216167675f6b6579000000000000000000000000000000000000000000000000600082015250565b600061351b600883611b35565b9150613526826134e5565b602082019050919050565b6000602082019050818103600083015261354a8161350e565b9050919050565b600061355c82612038565b915061356783612038565b9250827fffffffffffffffffffffffffffffffffffffffffffffffffffffffffffffffff0382111561359c5761359b611dcb565b5b828201905092915050565b60006135b282612038565b91506135bd83612038565b9250828210156135d0576135cf611dcb565b5b828203905092915050565b60006135e682612038565b915060008214156135fa576135f9611dcb565b5b600182039050919050565b60006136118285612bbf565b6020820191506136218284612bbf565b6020820191508190509392505050565b600081519050613640816127e4565b92915050565b60006020828403121561365c5761365b611a25565b5b600061366a84828501613631565b9150509291505056fea2646970667358221220cae58a3060164dc3ffca7907fd7da13d239d33384270eca3d693e9551b4bf96564736f6c63430008090033",
  "linkReferences": {},
  "deployedLinkReferences": {}
}